{
  "_format": "hh-sol-artifact-1",
  "contractName": "NFZGameMechanics",
  "sourceName": "contracts/NFZGameMechanics.sol",
  "abi": [
    {
      "anonymous": false,
      "inputs": [
        {
          "indexed": false,
          "internalType": "uint256[]",
          "name": "tokenIds",
          "type": "uint256[]"
        },
        {
          "indexed": false,
          "internalType": "uint256",
          "name": "location",
          "type": "uint256"
        },
        {
          "indexed": false,
          "internalType": "address",
          "name": "from",
          "type": "address"
        }
      ],
      "name": "ELocationSet",
      "type": "event"
    },
    {
      "anonymous": false,
      "inputs": [
        {
          "indexed": false,
          "internalType": "uint256[]",
          "name": "userPrizes",
          "type": "uint256[]"
        },
        {
          "indexed": false,
          "internalType": "address",
          "name": "from",
          "type": "address"
        },
        {
          "indexed": false,
          "internalType": "uint256",
          "name": "location",
          "type": "uint256"
        },
        {
          "indexed": false,
          "internalType": "uint256",
          "name": "randomNumber",
          "type": "uint256"
        },
        {
          "indexed": false,
          "internalType": "uint256",
          "name": "baseChance",
          "type": "uint256"
        }
      ],
      "name": "EPrizes",
      "type": "event"
    },
    {
      "anonymous": false,
      "inputs": [
        {
          "indexed": true,
          "internalType": "address",
          "name": "previousOwner",
          "type": "address"
        },
        {
          "indexed": true,
          "internalType": "address",
          "name": "newOwner",
          "type": "address"
        }
      ],
      "name": "OwnershipTransferred",
      "type": "event"
    },
    {
      "inputs": [
        {
          "internalType": "uint256",
          "name": "",
          "type": "uint256"
        }
      ],
      "name": "LocationRewards",
      "outputs": [
        {
          "internalType": "uint256",
          "name": "locationId",
          "type": "uint256"
        }
      ],
      "stateMutability": "view",
      "type": "function"
    },
    {
      "inputs": [
        {
          "internalType": "uint256",
          "name": "",
          "type": "uint256"
        }
      ],
      "name": "Locations",
      "outputs": [
        {
          "internalType": "uint256",
          "name": "_id",
          "type": "uint256"
        },
        {
          "internalType": "string",
          "name": "Location_name",
          "type": "string"
        },
        {
          "internalType": "uint256",
          "name": "MAX_CAPACITY",
          "type": "uint256"
        },
        {
          "internalType": "uint256",
          "name": "CURRENT_CAPACITY",
          "type": "uint256"
        }
      ],
      "stateMutability": "view",
      "type": "function"
    },
    {
      "inputs": [
        {
          "internalType": "uint256[]",
          "name": "_tokenIds",
          "type": "uint256[]"
        },
        {
          "internalType": "uint256",
          "name": "_locationId",
          "type": "uint256"
        },
        {
          "internalType": "address",
          "name": "account",
          "type": "address"
        }
      ],
      "name": "_setLocation",
      "outputs": [],
      "stateMutability": "nonpayable",
      "type": "function"
    },
    {
      "inputs": [
        {
          "internalType": "uint256",
          "name": "_id",
          "type": "uint256"
        },
        {
          "internalType": "string",
          "name": "name",
          "type": "string"
        },
        {
          "internalType": "uint256",
          "name": "_maxCapacity",
          "type": "uint256"
        },
        {
          "internalType": "uint256[]",
          "name": "prizes",
          "type": "uint256[]"
        },
        {
          "internalType": "uint256[]",
          "name": "specialRerwards",
          "type": "uint256[]"
        }
      ],
      "name": "addLocation",
      "outputs": [],
      "stateMutability": "nonpayable",
      "type": "function"
    },
    {
      "inputs": [
        {
          "internalType": "uint256",
          "name": "_locationId",
          "type": "uint256"
        },
        {
          "internalType": "uint256[]",
          "name": "_prizes",
          "type": "uint256[]"
        },
        {
          "internalType": "uint256[]",
          "name": "_specialPrizes",
          "type": "uint256[]"
        }
      ],
      "name": "addPrizes",
      "outputs": [],
      "stateMutability": "nonpayable",
      "type": "function"
    },
    {
      "inputs": [
        {
          "internalType": "uint256",
          "name": "_locationId",
          "type": "uint256"
        }
      ],
      "name": "getLocationPrizeArray",
      "outputs": [
        {
          "internalType": "uint256[]",
          "name": "prizes",
          "type": "uint256[]"
        },
        {
          "internalType": "uint256[]",
          "name": "special",
          "type": "uint256[]"
        }
      ],
      "stateMutability": "view",
      "type": "function"
    },
    {
      "inputs": [],
      "name": "init",
      "outputs": [],
      "stateMutability": "nonpayable",
      "type": "function"
    },
    {
      "inputs": [
        {
          "internalType": "address",
          "name": "_vrfCoordinator",
          "type": "address"
        },
        {
          "internalType": "address",
          "name": "_link",
          "type": "address"
        }
      ],
      "name": "initialize",
      "outputs": [],
      "stateMutability": "nonpayable",
      "type": "function"
    },
    {
      "inputs": [],
      "name": "owner",
      "outputs": [
        {
          "internalType": "address",
          "name": "",
          "type": "address"
        }
      ],
      "stateMutability": "view",
      "type": "function"
    },
    {
      "inputs": [
        {
          "internalType": "bytes32",
          "name": "requestId",
          "type": "bytes32"
        },
        {
          "internalType": "uint256",
          "name": "randomness",
          "type": "uint256"
        }
      ],
      "name": "rawFulfillRandomness",
      "outputs": [],
      "stateMutability": "nonpayable",
      "type": "function"
    },
    {
      "inputs": [],
      "name": "renounceOwnership",
      "outputs": [],
      "stateMutability": "nonpayable",
      "type": "function"
    },
    {
      "inputs": [
        {
          "internalType": "uint256",
          "name": "_locationId",
          "type": "uint256"
        }
      ],
      "name": "returnStruct",
      "outputs": [
        {
          "components": [
            {
              "internalType": "uint256",
              "name": "_id",
              "type": "uint256"
            },
            {
              "internalType": "string",
              "name": "Location_name",
              "type": "string"
            },
            {
              "internalType": "uint256",
              "name": "MAX_CAPACITY",
              "type": "uint256"
            },
            {
              "internalType": "uint256",
              "name": "CURRENT_CAPACITY",
              "type": "uint256"
            },
            {
              "internalType": "uint256[]",
              "name": "CURRENT_INHABITANTS",
              "type": "uint256[]"
            }
          ],
          "internalType": "struct NFZGameMechanics.Location",
          "name": "",
          "type": "tuple"
        }
      ],
      "stateMutability": "view",
      "type": "function"
    },
    {
      "inputs": [
        {
          "internalType": "address",
          "name": "_address",
          "type": "address"
        }
      ],
      "name": "setGameAdmin",
      "outputs": [],
      "stateMutability": "nonpayable",
      "type": "function"
    },
    {
      "inputs": [
        {
          "internalType": "uint256",
          "name": "",
          "type": "uint256"
        }
      ],
      "name": "tokenIdToLocations",
      "outputs": [
        {
          "internalType": "uint256",
          "name": "",
          "type": "uint256"
        }
      ],
      "stateMutability": "view",
      "type": "function"
    },
    {
      "inputs": [
        {
          "internalType": "address",
          "name": "newOwner",
          "type": "address"
        }
      ],
      "name": "transferOwnership",
      "outputs": [],
      "stateMutability": "nonpayable",
      "type": "function"
    },
    {
      "inputs": [
        {
          "internalType": "address",
          "name": "",
          "type": "address"
        },
        {
          "internalType": "uint256",
          "name": "",
          "type": "uint256"
        }
      ],
      "name": "userRewards",
      "outputs": [
        {
          "internalType": "uint256",
          "name": "",
          "type": "uint256"
        }
      ],
      "stateMutability": "view",
      "type": "function"
    }
  ],
  "bytecode": "0x608060405234801561001057600080fd5b50612080806100206000396000f3fe608060405234801561001057600080fd5b50600436106101005760003560e01c8063715018a611610097578063c02a523a11610066578063c02a523a14610229578063c0ba3e7a14610249578063e1c7392a1461026a578063f2fde38b1461027257600080fd5b8063715018a6146101e05780638da5cb5b146101e857806394985ddd146102035780639c6946171461021657600080fd5b80634c241617116100d35780634c241617146101795780634c91ebe9146101a75780635c2dd572146101ba57806363c2a20a146101cd57600080fd5b80630711c7a614610105578063429d8533146101315780634856684a14610146578063485cc95514610166575b600080fd5b610118610113366004611bde565b610285565b6040516101289493929190611f05565b60405180910390f35b61014461013f366004611acc565b610336565b005b610159610154366004611bde565b6103c4565b6040516101289190611eae565b610144610174366004611aed565b610523565b610199610187366004611bde565b606d6020526000908152604090205481565b604051908152602001610128565b6101446101b5366004611c78565b61063c565b6101446101c8366004611c0e565b610718565b6101996101db366004611b1f565b610849565b61014461087a565b6035546040516001600160a01b039091168152602001610128565b610144610211366004611bbd565b6108e0565b610144610224366004611b48565b610948565b610199610237366004611bde565b606c6020526000908152604090205481565b61025c610257366004611bde565b610cd6565b604051610128929190611e57565b610144610db5565b610144610280366004611acc565b610eda565b606b60205260009081526040902080546001820180549192916102a790611fa8565b80601f01602080910402602001604051908101604052809291908181526020018280546102d390611fa8565b80156103205780601f106102f557610100808354040283529160200191610320565b820191906000526020600020905b81548152906001019060200180831161030357829003601f168201915b5050505050908060020154908060030154905084565b6035546001600160a01b031633146103955760405162461bcd60e51b815260206004820181905260248201527f4f776e61626c653a2063616c6c6572206973206e6f7420746865206f776e657260448201526064015b60405180910390fd5b6069805473ffffffffffffffffffffffffffffffffffffffff19166001600160a01b0392909216919091179055565b6103f66040518060a0016040528060008152602001606081526020016000815260200160008152602001606081525090565b606b60008381526020019081526020016000206040518060a00160405290816000820154815260200160018201805461042e90611fa8565b80601f016020809104026020016040519081016040528092919081815260200182805461045a90611fa8565b80156104a75780601f1061047c576101008083540402835291602001916104a7565b820191906000526020600020905b81548152906001019060200180831161048a57829003601f168201915b5050505050815260200160028201548152602001600382015481526020016004820180548060200260200160405190810160405280929190818152602001828054801561051357602002820191906000526020600020905b8154815260200190600101908083116104ff575b5050505050815250509050919050565b600054610100900460ff168061053c575060005460ff16155b61059f5760405162461bcd60e51b815260206004820152602e60248201527f496e697469616c697a61626c653a20636f6e747261637420697320616c72656160448201526d191e481a5b9a5d1a585b1a5e995960921b606482015260840161038c565b600054610100900460ff161580156105c1576000805461ffff19166101011790555b6001805473ffffffffffffffffffffffffffffffffffffffff19166001600160a01b0385811691909117909155600080547fffffffffffffffffffff0000000000000000000000000000000000000000ffff1662010000928516929092029190911790558015610637576000805461ff00191690555b505050565b6035546001600160a01b031633146106965760405162461bcd60e51b815260206004820181905260248201527f4f776e61626c653a2063616c6c6572206973206e6f7420746865206f776e6572604482015260640161038c565b6000858152606b60209081526040909120868155855190916106bf91600184019188019061195a565b506002808201859055600060038301819055878152606c60209081526040909120888155855190926106f89290840191908701906119de565b50825161070e90600183019060208601906119de565b5050505050505050565b6035546001600160a01b031633146107725760405162461bcd60e51b815260206004820181905260248201527f4f776e61626c653a2063616c6c6572206973206e6f7420746865206f776e6572604482015260640161038c565b6000838152606c60205260408120905b83518110156107e057816002018482815181106107af57634e487b7160e01b600052603260045260246000fd5b60209081029190910181015182546001810184556000938452919092200155806107d881611fe3565b915050610782565b5060005b8251811015610842578160020183828151811061081157634e487b7160e01b600052603260045260246000fd5b602090810291909101810151825460018101845560009384529190922001558061083a81611fe3565b9150506107e4565b5050505050565b6070602052816000526040600020818154811061086557600080fd5b90600052602060002001600091509150505481565b6035546001600160a01b031633146108d45760405162461bcd60e51b815260206004820181905260248201527f4f776e61626c653a2063616c6c6572206973206e6f7420746865206f776e6572604482015260640161038c565b6108de6000610fb5565b565b6001546001600160a01b0316331461093a5760405162461bcd60e51b815260206004820152601f60248201527f4f6e6c7920565246436f6f7264696e61746f722063616e2066756c66696c6c00604482015260640161038c565b6109448282611014565b5050565b6069546001600160a01b031633146109a25760405162461bcd60e51b815260206004820152601060248201527f4e6f7420612047616d652041646d696e00000000000000000000000000000000604482015260640161038c565b6000828152606b602052604090206002810154845160039092015490916109c891611f62565b1115610a165760405162461bcd60e51b815260206004820152601060248201527f4c6f636174696f6e2069732046756c6c00000000000000000000000000000000604482015260640161038c565b6000828152606b60205260408120905b8451811015610ba8576000858281518110610a5157634e487b7160e01b600052603260045260246000fd5b6020908102919091018101516000818152606d9092526040909120549091508015610b53576000818152606b602052604081206003810180549192610a9583611f91565b91905055506000610aa684846112b5565b90508015610b5057600482018054610ac090600190611f7a565b81548110610ade57634e487b7160e01b600052603260045260246000fd5b9060005260206000200154826004018281548110610b0c57634e487b7160e01b600052603260045260246000fd5b60009182526020909120015560048201805480610b3957634e487b7160e01b600052603160045260246000fd5b600190038181906000526020600020016000905590555b50505b600384018054906000610b6583611fe3565b90915550505060048301805460018101825560009182526020808320909101839055918152606d9091526040902084905580610ba081611fe3565b915050610a26565b507fe888c03e2d3483231934e6b8631ea22e478bdfa422fdeb50d36ecb90463d0a33848484604051610bdc93929190611e7c565b60405180910390a16000838152606c6020908152604080832060020180548251818502810185019093528083529192909190830182828015610c3d57602002820191906000526020600020905b815481526020019060010190808311610c29575b505050505090506000606c6000868152602001908152602001600020600101805480602002602001604051908101604052809291908181526020018280548015610ca657602002820191906000526020600020905b815481526020019060010190808311610c92575b50505050509050600082511180610cbe575060008151115b15610cce57610cce858588611375565b505050505050565b6060806000606c6000858152602001908152602001600020600201805480602002602001604051908101604052809291908181526020018280548015610d3b57602002820191906000526020600020905b815481526020019060010190808311610d27575b505050505090506000606c6000868152602001908152602001600020600101805480602002602001604051908101604052809291908181526020018280548015610da457602002820191906000526020600020905b815481526020019060010190808311610d90575b509599939850929650505050505050565b600054610100900460ff1680610dce575060005460ff16155b610e315760405162461bcd60e51b815260206004820152602e60248201527f496e697469616c697a61626c653a20636f6e747261637420697320616c72656160448201526d191e481a5b9a5d1a585b1a5e995960921b606482015260840161038c565b600054610100900460ff16158015610e53576000805461ffff19166101011790555b610e5b6113d8565b610e8d738c7382f9d8f56b33781fe506e897a4f1e2d1725573326c977e6efc84e512bb9c30f76e30c160ed06fb610523565b7f6e75b569a01ef56d18cab6a8e71e6600d6ce853834d4a5748b720d06f878b3a4606755655af3107a4000606855600a60725560016073558015610ed7576000805461ff00191690555b50565b6035546001600160a01b03163314610f345760405162461bcd60e51b815260206004820181905260248201527f4f776e61626c653a2063616c6c6572206973206e6f7420746865206f776e6572604482015260640161038c565b6001600160a01b038116610fb05760405162461bcd60e51b815260206004820152602660248201527f4f776e61626c653a206e6577206f776e657220697320746865207a65726f206160448201527f6464726573730000000000000000000000000000000000000000000000000000606482015260840161038c565b610ed7815b603580546001600160a01b0383811673ffffffffffffffffffffffffffffffffffffffff19831681179093556040519116919082907f8be0079c531659141344cd1fd0a4f28419497f9722a3daafe3b4186f6b6457e090600090a35050565b6000828152606f6020908152604080832054808452606c8352818420868552606e909352818420548251600280825260608201909452919483850194600101936001600160a01b03909216929091816020016020820280368337505085549192506000918291501561117b5761108b606489611ffe565b611096906001611f62565b915060725482101580156110aa5750855415155b1561117b57855460009087906110c290600190611f7a565b815481106110e057634e487b7160e01b600052603260045260246000fd5b60009182526020808320909101546001600160a01b03881683526070825260408320805460018101825590845291832090910181905585519092508291869161113957634e487b7160e01b600052603260045260246000fd5b6020026020010181815250508680548061116357634e487b7160e01b600052603160045260246000fd5b60019003818190600052602060002001600090559055505b8454156112695761118e6103e889611ffe565b611199906001611f62565b9050845460009086906111ae90600190611f7a565b815481106111cc57634e487b7160e01b600052603260045260246000fd5b60009182526020808320909101546001600160a01b0388168352607082526040832080546001810182559084529190922001819055865490915086908061122357634e487b7160e01b600052603160045260246000fd5b60019003818190600052602060002001600090559055808460018151811061125b57634e487b7160e01b600052603260045260246000fd5b602002602001018181525050505b7fc4da12a9df805ca18927a20b6b25243cbe01622005e4d9e98253e71f3f51cfd2838589856072546040516112a2959493929190611e17565b60405180910390a1505050505050505050565b6000818152606b602090815260408083206004018054825181850281018501909352808352849383018282801561130b57602002820191906000526020600020905b8154815260200190600101908083116112f7575b5050505050905060005b81518110156113685781818151811061133e57634e487b7160e01b600052603260045260246000fd5b602002602001015185141561135657915061136f9050565b8061136081611fe3565b915050611315565b5060009150505b92915050565b61137e8161149a565b607255600061138b611579565b6000908152606e60209081526040808320805473ffffffffffffffffffffffffffffffffffffffff19166001600160a01b039790971696909617909555606f905292909220929092555050565b600054610100900460ff16806113f1575060005460ff16155b6114545760405162461bcd60e51b815260206004820152602e60248201527f496e697469616c697a61626c653a20636f6e747261637420697320616c72656160448201526d191e481a5b9a5d1a585b1a5e995960921b606482015260840161038c565b600054610100900460ff16158015611476576000805461ffff19166101011790555b61147e6116a0565b611486611751565b8015610ed7576000805461ff001916905550565b600080805b83518110156114ef576107d08482815181106114cb57634e487b7160e01b600052603260045260246000fd5b6020026020010151116114dd57600191505b806114e781611fe3565b91505061149f565b5060008184516114ff9190611f62565b905080600114156115145750605a9392505050565b80600214156115275750604b9392505050565b806003141561153a575060419392505050565b806004141561154d575060329392505050565b80600514156115605750601e9392505050565b60068110611572575060009392505050565b5050919050565b606854600080546040517f70a08231000000000000000000000000000000000000000000000000000000008152306004820152919291620100009091046001600160a01b0316906370a082319060240160206040518083038186803b1580156115e157600080fd5b505afa1580156115f5573d6000803e3d6000fd5b505050506040513d601f19601f820116820180604052508101906116199190611bf6565b101561168d5760405162461bcd60e51b815260206004820152602b60248201527f4e6f7420656e6f756768204c494e4b202d2066696c6c20636f6e74726163742060448201527f7769746820666175636574000000000000000000000000000000000000000000606482015260840161038c565b61169b6067546068546117f8565b905090565b600054610100900460ff16806116b9575060005460ff16155b61171c5760405162461bcd60e51b815260206004820152602e60248201527f496e697469616c697a61626c653a20636f6e747261637420697320616c72656160448201526d191e481a5b9a5d1a585b1a5e995960921b606482015260840161038c565b600054610100900460ff16158015611486576000805461ffff19166101011790558015610ed7576000805461ff001916905550565b600054610100900460ff168061176a575060005460ff16155b6117cd5760405162461bcd60e51b815260206004820152602e60248201527f496e697469616c697a61626c653a20636f6e747261637420697320616c72656160448201526d191e481a5b9a5d1a585b1a5e995960921b606482015260840161038c565b600054610100900460ff161580156117ef576000805461ffff19166101011790555b61148633610fb5565b600080546001546040516001600160a01b0362010000909304831692634000aea092169085906118379088908790602001918252602082015260400190565b6040516020818303038152906040526040518463ffffffff1660e01b815260040161186493929190611de6565b602060405180830381600087803b15801561187e57600080fd5b505af1158015611892573d6000803e3d6000fd5b505050506040513d601f19601f820116820180604052508101906118b69190611b9d565b50600083815260026020818152604080842054815180840189905280830186905230606082015260808082018390528351808303909101815260a090910190925281519183019190912093879052919052611912906001611f62565b6000858152600260205260409020556119528482604080516020808201949094528082019290925280518083038201815260609092019052805191012090565b949350505050565b82805461196690611fa8565b90600052602060002090601f01602090048101928261198857600085556119ce565b82601f106119a157805160ff19168380011785556119ce565b828001600101855582156119ce579182015b828111156119ce5782518255916020019190600101906119b3565b506119da929150611a18565b5090565b8280548282559060005260206000209081019282156119ce57916020028201828111156119ce5782518255916020019190600101906119b3565b5b808211156119da5760008155600101611a19565b80356001600160a01b0381168114611a4457600080fd5b919050565b600082601f830112611a59578081fd5b8135602067ffffffffffffffff821115611a7557611a75612034565b8160051b611a84828201611f31565b838152828101908684018388018501891015611a9e578687fd5b8693505b85841015611ac0578035835260019390930192918401918401611aa2565b50979650505050505050565b600060208284031215611add578081fd5b611ae682611a2d565b9392505050565b60008060408385031215611aff578081fd5b611b0883611a2d565b9150611b1660208401611a2d565b90509250929050565b60008060408385031215611b31578182fd5b611b3a83611a2d565b946020939093013593505050565b600080600060608486031215611b5c578081fd5b833567ffffffffffffffff811115611b72578182fd5b611b7e86828701611a49565b93505060208401359150611b9460408501611a2d565b90509250925092565b600060208284031215611bae578081fd5b81518015158114611ae6578182fd5b60008060408385031215611bcf578182fd5b50508035926020909101359150565b600060208284031215611bef578081fd5b5035919050565b600060208284031215611c07578081fd5b5051919050565b600080600060608486031215611c22578283fd5b83359250602084013567ffffffffffffffff80821115611c40578384fd5b611c4c87838801611a49565b93506040860135915080821115611c61578283fd5b50611c6e86828701611a49565b9150509250925092565b600080600080600060a08688031215611c8f578081fd5b8535945060208087013567ffffffffffffffff80821115611cae578384fd5b818901915089601f830112611cc1578384fd5b813581811115611cd357611cd3612034565b611ce584601f19601f84011601611f31565b8181528b85838601011115611cf8578586fd5b81858501868301379081019093018490529195506040880135945060608801359180831115611d25578384fd5b611d318a848b01611a49565b94506080890135925080831115611d46578384fd5b5050611d5488828901611a49565b9150509295509295909350565b6000815180845260208085019450808401835b83811015611d9057815187529582019590820190600101611d74565b509495945050505050565b60008151808452815b81811015611dc057602081850181015186830182015201611da4565b81811115611dd15782602083870101525b50601f01601f19169290920160200192915050565b6001600160a01b0384168152826020820152606060408201526000611e0e6060830184611d9b565b95945050505050565b60a081526000611e2a60a0830188611d61565b90506001600160a01b03861660208301528460408301528360608301528260808301529695505050505050565b604081526000611e6a6040830185611d61565b8281036020840152611e0e8185611d61565b606081526000611e8f6060830186611d61565b90508360208301526001600160a01b0383166040830152949350505050565b60208152815160208201526000602083015160a06040840152611ed460c0840182611d9b565b905060408401516060840152606084015160808401526080840151601f198483030160a0850152611e0e8282611d61565b848152608060208201526000611f1e6080830186611d9b565b6040830194909452506060015292915050565b604051601f8201601f1916810167ffffffffffffffff81118282101715611f5a57611f5a612034565b604052919050565b60008219821115611f7557611f7561201e565b500190565b600082821015611f8c57611f8c61201e565b500390565b600081611fa057611fa061201e565b506000190190565b600181811c90821680611fbc57607f821691505b60208210811415611fdd57634e487b7160e01b600052602260045260246000fd5b50919050565b6000600019821415611ff757611ff761201e565b5060010190565b60008261201957634e487b7160e01b81526012600452602481fd5b500690565b634e487b7160e01b600052601160045260246000fd5b634e487b7160e01b600052604160045260246000fdfea2646970667358221220083d433d9f980188c7b5e05297688a8902b160365993ff74f9572e8f2bb9fdb364736f6c63430008040033",
  "linkReferences": {},
  "deployedLinkReferences": {}
}