{
  "_format": "hh-sol-artifact-1",
  "contractName": "NFZGameMechanics",
  "sourceName": "contracts/NFZGameMechanics.sol",
  "abi": [
    {
      "anonymous": false,
      "inputs": [
        {
          "indexed": false,
          "internalType": "uint256[]",
          "name": "tokenIds",
          "type": "uint256[]"
        },
        {
          "indexed": false,
          "internalType": "uint256",
          "name": "location",
          "type": "uint256"
        },
        {
          "indexed": false,
          "internalType": "address",
          "name": "from",
          "type": "address"
        }
      ],
      "name": "ELocationSet",
      "type": "event"
    },
    {
      "anonymous": false,
      "inputs": [
        {
          "indexed": false,
          "internalType": "uint256[]",
          "name": "userPrizes",
          "type": "uint256[]"
        },
        {
          "indexed": false,
          "internalType": "address",
          "name": "from",
          "type": "address"
        },
        {
          "indexed": false,
          "internalType": "uint256",
          "name": "location",
          "type": "uint256"
        },
        {
          "indexed": false,
          "internalType": "uint256",
          "name": "randomNumber",
          "type": "uint256"
        },
        {
          "indexed": false,
          "internalType": "uint256",
          "name": "baseChance",
          "type": "uint256"
        }
      ],
      "name": "EPrizes",
      "type": "event"
    },
    {
      "anonymous": false,
      "inputs": [
        {
          "indexed": true,
          "internalType": "address",
          "name": "previousOwner",
          "type": "address"
        },
        {
          "indexed": true,
          "internalType": "address",
          "name": "newOwner",
          "type": "address"
        }
      ],
      "name": "OwnershipTransferred",
      "type": "event"
    },
    {
      "inputs": [
        {
          "internalType": "uint256",
          "name": "",
          "type": "uint256"
        }
      ],
      "name": "LocationRewards",
      "outputs": [
        {
          "internalType": "uint256",
          "name": "_locationId",
          "type": "uint256"
        }
      ],
      "stateMutability": "view",
      "type": "function"
    },
    {
      "inputs": [
        {
          "internalType": "uint256",
          "name": "",
          "type": "uint256"
        }
      ],
      "name": "Locations",
      "outputs": [
        {
          "internalType": "uint256",
          "name": "_id",
          "type": "uint256"
        },
        {
          "internalType": "string",
          "name": "Location_name",
          "type": "string"
        },
        {
          "internalType": "uint256",
          "name": "MAX_CAPACITY",
          "type": "uint256"
        },
        {
          "internalType": "uint256",
          "name": "CURRENT_CAPACITY",
          "type": "uint256"
        }
      ],
      "stateMutability": "view",
      "type": "function"
    },
    {
      "inputs": [
        {
          "internalType": "uint256[]",
          "name": "_tokenIds",
          "type": "uint256[]"
        },
        {
          "internalType": "uint256",
          "name": "_locationId",
          "type": "uint256"
        },
        {
          "internalType": "address",
          "name": "account",
          "type": "address"
        }
      ],
      "name": "_setLocation",
      "outputs": [],
      "stateMutability": "nonpayable",
      "type": "function"
    },
    {
      "inputs": [
        {
          "internalType": "uint256",
          "name": "_id",
          "type": "uint256"
        },
        {
          "internalType": "string",
          "name": "name",
          "type": "string"
        },
        {
          "internalType": "uint256",
          "name": "_maxCapacity",
          "type": "uint256"
        },
        {
          "internalType": "uint256[]",
          "name": "prizes",
          "type": "uint256[]"
        },
        {
          "internalType": "uint256[]",
          "name": "specialRerwards",
          "type": "uint256[]"
        }
      ],
      "name": "addLocation",
      "outputs": [],
      "stateMutability": "nonpayable",
      "type": "function"
    },
    {
      "inputs": [
        {
          "internalType": "uint256",
          "name": "_locationId",
          "type": "uint256"
        },
        {
          "internalType": "uint256[]",
          "name": "_prizes",
          "type": "uint256[]"
        },
        {
          "internalType": "uint256[]",
          "name": "_specialPrizes",
          "type": "uint256[]"
        }
      ],
      "name": "addPrizes",
      "outputs": [],
      "stateMutability": "nonpayable",
      "type": "function"
    },
    {
      "inputs": [
        {
          "internalType": "uint256",
          "name": "_locationId",
          "type": "uint256"
        }
      ],
      "name": "getLocationPrizeArray",
      "outputs": [
        {
          "internalType": "uint256[]",
          "name": "prizes",
          "type": "uint256[]"
        },
        {
          "internalType": "uint256[]",
          "name": "special",
          "type": "uint256[]"
        }
      ],
      "stateMutability": "view",
      "type": "function"
    },
    {
      "inputs": [
        {
          "internalType": "address",
          "name": "account",
          "type": "address"
        }
      ],
      "name": "getUserRewards",
      "outputs": [
        {
          "internalType": "uint256[]",
          "name": "rewards",
          "type": "uint256[]"
        }
      ],
      "stateMutability": "view",
      "type": "function"
    },
    {
      "inputs": [],
      "name": "init",
      "outputs": [],
      "stateMutability": "nonpayable",
      "type": "function"
    },
    {
      "inputs": [
        {
          "internalType": "address",
          "name": "_vrfCoordinator",
          "type": "address"
        },
        {
          "internalType": "address",
          "name": "_link",
          "type": "address"
        }
      ],
      "name": "initialize",
      "outputs": [],
      "stateMutability": "nonpayable",
      "type": "function"
    },
    {
      "inputs": [],
      "name": "owner",
      "outputs": [
        {
          "internalType": "address",
          "name": "",
          "type": "address"
        }
      ],
      "stateMutability": "view",
      "type": "function"
    },
    {
      "inputs": [
        {
          "internalType": "bytes32",
          "name": "requestId",
          "type": "bytes32"
        },
        {
          "internalType": "uint256",
          "name": "randomness",
          "type": "uint256"
        }
      ],
      "name": "rawFulfillRandomness",
      "outputs": [],
      "stateMutability": "nonpayable",
      "type": "function"
    },
    {
      "inputs": [
        {
          "internalType": "uint256",
          "name": "_id",
          "type": "uint256"
        }
      ],
      "name": "removeLocationIdMapping",
      "outputs": [],
      "stateMutability": "nonpayable",
      "type": "function"
    },
    {
      "inputs": [],
      "name": "renounceOwnership",
      "outputs": [],
      "stateMutability": "nonpayable",
      "type": "function"
    },
    {
      "inputs": [
        {
          "internalType": "uint256",
          "name": "_locationId",
          "type": "uint256"
        }
      ],
      "name": "returnStruct",
      "outputs": [
        {
          "components": [
            {
              "internalType": "uint256",
              "name": "_id",
              "type": "uint256"
            },
            {
              "internalType": "string",
              "name": "Location_name",
              "type": "string"
            },
            {
              "internalType": "uint256",
              "name": "MAX_CAPACITY",
              "type": "uint256"
            },
            {
              "internalType": "uint256",
              "name": "CURRENT_CAPACITY",
              "type": "uint256"
            },
            {
              "internalType": "uint256[]",
              "name": "CURRENT_INHABITANTS",
              "type": "uint256[]"
            }
          ],
          "internalType": "struct NFZGameMechanics.Location",
          "name": "",
          "type": "tuple"
        }
      ],
      "stateMutability": "view",
      "type": "function"
    },
    {
      "inputs": [
        {
          "internalType": "address",
          "name": "_address",
          "type": "address"
        }
      ],
      "name": "setGameAdmin",
      "outputs": [],
      "stateMutability": "nonpayable",
      "type": "function"
    },
    {
      "inputs": [
        {
          "internalType": "uint256",
          "name": "",
          "type": "uint256"
        }
      ],
      "name": "tokenIdToLocations",
      "outputs": [
        {
          "internalType": "uint256",
          "name": "",
          "type": "uint256"
        }
      ],
      "stateMutability": "view",
      "type": "function"
    },
    {
      "inputs": [
        {
          "internalType": "address",
          "name": "newOwner",
          "type": "address"
        }
      ],
      "name": "transferOwnership",
      "outputs": [],
      "stateMutability": "nonpayable",
      "type": "function"
    },
    {
      "inputs": [
        {
          "internalType": "address",
          "name": "",
          "type": "address"
        },
        {
          "internalType": "uint256",
          "name": "",
          "type": "uint256"
        }
      ],
      "name": "userRewards",
      "outputs": [
        {
          "internalType": "uint256",
          "name": "",
          "type": "uint256"
        }
      ],
      "stateMutability": "view",
      "type": "function"
    }
  ],
  "bytecode": "0x608060405234801561001057600080fd5b50612283806100206000396000f3fe608060405234801561001057600080fd5b50600436106101365760003560e01c8063715018a6116100b2578063c02a523a11610081578063d15bcf4111610066578063d15bcf41146102c0578063e1c7392a146102d3578063f2fde38b146102db57600080fd5b8063c02a523a1461027f578063c0ba3e7a1461029f57600080fd5b8063715018a6146102365780638da5cb5b1461023e57806394985ddd146102595780639c6946171461026c57600080fd5b8063485cc955116101095780634c91ebe9116100ee5780634c91ebe9146101fd5780635c2dd5721461021057806363c2a20a1461022357600080fd5b8063485cc955146101bc5780634c241617146101cf57600080fd5b80630711c7a61461013b578063078b0fb714610167578063429d8533146101875780634856684a1461019c575b600080fd5b61014e610149366004611dce565b6102ee565b60405161015e9493929190612108565b60405180910390f35b61017a610175366004611cbc565b61039f565b60405161015e9190612007565b61019a610195366004611cbc565b61040b565b005b6101af6101aa366004611dce565b610499565b60405161015e91906120b1565b61019a6101ca366004611cdd565b6105f8565b6101ef6101dd366004611dce565b606d6020526000908152604090205481565b60405190815260200161015e565b61019a61020b366004611e68565b610726565b61019a61021e366004611dfe565b610811565b6101ef610231366004611d0f565b610942565b61019a610973565b6035546040516001600160a01b03909116815260200161015e565b61019a610267366004611dad565b6109d9565b61019a61027a366004611d38565b610a41565b6101ef61028d366004611dce565b606c6020526000908152604090205481565b6102b26102ad366004611dce565b610ea7565b60405161015e92919061205a565b61019a6102ce366004611dce565b610f86565b61019a610ff1565b61019a6102e9366004611cbc565b61112b565b606b6020526000908152604090208054600182018054919291610310906121ab565b80601f016020809104026020016040519081016040528092919081815260200182805461033c906121ab565b80156103895780601f1061035e57610100808354040283529160200191610389565b820191906000526020600020905b81548152906001019060200180831161036c57829003601f168201915b5050505050908060020154908060030154905084565b6001600160a01b03811660009081526070602090815260408083208054825181850281018501909352808352606094938301828280156103fe57602002820191906000526020600020905b8154815260200190600101908083116103ea575b5093979650505050505050565b6035546001600160a01b0316331461046a5760405162461bcd60e51b815260206004820181905260248201527f4f776e61626c653a2063616c6c6572206973206e6f7420746865206f776e657260448201526064015b60405180910390fd5b6069805473ffffffffffffffffffffffffffffffffffffffff19166001600160a01b0392909216919091179055565b6104cb6040518060a0016040528060008152602001606081526020016000815260200160008152602001606081525090565b606b60008381526020019081526020016000206040518060a001604052908160008201548152602001600182018054610503906121ab565b80601f016020809104026020016040519081016040528092919081815260200182805461052f906121ab565b801561057c5780601f106105515761010080835404028352916020019161057c565b820191906000526020600020905b81548152906001019060200180831161055f57829003601f168201915b505050505081526020016002820154815260200160038201548152602001600482018054806020026020016040519081016040528092919081815260200182805480156105e857602002820191906000526020600020905b8154815260200190600101908083116105d4575b5050505050815250509050919050565b600054610100900460ff166106135760005460ff1615610617565b303b155b6106895760405162461bcd60e51b815260206004820152602e60248201527f496e697469616c697a61626c653a20636f6e747261637420697320616c72656160448201527f647920696e697469616c697a65640000000000000000000000000000000000006064820152608401610461565b600054610100900460ff161580156106ab576000805461ffff19166101011790555b6001805473ffffffffffffffffffffffffffffffffffffffff19166001600160a01b0385811691909117909155600080547fffffffffffffffffffff0000000000000000000000000000000000000000ffff1662010000928516929092029190911790558015610721576000805461ff00191690555b505050565b6035546001600160a01b031633146107805760405162461bcd60e51b815260206004820181905260248201527f4f776e61626c653a2063616c6c6572206973206e6f7420746865206f776e65726044820152606401610461565b6000858152606b60209081526040909120868155855190916107a9916001840191880190611b2c565b50600281018490556000600382018190556107c8906004830190611bb0565b6000868152606c60209081526040909120878155845190916107f1916002840191870190611bce565b5082516108079060018301906020860190611bce565b5050505050505050565b6035546001600160a01b0316331461086b5760405162461bcd60e51b815260206004820181905260248201527f4f776e61626c653a2063616c6c6572206973206e6f7420746865206f776e65726044820152606401610461565b6000838152606c60205260408120905b83518110156108d957816002018482815181106108a857634e487b7160e01b600052603260045260246000fd5b60209081029190910181015182546001810184556000938452919092200155806108d1816121e6565b91505061087b565b5060005b825181101561093b578160010183828151811061090a57634e487b7160e01b600052603260045260246000fd5b6020908102919091018101518254600181018455600093845291909220015580610933816121e6565b9150506108dd565b5050505050565b6070602052816000526040600020818154811061095e57600080fd5b90600052602060002001600091509150505481565b6035546001600160a01b031633146109cd5760405162461bcd60e51b815260206004820181905260248201527f4f776e61626c653a2063616c6c6572206973206e6f7420746865206f776e65726044820152606401610461565b6109d76000611206565b565b6001546001600160a01b03163314610a335760405162461bcd60e51b815260206004820152601f60248201527f4f6e6c7920565246436f6f7264696e61746f722063616e2066756c66696c6c006044820152606401610461565b610a3d8282611265565b5050565b6069546001600160a01b03163314610a9b5760405162461bcd60e51b815260206004820152601060248201527f4e6f7420612047616d652041646d696e000000000000000000000000000000006044820152606401610461565b6000828152606b60205260409020600281015484516003909201549091610ac191612165565b1115610b0f5760405162461bcd60e51b815260206004820152601060248201527f4c6f636174696f6e2069732046756c6c000000000000000000000000000000006044820152606401610461565b6000828152606b60205260408120905b8451811015610cb0576000858281518110610b4a57634e487b7160e01b600052603260045260246000fd5b6020908102919091018101516000818152606d9092526040909120549091508015610c5b576000818152606b60205260409020600381015415610b9f57600381018054906000610b9983612194565b91905055505b6000610bab8484611510565b90508061270f14610c5857600482018054610bc89060019061217d565b81548110610be657634e487b7160e01b600052603260045260246000fd5b9060005260206000200154826004018281548110610c1457634e487b7160e01b600052603260045260246000fd5b60009182526020909120015560048201805480610c4157634e487b7160e01b600052603160045260246000fd5b600190038181906000526020600020016000905590555b50505b600384018054906000610c6d836121e6565b90915550505060048301805460018101825560009182526020808320909101839055918152606d9091526040902084905580610ca8816121e6565b915050610b1f565b507fe888c03e2d3483231934e6b8631ea22e478bdfa422fdeb50d36ecb90463d0a33848484604051610ce49392919061207f565b60405180910390a16000838152606c6020908152604080832060020180548251818502810185019093528083529192909190830182828015610d4557602002820191906000526020600020905b815481526020019060010190808311610d31575b505050505090506000606c6000868152602001908152602001600020600101805480602002602001604051908101604052809291908181526020018280548015610dae57602002820191906000526020600020905b815481526020019060010190808311610d9a575b50505050509050600082511180610dc6575060008151115b15610dde57610dd68585886115d1565b505050505050565b60408051600280825260608201835260009260208301908036833701905050905061270f81600081518110610e2357634e487b7160e01b600052603260045260246000fd5b602002602001018181525050600081600181518110610e5257634e487b7160e01b600052603260045260246000fd5b6020026020010181815250507fc4da12a9df805ca18927a20b6b25243cbe01622005e4d9e98253e71f3f51cfd2818688600080604051610e9695949392919061201a565b60405180910390a150505050505050565b6060806000606c6000858152602001908152602001600020600201805480602002602001604051908101604052809291908181526020018280548015610f0c57602002820191906000526020600020905b815481526020019060010190808311610ef8575b505050505090506000606c6000868152602001908152602001600020600101805480602002602001604051908101604052809291908181526020018280548015610f7557602002820191906000526020600020905b815481526020019060010190808311610f61575b509599939850929650505050505050565b6035546001600160a01b03163314610fe05760405162461bcd60e51b815260206004820181905260248201527f4f776e61626c653a2063616c6c6572206973206e6f7420746865206f776e65726044820152606401610461565b6000908152606d6020526040812055565b600054610100900460ff1661100c5760005460ff1615611010565b303b155b6110825760405162461bcd60e51b815260206004820152602e60248201527f496e697469616c697a61626c653a20636f6e747261637420697320616c72656160448201527f647920696e697469616c697a65640000000000000000000000000000000000006064820152608401610461565b600054610100900460ff161580156110a4576000805461ffff19166101011790555b6110ac611634565b6110de738c7382f9d8f56b33781fe506e897a4f1e2d1725573326c977e6efc84e512bb9c30f76e30c160ed06fb6105f8565b7f6e75b569a01ef56d18cab6a8e71e6600d6ce853834d4a5748b720d06f878b3a4606755655af3107a4000606855600a60735560026074558015611128576000805461ff00191690555b50565b6035546001600160a01b031633146111855760405162461bcd60e51b815260206004820181905260248201527f4f776e61626c653a2063616c6c6572206973206e6f7420746865206f776e65726044820152606401610461565b6001600160a01b0381166112015760405162461bcd60e51b815260206004820152602660248201527f4f776e61626c653a206e6577206f776e657220697320746865207a65726f206160448201527f64647265737300000000000000000000000000000000000000000000000000006064820152608401610461565b611128815b603580546001600160a01b0383811673ffffffffffffffffffffffffffffffffffffffff19831681179093556040519116919082907f8be0079c531659141344cd1fd0a4f28419497f9722a3daafe3b4186f6b6457e090600090a35050565b6000828152606f6020908152604080832054808452606c8352818420868552606e909352818420548251600280825260608201909452919483850194600101936001600160a01b0390921692909181602001602082028036833750508554919250600091829150156113cc576112dc606489612201565b6112e7906001612165565b915060735482101580156112fb5750855415155b156113cc57855460009087906113139060019061217d565b8154811061133157634e487b7160e01b600052603260045260246000fd5b60009182526020808320909101546001600160a01b03881683526070825260408320805460018101825590845291832090910181905585519092508291869161138a57634e487b7160e01b600052603260045260246000fd5b602002602001018181525050868054806113b457634e487b7160e01b600052603160045260246000fd5b60019003818190600052602060002001600090559055505b8454156114c4576113df6103e889612201565b6113ea906001612165565b90506074548110156114c457845460009086906114099060019061217d565b8154811061142757634e487b7160e01b600052603260045260246000fd5b60009182526020808320909101546001600160a01b0388168352607082526040832080546001810182559084529190922001819055865490915086908061147e57634e487b7160e01b600052603160045260246000fd5b6001900381819060005260206000200160009055905580846001815181106114b657634e487b7160e01b600052603260045260246000fd5b602002602001018181525050505b7fc4da12a9df805ca18927a20b6b25243cbe01622005e4d9e98253e71f3f51cfd2838589856073546040516114fd95949392919061201a565b60405180910390a1505050505050505050565b6000818152606b602090815260408083206004018054825181850281018501909352808352849383018282801561156657602002820191906000526020600020905b815481526020019060010190808311611552575b5050505050905060005b81518110156115c35781818151811061159957634e487b7160e01b600052603260045260246000fd5b60200260200101518514156115b15791506115cb9050565b806115bb816121e6565b915050611570565b5061270f9150505b92915050565b6115da816116c1565b60735560006115e76117a0565b6000908152606e60209081526040808320805473ffffffffffffffffffffffffffffffffffffffff19166001600160a01b039790971696909617909555606f905292909220929092555050565b600054610100900460ff166116b15760405162461bcd60e51b815260206004820152602b60248201527f496e697469616c697a61626c653a20636f6e7472616374206973206e6f74206960448201527f6e697469616c697a696e670000000000000000000000000000000000000000006064820152608401610461565b6116b96118c7565b6109d7611944565b600080805b8351811015611716576107d08482815181106116f257634e487b7160e01b600052603260045260246000fd5b60200260200101511161170457600191505b8061170e816121e6565b9150506116c6565b5060008184516117269190612165565b9050806001141561173b5750605a9392505050565b806002141561174e5750604b9392505050565b8060031415611761575060419392505050565b8060041415611774575060329392505050565b80600514156117875750601e9392505050565b60068110611799575060009392505050565b5050919050565b606854600080546040517f70a08231000000000000000000000000000000000000000000000000000000008152306004820152919291620100009091046001600160a01b0316906370a082319060240160206040518083038186803b15801561180857600080fd5b505afa15801561181c573d6000803e3d6000fd5b505050506040513d601f19601f820116820180604052508101906118409190611de6565b10156118b45760405162461bcd60e51b815260206004820152602b60248201527f4e6f7420656e6f756768204c494e4b202d2066696c6c20636f6e74726163742060448201527f77697468206661756365740000000000000000000000000000000000000000006064820152608401610461565b6118c26067546068546119ca565b905090565b600054610100900460ff166109d75760405162461bcd60e51b815260206004820152602b60248201527f496e697469616c697a61626c653a20636f6e7472616374206973206e6f74206960448201527f6e697469616c697a696e670000000000000000000000000000000000000000006064820152608401610461565b600054610100900460ff166119c15760405162461bcd60e51b815260206004820152602b60248201527f496e697469616c697a61626c653a20636f6e7472616374206973206e6f74206960448201527f6e697469616c697a696e670000000000000000000000000000000000000000006064820152608401610461565b6109d733611206565b600080546001546040516001600160a01b0362010000909304831692634000aea09216908590611a099088908790602001918252602082015260400190565b6040516020818303038152906040526040518463ffffffff1660e01b8152600401611a3693929190611fd6565b602060405180830381600087803b158015611a5057600080fd5b505af1158015611a64573d6000803e3d6000fd5b505050506040513d601f19601f82011682018060405250810190611a889190611d8d565b50600083815260026020818152604080842054815180840189905280830186905230606082015260808082018390528351808303909101815260a090910190925281519183019190912093879052919052611ae4906001612165565b600085815260026020526040902055611b248482604080516020808201949094528082019290925280518083038201815260609092019052805191012090565b949350505050565b828054611b38906121ab565b90600052602060002090601f016020900481019282611b5a5760008555611ba0565b82601f10611b7357805160ff1916838001178555611ba0565b82800160010185558215611ba0579182015b82811115611ba0578251825591602001919060010190611b85565b50611bac929150611c08565b5090565b50805460008255906000526020600020908101906111289190611c08565b828054828255906000526020600020908101928215611ba05791602002820182811115611ba0578251825591602001919060010190611b85565b5b80821115611bac5760008155600101611c09565b80356001600160a01b0381168114611c3457600080fd5b919050565b600082601f830112611c49578081fd5b8135602067ffffffffffffffff821115611c6557611c65612237565b8160051b611c74828201612134565b838152828101908684018388018501891015611c8e578687fd5b8693505b85841015611cb0578035835260019390930192918401918401611c92565b50979650505050505050565b600060208284031215611ccd578081fd5b611cd682611c1d565b9392505050565b60008060408385031215611cef578081fd5b611cf883611c1d565b9150611d0660208401611c1d565b90509250929050565b60008060408385031215611d21578182fd5b611d2a83611c1d565b946020939093013593505050565b600080600060608486031215611d4c578081fd5b833567ffffffffffffffff811115611d62578182fd5b611d6e86828701611c39565b93505060208401359150611d8460408501611c1d565b90509250925092565b600060208284031215611d9e578081fd5b81518015158114611cd6578182fd5b60008060408385031215611dbf578182fd5b50508035926020909101359150565b600060208284031215611ddf578081fd5b5035919050565b600060208284031215611df7578081fd5b5051919050565b600080600060608486031215611e12578283fd5b83359250602084013567ffffffffffffffff80821115611e30578384fd5b611e3c87838801611c39565b93506040860135915080821115611e51578283fd5b50611e5e86828701611c39565b9150509250925092565b600080600080600060a08688031215611e7f578081fd5b8535945060208087013567ffffffffffffffff80821115611e9e578384fd5b818901915089601f830112611eb1578384fd5b813581811115611ec357611ec3612237565b611ed584601f19601f84011601612134565b8181528b85838601011115611ee8578586fd5b81858501868301379081019093018490529195506040880135945060608801359180831115611f15578384fd5b611f218a848b01611c39565b94506080890135925080831115611f36578384fd5b5050611f4488828901611c39565b9150509295509295909350565b6000815180845260208085019450808401835b83811015611f8057815187529582019590820190600101611f64565b509495945050505050565b60008151808452815b81811015611fb057602081850181015186830182015201611f94565b81811115611fc15782602083870101525b50601f01601f19169290920160200192915050565b6001600160a01b0384168152826020820152606060408201526000611ffe6060830184611f8b565b95945050505050565b602081526000611cd66020830184611f51565b60a08152600061202d60a0830188611f51565b90506001600160a01b03861660208301528460408301528360608301528260808301529695505050505050565b60408152600061206d6040830185611f51565b8281036020840152611ffe8185611f51565b6060815260006120926060830186611f51565b90508360208301526001600160a01b0383166040830152949350505050565b60208152815160208201526000602083015160a060408401526120d760c0840182611f8b565b905060408401516060840152606084015160808401526080840151601f198483030160a0850152611ffe8282611f51565b8481526080602082015260006121216080830186611f8b565b6040830194909452506060015292915050565b604051601f8201601f1916810167ffffffffffffffff8111828210171561215d5761215d612237565b604052919050565b6000821982111561217857612178612221565b500190565b60008282101561218f5761218f612221565b500390565b6000816121a3576121a3612221565b506000190190565b600181811c908216806121bf57607f821691505b602082108114156121e057634e487b7160e01b600052602260045260246000fd5b50919050565b60006000198214156121fa576121fa612221565b5060010190565b60008261221c57634e487b7160e01b81526012600452602481fd5b500690565b634e487b7160e01b600052601160045260246000fd5b634e487b7160e01b600052604160045260246000fdfea264697066735822122038aacabf6250bdec0bd267a722ed0e9ef2ddb9fb341d74d12b2776dcc1a14cec64736f6c63430008040033",
  "linkReferences": {},
  "deployedLinkReferences": {}
}