{
  "_format": "hh-sol-artifact-1",
  "contractName": "NFZGameMechanicsV2",
  "sourceName": "contracts/NFZGameMechanisV2.sol",
  "abi": [
    {
      "anonymous": false,
      "inputs": [
        {
          "indexed": false,
          "internalType": "uint256[]",
          "name": "tokenIds",
          "type": "uint256[]"
        },
        {
          "indexed": false,
          "internalType": "uint256",
          "name": "location",
          "type": "uint256"
        },
        {
          "indexed": false,
          "internalType": "address",
          "name": "from",
          "type": "address"
        }
      ],
      "name": "ELocationSet",
      "type": "event"
    },
    {
      "anonymous": false,
      "inputs": [
        {
          "indexed": false,
          "internalType": "uint256[]",
          "name": "userPrizes",
          "type": "uint256[]"
        },
        {
          "indexed": false,
          "internalType": "address",
          "name": "from",
          "type": "address"
        },
        {
          "indexed": false,
          "internalType": "uint256",
          "name": "location",
          "type": "uint256"
        },
        {
          "indexed": false,
          "internalType": "uint256",
          "name": "randomNumber",
          "type": "uint256"
        },
        {
          "indexed": false,
          "internalType": "uint256",
          "name": "baseChance",
          "type": "uint256"
        }
      ],
      "name": "EPrizes",
      "type": "event"
    },
    {
      "anonymous": false,
      "inputs": [
        {
          "indexed": true,
          "internalType": "address",
          "name": "previousOwner",
          "type": "address"
        },
        {
          "indexed": true,
          "internalType": "address",
          "name": "newOwner",
          "type": "address"
        }
      ],
      "name": "OwnershipTransferred",
      "type": "event"
    },
    {
      "inputs": [
        {
          "internalType": "uint256",
          "name": "",
          "type": "uint256"
        }
      ],
      "name": "LocationRewards",
      "outputs": [
        {
          "internalType": "uint256",
          "name": "_locationId",
          "type": "uint256"
        }
      ],
      "stateMutability": "view",
      "type": "function"
    },
    {
      "inputs": [
        {
          "internalType": "uint256",
          "name": "",
          "type": "uint256"
        }
      ],
      "name": "Locations",
      "outputs": [
        {
          "internalType": "uint256",
          "name": "_id",
          "type": "uint256"
        },
        {
          "internalType": "string",
          "name": "Location_name",
          "type": "string"
        },
        {
          "internalType": "uint256",
          "name": "MAX_CAPACITY",
          "type": "uint256"
        },
        {
          "internalType": "uint256",
          "name": "CURRENT_CAPACITY",
          "type": "uint256"
        }
      ],
      "stateMutability": "view",
      "type": "function"
    },
    {
      "inputs": [
        {
          "internalType": "uint256[]",
          "name": "_tokenIds",
          "type": "uint256[]"
        },
        {
          "internalType": "uint256",
          "name": "_locationId",
          "type": "uint256"
        },
        {
          "internalType": "address",
          "name": "account",
          "type": "address"
        }
      ],
      "name": "_setLocation",
      "outputs": [],
      "stateMutability": "nonpayable",
      "type": "function"
    },
    {
      "inputs": [
        {
          "internalType": "uint256",
          "name": "_id",
          "type": "uint256"
        },
        {
          "internalType": "string",
          "name": "name",
          "type": "string"
        },
        {
          "internalType": "uint256",
          "name": "_maxCapacity",
          "type": "uint256"
        },
        {
          "internalType": "uint256[]",
          "name": "prizes",
          "type": "uint256[]"
        },
        {
          "internalType": "uint256[]",
          "name": "specialRerwards",
          "type": "uint256[]"
        }
      ],
      "name": "addLocation",
      "outputs": [],
      "stateMutability": "nonpayable",
      "type": "function"
    },
    {
      "inputs": [
        {
          "internalType": "uint256",
          "name": "_locationId",
          "type": "uint256"
        },
        {
          "internalType": "uint256[]",
          "name": "_prizes",
          "type": "uint256[]"
        },
        {
          "internalType": "uint256[]",
          "name": "_specialPrizes",
          "type": "uint256[]"
        }
      ],
      "name": "addPrizes",
      "outputs": [],
      "stateMutability": "nonpayable",
      "type": "function"
    },
    {
      "inputs": [
        {
          "internalType": "uint256",
          "name": "_locationId",
          "type": "uint256"
        }
      ],
      "name": "getLocationPrizeArray",
      "outputs": [
        {
          "internalType": "uint256[]",
          "name": "prizes",
          "type": "uint256[]"
        },
        {
          "internalType": "uint256[]",
          "name": "special",
          "type": "uint256[]"
        }
      ],
      "stateMutability": "view",
      "type": "function"
    },
    {
      "inputs": [
        {
          "internalType": "address",
          "name": "account",
          "type": "address"
        }
      ],
      "name": "getUserRewards",
      "outputs": [
        {
          "internalType": "uint256[]",
          "name": "rewards",
          "type": "uint256[]"
        }
      ],
      "stateMutability": "view",
      "type": "function"
    },
    {
      "inputs": [],
      "name": "init",
      "outputs": [],
      "stateMutability": "nonpayable",
      "type": "function"
    },
    {
      "inputs": [
        {
          "internalType": "address",
          "name": "_vrfCoordinator",
          "type": "address"
        },
        {
          "internalType": "address",
          "name": "_link",
          "type": "address"
        }
      ],
      "name": "initialize",
      "outputs": [],
      "stateMutability": "nonpayable",
      "type": "function"
    },
    {
      "inputs": [],
      "name": "owner",
      "outputs": [
        {
          "internalType": "address",
          "name": "",
          "type": "address"
        }
      ],
      "stateMutability": "view",
      "type": "function"
    },
    {
      "inputs": [
        {
          "internalType": "bytes32",
          "name": "requestId",
          "type": "bytes32"
        },
        {
          "internalType": "uint256",
          "name": "randomness",
          "type": "uint256"
        }
      ],
      "name": "rawFulfillRandomness",
      "outputs": [],
      "stateMutability": "nonpayable",
      "type": "function"
    },
    {
      "inputs": [
        {
          "internalType": "uint256",
          "name": "_id",
          "type": "uint256"
        }
      ],
      "name": "removeLocationIdMapping",
      "outputs": [],
      "stateMutability": "nonpayable",
      "type": "function"
    },
    {
      "inputs": [],
      "name": "renounceOwnership",
      "outputs": [],
      "stateMutability": "nonpayable",
      "type": "function"
    },
    {
      "inputs": [
        {
          "internalType": "uint256",
          "name": "_locationId",
          "type": "uint256"
        }
      ],
      "name": "returnStruct",
      "outputs": [
        {
          "components": [
            {
              "internalType": "uint256",
              "name": "_id",
              "type": "uint256"
            },
            {
              "internalType": "string",
              "name": "Location_name",
              "type": "string"
            },
            {
              "internalType": "uint256",
              "name": "MAX_CAPACITY",
              "type": "uint256"
            },
            {
              "internalType": "uint256",
              "name": "CURRENT_CAPACITY",
              "type": "uint256"
            },
            {
              "internalType": "uint256[]",
              "name": "CURRENT_INHABITANTS",
              "type": "uint256[]"
            }
          ],
          "internalType": "struct NFZGameMechanicsV2.Location",
          "name": "",
          "type": "tuple"
        }
      ],
      "stateMutability": "view",
      "type": "function"
    },
    {
      "inputs": [
        {
          "internalType": "address",
          "name": "_address",
          "type": "address"
        }
      ],
      "name": "setGameAdmin",
      "outputs": [],
      "stateMutability": "nonpayable",
      "type": "function"
    },
    {
      "inputs": [],
      "name": "setZombiePass",
      "outputs": [],
      "stateMutability": "nonpayable",
      "type": "function"
    },
    {
      "inputs": [
        {
          "internalType": "uint256",
          "name": "",
          "type": "uint256"
        }
      ],
      "name": "tokenIdToLocations",
      "outputs": [
        {
          "internalType": "uint256",
          "name": "",
          "type": "uint256"
        }
      ],
      "stateMutability": "view",
      "type": "function"
    },
    {
      "inputs": [
        {
          "internalType": "address",
          "name": "newOwner",
          "type": "address"
        }
      ],
      "name": "transferOwnership",
      "outputs": [],
      "stateMutability": "nonpayable",
      "type": "function"
    },
    {
      "inputs": [
        {
          "internalType": "address",
          "name": "",
          "type": "address"
        },
        {
          "internalType": "uint256",
          "name": "",
          "type": "uint256"
        }
      ],
      "name": "userRewards",
      "outputs": [
        {
          "internalType": "uint256",
          "name": "",
          "type": "uint256"
        }
      ],
      "stateMutability": "view",
      "type": "function"
    }
  ],
  "bytecode": "0x608060405234801561001057600080fd5b50612425806100206000396000f3fe608060405234801561001057600080fd5b50600436106101515760003560e01c806363c2a20a116100cd578063c02a523a11610081578063d15bcf4111610066578063d15bcf41146102e3578063e1c7392a146102f6578063f2fde38b146102fe57600080fd5b8063c02a523a146102a2578063c0ba3e7a146102c257600080fd5b80638da5cb5b116100b25780638da5cb5b1461026157806394985ddd1461027c5780639c6946171461028f57600080fd5b806363c2a20a14610246578063715018a61461025957600080fd5b80634856684a116101245780634c241617116101095780634c241617146101f25780634c91ebe9146102205780635c2dd5721461023357600080fd5b80634856684a146101bf578063485cc955146101df57600080fd5b80630711c7a614610156578063078b0fb7146101825780630ccdf019146101a2578063429d8533146101ac575b600080fd5b610169610164366004611f70565b610311565b60405161017994939291906122aa565b60405180910390f35b610195610190366004611e5e565b6103c2565b60405161017991906121a9565b6101aa61042e565b005b6101aa6101ba366004611e5e565b6104bf565b6101d26101cd366004611f70565b610548565b6040516101799190612253565b6101aa6101ed366004611e7f565b6106a7565b610212610200366004611f70565b606c6020526000908152604090205481565b604051908152602001610179565b6101aa61022e36600461200a565b6107d5565b6101aa610241366004611fa0565b6108c0565b610212610254366004611eb1565b6109f1565b6101aa610a22565b6035546040516001600160a01b039091168152602001610179565b6101aa61028a366004611f4f565b610a88565b6101aa61029d366004611eda565b610af0565b6102126102b0366004611f70565b606b6020526000908152604090205481565b6102d56102d0366004611f70565b610fbb565b6040516101799291906121fc565b6101aa6102f1366004611f70565b61109a565b6101aa611105565b6101aa61030c366004611e5e565b61123f565b606a60205260009081526040902080546001820180549192916103339061234d565b80601f016020809104026020016040519081016040528092919081815260200182805461035f9061234d565b80156103ac5780601f10610381576101008083540402835291602001916103ac565b820191906000526020600020905b81548152906001019060200180831161038f57829003601f168201915b5050505050908060020154908060030154905084565b6001600160a01b0381166000908152606f6020908152604080832080548251818502810185019093528083526060949383018282801561042157602002820191906000526020600020905b81548152602001906001019080831161040d575b5093979650505050505050565b6035546001600160a01b0316331461048d5760405162461bcd60e51b815260206004820181905260248201527f4f776e61626c653a2063616c6c6572206973206e6f7420746865206f776e657260448201526064015b60405180910390fd5b607380547fffffffffffffffffffffffffffffffffffffffffffffffffffffffffffffff00811660ff90911615179055565b6035546001600160a01b031633146105195760405162461bcd60e51b815260206004820181905260248201527f4f776e61626c653a2063616c6c6572206973206e6f7420746865206f776e65726044820152606401610484565b6069805473ffffffffffffffffffffffffffffffffffffffff19166001600160a01b0392909216919091179055565b61057a6040518060a0016040528060008152602001606081526020016000815260200160008152602001606081525090565b606a60008381526020019081526020016000206040518060a0016040529081600082015481526020016001820180546105b29061234d565b80601f01602080910402602001604051908101604052809291908181526020018280546105de9061234d565b801561062b5780601f106106005761010080835404028352916020019161062b565b820191906000526020600020905b81548152906001019060200180831161060e57829003601f168201915b5050505050815260200160028201548152602001600382015481526020016004820180548060200260200160405190810160405280929190818152602001828054801561069757602002820191906000526020600020905b815481526020019060010190808311610683575b5050505050815250509050919050565b600054610100900460ff166106c25760005460ff16156106c6565b303b155b6107385760405162461bcd60e51b815260206004820152602e60248201527f496e697469616c697a61626c653a20636f6e747261637420697320616c72656160448201527f647920696e697469616c697a65640000000000000000000000000000000000006064820152608401610484565b600054610100900460ff1615801561075a576000805461ffff19166101011790555b6001805473ffffffffffffffffffffffffffffffffffffffff19166001600160a01b0385811691909117909155600080547fffffffffffffffffffff0000000000000000000000000000000000000000ffff16620100009285169290920291909117905580156107d0576000805461ff00191690555b505050565b6035546001600160a01b0316331461082f5760405162461bcd60e51b815260206004820181905260248201527f4f776e61626c653a2063616c6c6572206973206e6f7420746865206f776e65726044820152606401610484565b6000858152606a6020908152604090912086815585519091610858916001840191880190611cce565b5060028101849055600060038201819055610877906004830190611d52565b6000868152606b60209081526040909120878155845190916108a0916002840191870190611d70565b5082516108b69060018301906020860190611d70565b5050505050505050565b6035546001600160a01b0316331461091a5760405162461bcd60e51b815260206004820181905260248201527f4f776e61626c653a2063616c6c6572206973206e6f7420746865206f776e65726044820152606401610484565b6000838152606b60205260408120905b8351811015610988578160020184828151811061095757634e487b7160e01b600052603260045260246000fd5b602090810291909101810151825460018101845560009384529190922001558061098081612388565b91505061092a565b5060005b82518110156109ea57816001018382815181106109b957634e487b7160e01b600052603260045260246000fd5b60209081029190910181015182546001810184556000938452919092200155806109e281612388565b91505061098c565b5050505050565b606f6020528160005260406000208181548110610a0d57600080fd5b90600052602060002001600091509150505481565b6035546001600160a01b03163314610a7c5760405162461bcd60e51b815260206004820181905260248201527f4f776e61626c653a2063616c6c6572206973206e6f7420746865206f776e65726044820152606401610484565b610a86600061131a565b565b6001546001600160a01b03163314610ae25760405162461bcd60e51b815260206004820152601f60248201527f4f6e6c7920565246436f6f7264696e61746f722063616e2066756c66696c6c006044820152606401610484565b610aec8282611379565b5050565b6069546001600160a01b03163314610b4a5760405162461bcd60e51b815260206004820152601060248201527f4e6f7420612047616d652041646d696e000000000000000000000000000000006044820152606401610484565b6000828152606a60205260409020600281015484516003909201549091610b7091612307565b1115610bbe5760405162461bcd60e51b815260206004820152601060248201527f4c6f636174696f6e2069732046756c6c000000000000000000000000000000006044820152606401610484565b6000828152606a60205260408120905b8451811015610dc4576000858281518110610bf957634e487b7160e01b600052603260045260246000fd5b602002602001015190506000606c60008381526020019081526020016000205490508060001480610c31575060735460ff1615156001145b610c7d5760405162461bcd60e51b815260206004820152601a60248201527f5a6f6d62696520616c7265616479206174206c6f636174696f6e0000000000006044820152606401610484565b8015610d6f576000818152606a60205260409020600381015415610cb357600381018054906000610cad83612336565b91905055505b6000610cbf8484611624565b90508061270f14610d6c57600482018054610cdc9060019061231f565b81548110610cfa57634e487b7160e01b600052603260045260246000fd5b9060005260206000200154826004018281548110610d2857634e487b7160e01b600052603260045260246000fd5b60009182526020909120015560048201805480610d5557634e487b7160e01b600052603160045260246000fd5b600190038181906000526020600020016000905590555b50505b600384018054906000610d8183612388565b90915550505060048301805460018101825560009182526020808320909101839055918152606c9091526040902084905580610dbc81612388565b915050610bce565b507fe888c03e2d3483231934e6b8631ea22e478bdfa422fdeb50d36ecb90463d0a33848484604051610df893929190612221565b60405180910390a16000838152606b6020908152604080832060020180548251818502810185019093528083529192909190830182828015610e5957602002820191906000526020600020905b815481526020019060010190808311610e45575b505050505090506000606b6000868152602001908152602001600020600101805480602002602001604051908101604052809291908181526020018280548015610ec257602002820191906000526020600020905b815481526020019060010190808311610eae575b50505050509050600082511180610eda575060008151115b15610ef257610eea8585886116e5565b505050505050565b60408051600280825260608201835260009260208301908036833701905050905061270f81600081518110610f3757634e487b7160e01b600052603260045260246000fd5b602002602001018181525050600081600181518110610f6657634e487b7160e01b600052603260045260246000fd5b6020026020010181815250507fc4da12a9df805ca18927a20b6b25243cbe01622005e4d9e98253e71f3f51cfd2818688600080604051610faa9594939291906121bc565b60405180910390a150505050505050565b6060806000606b600085815260200190815260200160002060020180548060200260200160405190810160405280929190818152602001828054801561102057602002820191906000526020600020905b81548152602001906001019080831161100c575b505050505090506000606b600086815260200190815260200160002060010180548060200260200160405190810160405280929190818152602001828054801561108957602002820191906000526020600020905b815481526020019060010190808311611075575b509599939850929650505050505050565b6035546001600160a01b031633146110f45760405162461bcd60e51b815260206004820181905260248201527f4f776e61626c653a2063616c6c6572206973206e6f7420746865206f776e65726044820152606401610484565b6000908152606c6020526040812055565b600054610100900460ff166111205760005460ff1615611124565b303b155b6111965760405162461bcd60e51b815260206004820152602e60248201527f496e697469616c697a61626c653a20636f6e747261637420697320616c72656160448201527f647920696e697469616c697a65640000000000000000000000000000000000006064820152608401610484565b600054610100900460ff161580156111b8576000805461ffff19166101011790555b6111c0611749565b6111f2733d2341adb2d31f1c5530cdc622016af293177ae073b0897686c545045afc77cf20ec7a532e3120e0f16106a7565b7ff86195cf7690c55907b2b611ebb7343a6f649bff128701cc542f0569e2c549da606755655af3107a4000606855600a6071556002607255801561123c576000805461ff00191690555b50565b6035546001600160a01b031633146112995760405162461bcd60e51b815260206004820181905260248201527f4f776e61626c653a2063616c6c6572206973206e6f7420746865206f776e65726044820152606401610484565b6001600160a01b0381166113155760405162461bcd60e51b815260206004820152602660248201527f4f776e61626c653a206e6577206f776e657220697320746865207a65726f206160448201527f64647265737300000000000000000000000000000000000000000000000000006064820152608401610484565b61123c815b603580546001600160a01b0383811673ffffffffffffffffffffffffffffffffffffffff19831681179093556040519116919082907f8be0079c531659141344cd1fd0a4f28419497f9722a3daafe3b4186f6b6457e090600090a35050565b6000828152606e6020908152604080832054808452606b8352818420868552606d909352818420548251600280825260608201909452919483850194600101936001600160a01b0390921692909181602001602082028036833750508554919250600091829150156114e0576113f06064896123a3565b6113fb906001612307565b9150607154821015801561140f5750855415155b156114e057855460009087906114279060019061231f565b8154811061144557634e487b7160e01b600052603260045260246000fd5b60009182526020808320909101546001600160a01b0388168352606f825260408320805460018101825590845291832090910181905585519092508291869161149e57634e487b7160e01b600052603260045260246000fd5b602002602001018181525050868054806114c857634e487b7160e01b600052603160045260246000fd5b60019003818190600052602060002001600090559055505b8454156115d8576114f36103e8896123a3565b6114fe906001612307565b90506072548110156115d8578454600090869061151d9060019061231f565b8154811061153b57634e487b7160e01b600052603260045260246000fd5b60009182526020808320909101546001600160a01b0388168352606f82526040832080546001810182559084529190922001819055865490915086908061159257634e487b7160e01b600052603160045260246000fd5b6001900381819060005260206000200160009055905580846001815181106115ca57634e487b7160e01b600052603260045260246000fd5b602002602001018181525050505b7fc4da12a9df805ca18927a20b6b25243cbe01622005e4d9e98253e71f3f51cfd2838589856071546040516116119594939291906121bc565b60405180910390a1505050505050505050565b6000818152606a602090815260408083206004018054825181850281018501909352808352849383018282801561167a57602002820191906000526020600020905b815481526020019060010190808311611666575b5050505050905060005b81518110156116d7578181815181106116ad57634e487b7160e01b600052603260045260246000fd5b60200260200101518514156116c55791506116df9050565b806116cf81612388565b915050611684565b5061270f9150505b92915050565b6116ef81846117d6565b60715560006116fc611942565b6000908152606d60209081526040808320805473ffffffffffffffffffffffffffffffffffffffff19166001600160a01b039790971696909617909555606e905292909220929092555050565b600054610100900460ff166117c65760405162461bcd60e51b815260206004820152602b60248201527f496e697469616c697a61626c653a20636f6e7472616374206973206e6f74206960448201527f6e697469616c697a696e670000000000000000000000000000000000000000006064820152608401610484565b6117ce611a69565b610a86611ae6565b600080805b845181101561182b576107d085828151811061180757634e487b7160e01b600052603260045260246000fd5b60200260200101511161181957600191505b8061182381612388565b9150506117db565b50600081855161183b9190612307565b905083600114156118c257806001141561185a57605a925050506116df565b806002141561186e57604b925050506116df565b8060031415611882576041925050506116df565b8060041415611896576032925050506116df565b80600514156118aa57601e925050506116df565b600681106118bd576000925050506116df565b61193a565b836002141561192f5780600114156118df576050925050506116df565b80600214156118f3576046925050506116df565b806003141561190757603c925050506116df565b806004141561191b576032925050506116df565b80600514156118aa576019925050506116df565b6064925050506116df565b505092915050565b606854600080546040517f70a08231000000000000000000000000000000000000000000000000000000008152306004820152919291620100009091046001600160a01b0316906370a082319060240160206040518083038186803b1580156119aa57600080fd5b505afa1580156119be573d6000803e3d6000fd5b505050506040513d601f19601f820116820180604052508101906119e29190611f88565b1015611a565760405162461bcd60e51b815260206004820152602b60248201527f4e6f7420656e6f756768204c494e4b202d2066696c6c20636f6e74726163742060448201527f77697468206661756365740000000000000000000000000000000000000000006064820152608401610484565b611a64606754606854611b6c565b905090565b600054610100900460ff16610a865760405162461bcd60e51b815260206004820152602b60248201527f496e697469616c697a61626c653a20636f6e7472616374206973206e6f74206960448201527f6e697469616c697a696e670000000000000000000000000000000000000000006064820152608401610484565b600054610100900460ff16611b635760405162461bcd60e51b815260206004820152602b60248201527f496e697469616c697a61626c653a20636f6e7472616374206973206e6f74206960448201527f6e697469616c697a696e670000000000000000000000000000000000000000006064820152608401610484565b610a863361131a565b600080546001546040516001600160a01b0362010000909304831692634000aea09216908590611bab9088908790602001918252602082015260400190565b6040516020818303038152906040526040518463ffffffff1660e01b8152600401611bd893929190612178565b602060405180830381600087803b158015611bf257600080fd5b505af1158015611c06573d6000803e3d6000fd5b505050506040513d601f19601f82011682018060405250810190611c2a9190611f2f565b50600083815260026020818152604080842054815180840189905280830186905230606082015260808082018390528351808303909101815260a090910190925281519183019190912093879052919052611c86906001612307565b600085815260026020526040902055611cc68482604080516020808201949094528082019290925280518083038201815260609092019052805191012090565b949350505050565b828054611cda9061234d565b90600052602060002090601f016020900481019282611cfc5760008555611d42565b82601f10611d1557805160ff1916838001178555611d42565b82800160010185558215611d42579182015b82811115611d42578251825591602001919060010190611d27565b50611d4e929150611daa565b5090565b508054600082559060005260206000209081019061123c9190611daa565b828054828255906000526020600020908101928215611d425791602002820182811115611d42578251825591602001919060010190611d27565b5b80821115611d4e5760008155600101611dab565b80356001600160a01b0381168114611dd657600080fd5b919050565b600082601f830112611deb578081fd5b8135602067ffffffffffffffff821115611e0757611e076123d9565b8160051b611e168282016122d6565b838152828101908684018388018501891015611e30578687fd5b8693505b85841015611e52578035835260019390930192918401918401611e34565b50979650505050505050565b600060208284031215611e6f578081fd5b611e7882611dbf565b9392505050565b60008060408385031215611e91578081fd5b611e9a83611dbf565b9150611ea860208401611dbf565b90509250929050565b60008060408385031215611ec3578182fd5b611ecc83611dbf565b946020939093013593505050565b600080600060608486031215611eee578081fd5b833567ffffffffffffffff811115611f04578182fd5b611f1086828701611ddb565b93505060208401359150611f2660408501611dbf565b90509250925092565b600060208284031215611f40578081fd5b81518015158114611e78578182fd5b60008060408385031215611f61578182fd5b50508035926020909101359150565b600060208284031215611f81578081fd5b5035919050565b600060208284031215611f99578081fd5b5051919050565b600080600060608486031215611fb4578283fd5b83359250602084013567ffffffffffffffff80821115611fd2578384fd5b611fde87838801611ddb565b93506040860135915080821115611ff3578283fd5b5061200086828701611ddb565b9150509250925092565b600080600080600060a08688031215612021578081fd5b8535945060208087013567ffffffffffffffff80821115612040578384fd5b818901915089601f830112612053578384fd5b813581811115612065576120656123d9565b61207784601f19601f840116016122d6565b8181528b8583860101111561208a578586fd5b818585018683013790810190930184905291955060408801359450606088013591808311156120b7578384fd5b6120c38a848b01611ddb565b945060808901359250808311156120d8578384fd5b50506120e688828901611ddb565b9150509295509295909350565b6000815180845260208085019450808401835b8381101561212257815187529582019590820190600101612106565b509495945050505050565b60008151808452815b8181101561215257602081850181015186830182015201612136565b818111156121635782602083870101525b50601f01601f19169290920160200192915050565b6001600160a01b03841681528260208201526060604082015260006121a0606083018461212d565b95945050505050565b602081526000611e7860208301846120f3565b60a0815260006121cf60a08301886120f3565b90506001600160a01b03861660208301528460408301528360608301528260808301529695505050505050565b60408152600061220f60408301856120f3565b82810360208401526121a081856120f3565b60608152600061223460608301866120f3565b90508360208301526001600160a01b0383166040830152949350505050565b60208152815160208201526000602083015160a0604084015261227960c084018261212d565b905060408401516060840152606084015160808401526080840151601f198483030160a08501526121a082826120f3565b8481526080602082015260006122c3608083018661212d565b6040830194909452506060015292915050565b604051601f8201601f1916810167ffffffffffffffff811182821017156122ff576122ff6123d9565b604052919050565b6000821982111561231a5761231a6123c3565b500190565b600082821015612331576123316123c3565b500390565b600081612345576123456123c3565b506000190190565b600181811c9082168061236157607f821691505b6020821081141561238257634e487b7160e01b600052602260045260246000fd5b50919050565b600060001982141561239c5761239c6123c3565b5060010190565b6000826123be57634e487b7160e01b81526012600452602481fd5b500690565b634e487b7160e01b600052601160045260246000fd5b634e487b7160e01b600052604160045260246000fdfea2646970667358221220ac7222ac7f15ed45748d9b3860ba5b691514a4484f0a5883da683c5449a1188364736f6c63430008040033",
  "linkReferences": {},
  "deployedLinkReferences": {}
}