{
  "_format": "hh-sol-artifact-1",
  "contractName": "NFZGameMechanics",
  "sourceName": "contracts/NFZGameMechanics.sol",
  "abi": [
    {
      "anonymous": false,
      "inputs": [
        {
          "indexed": false,
          "internalType": "uint256[]",
          "name": "tokenIds",
          "type": "uint256[]"
        },
        {
          "indexed": false,
          "internalType": "uint256",
          "name": "location",
          "type": "uint256"
        },
        {
          "indexed": false,
          "internalType": "address",
          "name": "from",
          "type": "address"
        }
      ],
      "name": "ELocationSet",
      "type": "event"
    },
    {
      "anonymous": false,
      "inputs": [
        {
          "indexed": false,
          "internalType": "uint256[]",
          "name": "userPrizes",
          "type": "uint256[]"
        },
        {
          "indexed": false,
          "internalType": "address",
          "name": "from",
          "type": "address"
        },
        {
          "indexed": false,
          "internalType": "uint256",
          "name": "location",
          "type": "uint256"
        },
        {
          "indexed": false,
          "internalType": "uint256",
          "name": "randomNumber",
          "type": "uint256"
        },
        {
          "indexed": false,
          "internalType": "uint256",
          "name": "baseChance",
          "type": "uint256"
        }
      ],
      "name": "EPrizes",
      "type": "event"
    },
    {
      "anonymous": false,
      "inputs": [
        {
          "indexed": true,
          "internalType": "address",
          "name": "previousOwner",
          "type": "address"
        },
        {
          "indexed": true,
          "internalType": "address",
          "name": "newOwner",
          "type": "address"
        }
      ],
      "name": "OwnershipTransferred",
      "type": "event"
    },
    {
      "inputs": [
        {
          "internalType": "uint256",
          "name": "",
          "type": "uint256"
        }
      ],
      "name": "LocationRewards",
      "outputs": [
        {
          "internalType": "uint256",
          "name": "_locationId",
          "type": "uint256"
        }
      ],
      "stateMutability": "view",
      "type": "function"
    },
    {
      "inputs": [
        {
          "internalType": "uint256",
          "name": "",
          "type": "uint256"
        }
      ],
      "name": "Locations",
      "outputs": [
        {
          "internalType": "uint256",
          "name": "_id",
          "type": "uint256"
        },
        {
          "internalType": "string",
          "name": "Location_name",
          "type": "string"
        },
        {
          "internalType": "uint256",
          "name": "MAX_CAPACITY",
          "type": "uint256"
        },
        {
          "internalType": "uint256",
          "name": "CURRENT_CAPACITY",
          "type": "uint256"
        }
      ],
      "stateMutability": "view",
      "type": "function"
    },
    {
      "inputs": [
        {
          "internalType": "uint256[]",
          "name": "_tokenIds",
          "type": "uint256[]"
        },
        {
          "internalType": "uint256",
          "name": "_locationId",
          "type": "uint256"
        },
        {
          "internalType": "address",
          "name": "account",
          "type": "address"
        }
      ],
      "name": "_setLocation",
      "outputs": [],
      "stateMutability": "nonpayable",
      "type": "function"
    },
    {
      "inputs": [
        {
          "internalType": "uint256",
          "name": "_id",
          "type": "uint256"
        },
        {
          "internalType": "string",
          "name": "name",
          "type": "string"
        },
        {
          "internalType": "uint256",
          "name": "_maxCapacity",
          "type": "uint256"
        },
        {
          "internalType": "uint256[]",
          "name": "prizes",
          "type": "uint256[]"
        },
        {
          "internalType": "uint256[]",
          "name": "specialRerwards",
          "type": "uint256[]"
        }
      ],
      "name": "addLocation",
      "outputs": [],
      "stateMutability": "nonpayable",
      "type": "function"
    },
    {
      "inputs": [
        {
          "internalType": "uint256",
          "name": "_locationId",
          "type": "uint256"
        },
        {
          "internalType": "uint256[]",
          "name": "_prizes",
          "type": "uint256[]"
        },
        {
          "internalType": "uint256[]",
          "name": "_specialPrizes",
          "type": "uint256[]"
        }
      ],
      "name": "addPrizes",
      "outputs": [],
      "stateMutability": "nonpayable",
      "type": "function"
    },
    {
      "inputs": [
        {
          "internalType": "uint256",
          "name": "_locationId",
          "type": "uint256"
        }
      ],
      "name": "getLocationPrizeArray",
      "outputs": [
        {
          "internalType": "uint256[]",
          "name": "prizes",
          "type": "uint256[]"
        },
        {
          "internalType": "uint256[]",
          "name": "special",
          "type": "uint256[]"
        }
      ],
      "stateMutability": "view",
      "type": "function"
    },
    {
      "inputs": [],
      "name": "init",
      "outputs": [],
      "stateMutability": "nonpayable",
      "type": "function"
    },
    {
      "inputs": [
        {
          "internalType": "address",
          "name": "_vrfCoordinator",
          "type": "address"
        },
        {
          "internalType": "address",
          "name": "_link",
          "type": "address"
        }
      ],
      "name": "initialize",
      "outputs": [],
      "stateMutability": "nonpayable",
      "type": "function"
    },
    {
      "inputs": [],
      "name": "owner",
      "outputs": [
        {
          "internalType": "address",
          "name": "",
          "type": "address"
        }
      ],
      "stateMutability": "view",
      "type": "function"
    },
    {
      "inputs": [
        {
          "internalType": "bytes32",
          "name": "requestId",
          "type": "bytes32"
        },
        {
          "internalType": "uint256",
          "name": "randomness",
          "type": "uint256"
        }
      ],
      "name": "rawFulfillRandomness",
      "outputs": [],
      "stateMutability": "nonpayable",
      "type": "function"
    },
    {
      "inputs": [
        {
          "internalType": "uint256",
          "name": "_id",
          "type": "uint256"
        }
      ],
      "name": "removeLocationIdMapping",
      "outputs": [],
      "stateMutability": "nonpayable",
      "type": "function"
    },
    {
      "inputs": [],
      "name": "renounceOwnership",
      "outputs": [],
      "stateMutability": "nonpayable",
      "type": "function"
    },
    {
      "inputs": [
        {
          "internalType": "uint256",
          "name": "_locationId",
          "type": "uint256"
        }
      ],
      "name": "returnStruct",
      "outputs": [
        {
          "components": [
            {
              "internalType": "uint256",
              "name": "_id",
              "type": "uint256"
            },
            {
              "internalType": "string",
              "name": "Location_name",
              "type": "string"
            },
            {
              "internalType": "uint256",
              "name": "MAX_CAPACITY",
              "type": "uint256"
            },
            {
              "internalType": "uint256",
              "name": "CURRENT_CAPACITY",
              "type": "uint256"
            },
            {
              "internalType": "uint256[]",
              "name": "CURRENT_INHABITANTS",
              "type": "uint256[]"
            }
          ],
          "internalType": "struct NFZGameMechanics.Location",
          "name": "",
          "type": "tuple"
        }
      ],
      "stateMutability": "view",
      "type": "function"
    },
    {
      "inputs": [
        {
          "internalType": "address",
          "name": "_address",
          "type": "address"
        }
      ],
      "name": "setGameAdmin",
      "outputs": [],
      "stateMutability": "nonpayable",
      "type": "function"
    },
    {
      "inputs": [
        {
          "internalType": "uint256",
          "name": "",
          "type": "uint256"
        }
      ],
      "name": "tokenIdToLocations",
      "outputs": [
        {
          "internalType": "uint256",
          "name": "",
          "type": "uint256"
        }
      ],
      "stateMutability": "view",
      "type": "function"
    },
    {
      "inputs": [
        {
          "internalType": "address",
          "name": "newOwner",
          "type": "address"
        }
      ],
      "name": "transferOwnership",
      "outputs": [],
      "stateMutability": "nonpayable",
      "type": "function"
    },
    {
      "inputs": [
        {
          "internalType": "address",
          "name": "",
          "type": "address"
        },
        {
          "internalType": "uint256",
          "name": "",
          "type": "uint256"
        }
      ],
      "name": "userRewards",
      "outputs": [
        {
          "internalType": "uint256",
          "name": "",
          "type": "uint256"
        }
      ],
      "stateMutability": "view",
      "type": "function"
    }
  ],
  "bytecode": "0x608060405234801561001057600080fd5b50612228806100206000396000f3fe608060405234801561001057600080fd5b506004361061011b5760003560e01c8063715018a6116100b2578063c02a523a11610081578063d15bcf4111610066578063d15bcf4114610285578063e1c7392a14610298578063f2fde38b146102a057600080fd5b8063c02a523a14610244578063c0ba3e7a1461026457600080fd5b8063715018a6146101fb5780638da5cb5b1461020357806394985ddd1461021e5780639c6946171461023157600080fd5b80634c241617116100ee5780634c241617146101945780634c91ebe9146101c25780635c2dd572146101d557806363c2a20a146101e857600080fd5b80630711c7a614610120578063429d85331461014c5780634856684a14610161578063485cc95514610181575b600080fd5b61013361012e366004611d86565b6102b3565b60405161014394939291906120ad565b60405180910390f35b61015f61015a366004611c74565b610364565b005b61017461016f366004611d86565b6103f2565b6040516101439190612056565b61015f61018f366004611c95565b610551565b6101b46101a2366004611d86565b606d6020526000908152604090205481565b604051908152602001610143565b61015f6101d0366004611e20565b61066a565b61015f6101e3366004611db6565b610755565b6101b46101f6366004611cc7565b610886565b61015f6108b7565b6035546040516001600160a01b039091168152602001610143565b61015f61022c366004611d65565b61091d565b61015f61023f366004611cf0565b610985565b6101b4610252366004611d86565b606c6020526000908152604090205481565b610277610272366004611d86565b610dea565b604051610143929190611fff565b61015f610293366004611d86565b610ec9565b61015f610f34565b61015f6102ae366004611c74565b611059565b606b60205260009081526040902080546001820180549192916102d590612150565b80601f016020809104026020016040519081016040528092919081815260200182805461030190612150565b801561034e5780601f106103235761010080835404028352916020019161034e565b820191906000526020600020905b81548152906001019060200180831161033157829003601f168201915b5050505050908060020154908060030154905084565b6035546001600160a01b031633146103c35760405162461bcd60e51b815260206004820181905260248201527f4f776e61626c653a2063616c6c6572206973206e6f7420746865206f776e657260448201526064015b60405180910390fd5b6069805473ffffffffffffffffffffffffffffffffffffffff19166001600160a01b0392909216919091179055565b6104246040518060a0016040528060008152602001606081526020016000815260200160008152602001606081525090565b606b60008381526020019081526020016000206040518060a00160405290816000820154815260200160018201805461045c90612150565b80601f016020809104026020016040519081016040528092919081815260200182805461048890612150565b80156104d55780601f106104aa576101008083540402835291602001916104d5565b820191906000526020600020905b8154815290600101906020018083116104b857829003601f168201915b5050505050815260200160028201548152602001600382015481526020016004820180548060200260200160405190810160405280929190818152602001828054801561054157602002820191906000526020600020905b81548152602001906001019080831161052d575b5050505050815250509050919050565b600054610100900460ff168061056a575060005460ff16155b6105cd5760405162461bcd60e51b815260206004820152602e60248201527f496e697469616c697a61626c653a20636f6e747261637420697320616c72656160448201526d191e481a5b9a5d1a585b1a5e995960921b60648201526084016103ba565b600054610100900460ff161580156105ef576000805461ffff19166101011790555b6001805473ffffffffffffffffffffffffffffffffffffffff19166001600160a01b0385811691909117909155600080547fffffffffffffffffffff0000000000000000000000000000000000000000ffff1662010000928516929092029190911790558015610665576000805461ff00191690555b505050565b6035546001600160a01b031633146106c45760405162461bcd60e51b815260206004820181905260248201527f4f776e61626c653a2063616c6c6572206973206e6f7420746865206f776e657260448201526064016103ba565b6000858152606b60209081526040909120868155855190916106ed916001840191880190611ae4565b506002810184905560006003820181905561070c906004830190611b68565b6000868152606c6020908152604090912087815584519091610735916002840191870190611b86565b50825161074b9060018301906020860190611b86565b5050505050505050565b6035546001600160a01b031633146107af5760405162461bcd60e51b815260206004820181905260248201527f4f776e61626c653a2063616c6c6572206973206e6f7420746865206f776e657260448201526064016103ba565b6000838152606c60205260408120905b835181101561081d57816002018482815181106107ec57634e487b7160e01b600052603260045260246000fd5b60209081029190910181015182546001810184556000938452919092200155806108158161218b565b9150506107bf565b5060005b825181101561087f578160010183828151811061084e57634e487b7160e01b600052603260045260246000fd5b60209081029190910181015182546001810184556000938452919092200155806108778161218b565b915050610821565b5050505050565b607060205281600052604060002081815481106108a257600080fd5b90600052602060002001600091509150505481565b6035546001600160a01b031633146109115760405162461bcd60e51b815260206004820181905260248201527f4f776e61626c653a2063616c6c6572206973206e6f7420746865206f776e657260448201526064016103ba565b61091b6000611134565b565b6001546001600160a01b031633146109775760405162461bcd60e51b815260206004820152601f60248201527f4f6e6c7920565246436f6f7264696e61746f722063616e2066756c66696c6c0060448201526064016103ba565b6109818282611193565b5050565b6069546001600160a01b031633146109df5760405162461bcd60e51b815260206004820152601060248201527f4e6f7420612047616d652041646d696e0000000000000000000000000000000060448201526064016103ba565b6000828152606b60205260409020600281015484516003909201549091610a059161210a565b1115610a535760405162461bcd60e51b815260206004820152601060248201527f4c6f636174696f6e2069732046756c6c0000000000000000000000000000000060448201526064016103ba565b6000828152606b60205260408120905b8451811015610bf4576000858281518110610a8e57634e487b7160e01b600052603260045260246000fd5b6020908102919091018101516000818152606d9092526040909120549091508015610b9f576000818152606b60205260409020600381015415610ae357600381018054906000610add83612139565b91905055505b6000610aef848461143e565b90508061270f14610b9c57600482018054610b0c90600190612122565b81548110610b2a57634e487b7160e01b600052603260045260246000fd5b9060005260206000200154826004018281548110610b5857634e487b7160e01b600052603260045260246000fd5b60009182526020909120015560048201805480610b8557634e487b7160e01b600052603160045260246000fd5b600190038181906000526020600020016000905590555b50505b600384018054906000610bb18361218b565b90915550505060048301805460018101825560009182526020808320909101839055918152606d9091526040902084905580610bec8161218b565b915050610a63565b507fe888c03e2d3483231934e6b8631ea22e478bdfa422fdeb50d36ecb90463d0a33848484604051610c2893929190612024565b60405180910390a16000838152606c6020908152604080832060020180548251818502810185019093528083529192909190830182828015610c8957602002820191906000526020600020905b815481526020019060010190808311610c75575b505050505090506000606c6000868152602001908152602001600020600101805480602002602001604051908101604052809291908181526020018280548015610cf257602002820191906000526020600020905b815481526020019060010190808311610cde575b50505050509050600082511180610d0a575060008151115b15610d2257610d1a8585886114ff565b505050505050565b604080516002808252606082018352600092602083019080368337019050509050600081600081518110610d6657634e487b7160e01b600052603260045260246000fd5b602002602001018181525050600081600181518110610d9557634e487b7160e01b600052603260045260246000fd5b6020026020010181815250507fc4da12a9df805ca18927a20b6b25243cbe01622005e4d9e98253e71f3f51cfd2818688600080604051610dd9959493929190611fbf565b60405180910390a150505050505050565b6060806000606c6000858152602001908152602001600020600201805480602002602001604051908101604052809291908181526020018280548015610e4f57602002820191906000526020600020905b815481526020019060010190808311610e3b575b505050505090506000606c6000868152602001908152602001600020600101805480602002602001604051908101604052809291908181526020018280548015610eb857602002820191906000526020600020905b815481526020019060010190808311610ea4575b509599939850929650505050505050565b6035546001600160a01b03163314610f235760405162461bcd60e51b815260206004820181905260248201527f4f776e61626c653a2063616c6c6572206973206e6f7420746865206f776e657260448201526064016103ba565b6000908152606d6020526040812055565b600054610100900460ff1680610f4d575060005460ff16155b610fb05760405162461bcd60e51b815260206004820152602e60248201527f496e697469616c697a61626c653a20636f6e747261637420697320616c72656160448201526d191e481a5b9a5d1a585b1a5e995960921b60648201526084016103ba565b600054610100900460ff16158015610fd2576000805461ffff19166101011790555b610fda611562565b61100c738c7382f9d8f56b33781fe506e897a4f1e2d1725573326c977e6efc84e512bb9c30f76e30c160ed06fb610551565b7f6e75b569a01ef56d18cab6a8e71e6600d6ce853834d4a5748b720d06f878b3a4606755655af3107a4000606855600a60725560026073558015611056576000805461ff00191690555b50565b6035546001600160a01b031633146110b35760405162461bcd60e51b815260206004820181905260248201527f4f776e61626c653a2063616c6c6572206973206e6f7420746865206f776e657260448201526064016103ba565b6001600160a01b03811661112f5760405162461bcd60e51b815260206004820152602660248201527f4f776e61626c653a206e6577206f776e657220697320746865207a65726f206160448201527f646472657373000000000000000000000000000000000000000000000000000060648201526084016103ba565b611056815b603580546001600160a01b0383811673ffffffffffffffffffffffffffffffffffffffff19831681179093556040519116919082907f8be0079c531659141344cd1fd0a4f28419497f9722a3daafe3b4186f6b6457e090600090a35050565b6000828152606f6020908152604080832054808452606c8352818420868552606e909352818420548251600280825260608201909452919483850194600101936001600160a01b0390921692909181602001602082028036833750508554919250600091829150156112fa5761120a6064896121a6565b61121590600161210a565b915060725482101580156112295750855415155b156112fa578554600090879061124190600190612122565b8154811061125f57634e487b7160e01b600052603260045260246000fd5b60009182526020808320909101546001600160a01b0388168352607082526040832080546001810182559084529183209091018190558551909250829186916112b857634e487b7160e01b600052603260045260246000fd5b602002602001018181525050868054806112e257634e487b7160e01b600052603160045260246000fd5b60019003818190600052602060002001600090559055505b8454156113f25761130d6103e8896121a6565b61131890600161210a565b90506073548110156113f2578454600090869061133790600190612122565b8154811061135557634e487b7160e01b600052603260045260246000fd5b60009182526020808320909101546001600160a01b038816835260708252604083208054600181018255908452919092200181905586549091508690806113ac57634e487b7160e01b600052603160045260246000fd5b6001900381819060005260206000200160009055905580846001815181106113e457634e487b7160e01b600052603260045260246000fd5b602002602001018181525050505b7fc4da12a9df805ca18927a20b6b25243cbe01622005e4d9e98253e71f3f51cfd28385898560725460405161142b959493929190611fbf565b60405180910390a1505050505050505050565b6000818152606b602090815260408083206004018054825181850281018501909352808352849383018282801561149457602002820191906000526020600020905b815481526020019060010190808311611480575b5050505050905060005b81518110156114f1578181815181106114c757634e487b7160e01b600052603260045260246000fd5b60200260200101518514156114df5791506114f99050565b806114e98161218b565b91505061149e565b5061270f9150505b92915050565b61150881611624565b6072556000611515611703565b6000908152606e60209081526040808320805473ffffffffffffffffffffffffffffffffffffffff19166001600160a01b039790971696909617909555606f905292909220929092555050565b600054610100900460ff168061157b575060005460ff16155b6115de5760405162461bcd60e51b815260206004820152602e60248201527f496e697469616c697a61626c653a20636f6e747261637420697320616c72656160448201526d191e481a5b9a5d1a585b1a5e995960921b60648201526084016103ba565b600054610100900460ff16158015611600576000805461ffff19166101011790555b61160861182a565b6116106118db565b8015611056576000805461ff001916905550565b600080805b8351811015611679576107d084828151811061165557634e487b7160e01b600052603260045260246000fd5b60200260200101511161166757600191505b806116718161218b565b915050611629565b506000818451611689919061210a565b9050806001141561169e5750605a9392505050565b80600214156116b15750604b9392505050565b80600314156116c4575060419392505050565b80600414156116d7575060329392505050565b80600514156116ea5750601e9392505050565b600681106116fc575060009392505050565b5050919050565b606854600080546040517f70a08231000000000000000000000000000000000000000000000000000000008152306004820152919291620100009091046001600160a01b0316906370a082319060240160206040518083038186803b15801561176b57600080fd5b505afa15801561177f573d6000803e3d6000fd5b505050506040513d601f19601f820116820180604052508101906117a39190611d9e565b10156118175760405162461bcd60e51b815260206004820152602b60248201527f4e6f7420656e6f756768204c494e4b202d2066696c6c20636f6e74726163742060448201527f776974682066617563657400000000000000000000000000000000000000000060648201526084016103ba565b611825606754606854611982565b905090565b600054610100900460ff1680611843575060005460ff16155b6118a65760405162461bcd60e51b815260206004820152602e60248201527f496e697469616c697a61626c653a20636f6e747261637420697320616c72656160448201526d191e481a5b9a5d1a585b1a5e995960921b60648201526084016103ba565b600054610100900460ff16158015611610576000805461ffff19166101011790558015611056576000805461ff001916905550565b600054610100900460ff16806118f4575060005460ff16155b6119575760405162461bcd60e51b815260206004820152602e60248201527f496e697469616c697a61626c653a20636f6e747261637420697320616c72656160448201526d191e481a5b9a5d1a585b1a5e995960921b60648201526084016103ba565b600054610100900460ff16158015611979576000805461ffff19166101011790555b61161033611134565b600080546001546040516001600160a01b0362010000909304831692634000aea092169085906119c19088908790602001918252602082015260400190565b6040516020818303038152906040526040518463ffffffff1660e01b81526004016119ee93929190611f8e565b602060405180830381600087803b158015611a0857600080fd5b505af1158015611a1c573d6000803e3d6000fd5b505050506040513d601f19601f82011682018060405250810190611a409190611d45565b50600083815260026020818152604080842054815180840189905280830186905230606082015260808082018390528351808303909101815260a090910190925281519183019190912093879052919052611a9c90600161210a565b600085815260026020526040902055611adc8482604080516020808201949094528082019290925280518083038201815260609092019052805191012090565b949350505050565b828054611af090612150565b90600052602060002090601f016020900481019282611b125760008555611b58565b82601f10611b2b57805160ff1916838001178555611b58565b82800160010185558215611b58579182015b82811115611b58578251825591602001919060010190611b3d565b50611b64929150611bc0565b5090565b50805460008255906000526020600020908101906110569190611bc0565b828054828255906000526020600020908101928215611b585791602002820182811115611b58578251825591602001919060010190611b3d565b5b80821115611b645760008155600101611bc1565b80356001600160a01b0381168114611bec57600080fd5b919050565b600082601f830112611c01578081fd5b8135602067ffffffffffffffff821115611c1d57611c1d6121dc565b8160051b611c2c8282016120d9565b838152828101908684018388018501891015611c46578687fd5b8693505b85841015611c68578035835260019390930192918401918401611c4a565b50979650505050505050565b600060208284031215611c85578081fd5b611c8e82611bd5565b9392505050565b60008060408385031215611ca7578081fd5b611cb083611bd5565b9150611cbe60208401611bd5565b90509250929050565b60008060408385031215611cd9578182fd5b611ce283611bd5565b946020939093013593505050565b600080600060608486031215611d04578081fd5b833567ffffffffffffffff811115611d1a578182fd5b611d2686828701611bf1565b93505060208401359150611d3c60408501611bd5565b90509250925092565b600060208284031215611d56578081fd5b81518015158114611c8e578182fd5b60008060408385031215611d77578182fd5b50508035926020909101359150565b600060208284031215611d97578081fd5b5035919050565b600060208284031215611daf578081fd5b5051919050565b600080600060608486031215611dca578283fd5b83359250602084013567ffffffffffffffff80821115611de8578384fd5b611df487838801611bf1565b93506040860135915080821115611e09578283fd5b50611e1686828701611bf1565b9150509250925092565b600080600080600060a08688031215611e37578081fd5b8535945060208087013567ffffffffffffffff80821115611e56578384fd5b818901915089601f830112611e69578384fd5b813581811115611e7b57611e7b6121dc565b611e8d84601f19601f840116016120d9565b8181528b85838601011115611ea0578586fd5b81858501868301379081019093018490529195506040880135945060608801359180831115611ecd578384fd5b611ed98a848b01611bf1565b94506080890135925080831115611eee578384fd5b5050611efc88828901611bf1565b9150509295509295909350565b6000815180845260208085019450808401835b83811015611f3857815187529582019590820190600101611f1c565b509495945050505050565b60008151808452815b81811015611f6857602081850181015186830182015201611f4c565b81811115611f795782602083870101525b50601f01601f19169290920160200192915050565b6001600160a01b0384168152826020820152606060408201526000611fb66060830184611f43565b95945050505050565b60a081526000611fd260a0830188611f09565b90506001600160a01b03861660208301528460408301528360608301528260808301529695505050505050565b6040815260006120126040830185611f09565b8281036020840152611fb68185611f09565b6060815260006120376060830186611f09565b90508360208301526001600160a01b0383166040830152949350505050565b60208152815160208201526000602083015160a0604084015261207c60c0840182611f43565b905060408401516060840152606084015160808401526080840151601f198483030160a0850152611fb68282611f09565b8481526080602082015260006120c66080830186611f43565b6040830194909452506060015292915050565b604051601f8201601f1916810167ffffffffffffffff81118282101715612102576121026121dc565b604052919050565b6000821982111561211d5761211d6121c6565b500190565b600082821015612134576121346121c6565b500390565b600081612148576121486121c6565b506000190190565b600181811c9082168061216457607f821691505b6020821081141561218557634e487b7160e01b600052602260045260246000fd5b50919050565b600060001982141561219f5761219f6121c6565b5060010190565b6000826121c157634e487b7160e01b81526012600452602481fd5b500690565b634e487b7160e01b600052601160045260246000fd5b634e487b7160e01b600052604160045260246000fdfea26469706673582212205eb4f7af775fa869a8cd376344ba61cd4fc2a6340e7eff913b116c5a1541b9d464736f6c63430008040033",
  "linkReferences": {},
  "deployedLinkReferences": {}
}