{
  "_format": "hh-sol-artifact-1",
  "contractName": "NFZMechanicTokens",
  "sourceName": "contracts/NFZCommunityTokens.sol",
  "abi": [
    {
      "anonymous": false,
      "inputs": [
        {
          "indexed": true,
          "internalType": "address",
          "name": "account",
          "type": "address"
        },
        {
          "indexed": true,
          "internalType": "address",
          "name": "operator",
          "type": "address"
        },
        {
          "indexed": false,
          "internalType": "bool",
          "name": "approved",
          "type": "bool"
        }
      ],
      "name": "ApprovalForAll",
      "type": "event"
    },
    {
      "anonymous": false,
      "inputs": [
        {
          "indexed": false,
          "internalType": "uint256[]",
          "name": "tokenIds",
          "type": "uint256[]"
        },
        {
          "indexed": false,
          "internalType": "uint256",
          "name": "location",
          "type": "uint256"
        },
        {
          "indexed": false,
          "internalType": "address",
          "name": "from",
          "type": "address"
        },
        {
          "indexed": false,
          "internalType": "uint256",
          "name": "amount",
          "type": "uint256"
        }
      ],
      "name": "EBurnKeyCard",
      "type": "event"
    },
    {
      "anonymous": false,
      "inputs": [
        {
          "indexed": true,
          "internalType": "address",
          "name": "previousOwner",
          "type": "address"
        },
        {
          "indexed": true,
          "internalType": "address",
          "name": "newOwner",
          "type": "address"
        }
      ],
      "name": "OwnershipTransferred",
      "type": "event"
    },
    {
      "anonymous": false,
      "inputs": [
        {
          "indexed": false,
          "internalType": "address",
          "name": "account",
          "type": "address"
        }
      ],
      "name": "Paused",
      "type": "event"
    },
    {
      "anonymous": false,
      "inputs": [
        {
          "indexed": true,
          "internalType": "address",
          "name": "operator",
          "type": "address"
        },
        {
          "indexed": true,
          "internalType": "address",
          "name": "from",
          "type": "address"
        },
        {
          "indexed": true,
          "internalType": "address",
          "name": "to",
          "type": "address"
        },
        {
          "indexed": false,
          "internalType": "uint256[]",
          "name": "ids",
          "type": "uint256[]"
        },
        {
          "indexed": false,
          "internalType": "uint256[]",
          "name": "values",
          "type": "uint256[]"
        }
      ],
      "name": "TransferBatch",
      "type": "event"
    },
    {
      "anonymous": false,
      "inputs": [
        {
          "indexed": true,
          "internalType": "address",
          "name": "operator",
          "type": "address"
        },
        {
          "indexed": true,
          "internalType": "address",
          "name": "from",
          "type": "address"
        },
        {
          "indexed": true,
          "internalType": "address",
          "name": "to",
          "type": "address"
        },
        {
          "indexed": false,
          "internalType": "uint256",
          "name": "id",
          "type": "uint256"
        },
        {
          "indexed": false,
          "internalType": "uint256",
          "name": "value",
          "type": "uint256"
        }
      ],
      "name": "TransferSingle",
      "type": "event"
    },
    {
      "anonymous": false,
      "inputs": [
        {
          "indexed": false,
          "internalType": "string",
          "name": "value",
          "type": "string"
        },
        {
          "indexed": true,
          "internalType": "uint256",
          "name": "id",
          "type": "uint256"
        }
      ],
      "name": "URI",
      "type": "event"
    },
    {
      "anonymous": false,
      "inputs": [
        {
          "indexed": false,
          "internalType": "address",
          "name": "account",
          "type": "address"
        }
      ],
      "name": "Unpaused",
      "type": "event"
    },
    {
      "inputs": [],
      "name": "COMIC_ONE",
      "outputs": [
        {
          "internalType": "uint256",
          "name": "",
          "type": "uint256"
        }
      ],
      "stateMutability": "view",
      "type": "function"
    },
    {
      "inputs": [],
      "name": "KEYCARD",
      "outputs": [
        {
          "internalType": "uint256",
          "name": "",
          "type": "uint256"
        }
      ],
      "stateMutability": "view",
      "type": "function"
    },
    {
      "inputs": [
        {
          "internalType": "address",
          "name": "account",
          "type": "address"
        },
        {
          "internalType": "uint256",
          "name": "id",
          "type": "uint256"
        }
      ],
      "name": "balanceOf",
      "outputs": [
        {
          "internalType": "uint256",
          "name": "",
          "type": "uint256"
        }
      ],
      "stateMutability": "view",
      "type": "function"
    },
    {
      "inputs": [
        {
          "internalType": "address[]",
          "name": "accounts",
          "type": "address[]"
        },
        {
          "internalType": "uint256[]",
          "name": "ids",
          "type": "uint256[]"
        }
      ],
      "name": "balanceOfBatch",
      "outputs": [
        {
          "internalType": "uint256[]",
          "name": "",
          "type": "uint256[]"
        }
      ],
      "stateMutability": "view",
      "type": "function"
    },
    {
      "inputs": [
        {
          "internalType": "address",
          "name": "account",
          "type": "address"
        },
        {
          "internalType": "uint256[]",
          "name": "tokenIds",
          "type": "uint256[]"
        },
        {
          "internalType": "uint256",
          "name": "location",
          "type": "uint256"
        },
        {
          "internalType": "uint256",
          "name": "amount",
          "type": "uint256"
        }
      ],
      "name": "burnKeycard",
      "outputs": [],
      "stateMutability": "nonpayable",
      "type": "function"
    },
    {
      "inputs": [
        {
          "internalType": "address[]",
          "name": "_addresses",
          "type": "address[]"
        },
        {
          "internalType": "uint256",
          "name": "_id",
          "type": "uint256"
        }
      ],
      "name": "giveways",
      "outputs": [],
      "stateMutability": "nonpayable",
      "type": "function"
    },
    {
      "inputs": [],
      "name": "init",
      "outputs": [],
      "stateMutability": "nonpayable",
      "type": "function"
    },
    {
      "inputs": [
        {
          "internalType": "address",
          "name": "account",
          "type": "address"
        },
        {
          "internalType": "address",
          "name": "operator",
          "type": "address"
        }
      ],
      "name": "isApprovedForAll",
      "outputs": [
        {
          "internalType": "bool",
          "name": "",
          "type": "bool"
        }
      ],
      "stateMutability": "view",
      "type": "function"
    },
    {
      "inputs": [
        {
          "internalType": "address",
          "name": "_account",
          "type": "address"
        },
        {
          "internalType": "uint256",
          "name": "_id",
          "type": "uint256"
        },
        {
          "internalType": "uint256",
          "name": "_amount",
          "type": "uint256"
        }
      ],
      "name": "mint",
      "outputs": [],
      "stateMutability": "nonpayable",
      "type": "function"
    },
    {
      "inputs": [],
      "name": "owner",
      "outputs": [
        {
          "internalType": "address",
          "name": "",
          "type": "address"
        }
      ],
      "stateMutability": "view",
      "type": "function"
    },
    {
      "inputs": [],
      "name": "paused",
      "outputs": [
        {
          "internalType": "bool",
          "name": "",
          "type": "bool"
        }
      ],
      "stateMutability": "view",
      "type": "function"
    },
    {
      "inputs": [],
      "name": "renounceOwnership",
      "outputs": [],
      "stateMutability": "nonpayable",
      "type": "function"
    },
    {
      "inputs": [
        {
          "internalType": "address",
          "name": "from",
          "type": "address"
        },
        {
          "internalType": "address",
          "name": "to",
          "type": "address"
        },
        {
          "internalType": "uint256[]",
          "name": "ids",
          "type": "uint256[]"
        },
        {
          "internalType": "uint256[]",
          "name": "amounts",
          "type": "uint256[]"
        },
        {
          "internalType": "bytes",
          "name": "data",
          "type": "bytes"
        }
      ],
      "name": "safeBatchTransferFrom",
      "outputs": [],
      "stateMutability": "nonpayable",
      "type": "function"
    },
    {
      "inputs": [
        {
          "internalType": "address",
          "name": "from",
          "type": "address"
        },
        {
          "internalType": "address",
          "name": "to",
          "type": "address"
        },
        {
          "internalType": "uint256",
          "name": "id",
          "type": "uint256"
        },
        {
          "internalType": "uint256",
          "name": "amount",
          "type": "uint256"
        },
        {
          "internalType": "bytes",
          "name": "data",
          "type": "bytes"
        }
      ],
      "name": "safeTransferFrom",
      "outputs": [],
      "stateMutability": "nonpayable",
      "type": "function"
    },
    {
      "inputs": [
        {
          "internalType": "address",
          "name": "operator",
          "type": "address"
        },
        {
          "internalType": "bool",
          "name": "approved",
          "type": "bool"
        }
      ],
      "name": "setApprovalForAll",
      "outputs": [],
      "stateMutability": "nonpayable",
      "type": "function"
    },
    {
      "inputs": [
        {
          "internalType": "bytes4",
          "name": "interfaceId",
          "type": "bytes4"
        }
      ],
      "name": "supportsInterface",
      "outputs": [
        {
          "internalType": "bool",
          "name": "",
          "type": "bool"
        }
      ],
      "stateMutability": "view",
      "type": "function"
    },
    {
      "inputs": [
        {
          "internalType": "address",
          "name": "newOwner",
          "type": "address"
        }
      ],
      "name": "transferOwnership",
      "outputs": [],
      "stateMutability": "nonpayable",
      "type": "function"
    },
    {
      "inputs": [
        {
          "internalType": "uint256",
          "name": "",
          "type": "uint256"
        }
      ],
      "name": "uri",
      "outputs": [
        {
          "internalType": "string",
          "name": "",
          "type": "string"
        }
      ],
      "stateMutability": "view",
      "type": "function"
    }
  ],
  "bytecode": "0x608060405234801561001057600080fd5b506127cb806100206000396000f3fe608060405234801561001057600080fd5b50600436106101355760003560e01c8063a22cb465116100b2578063e985e9c511610081578063f242432a11610066578063f242432a1461029e578063f29ca926146102b1578063f2fde38b146102b957600080fd5b8063e985e9c51461024f578063ea22a1301461028b57600080fd5b8063a22cb46514610219578063df963c431461022c578063e1c7392a14610234578063e2f0af331461023c57600080fd5b80632eb2c2d6116101095780635c975abb116100ee5780635c975abb146101eb578063715018a6146101f65780638da5cb5b146101fe57600080fd5b80632eb2c2d6146101b85780634e1273f4146101cb57600080fd5b8062fdd58e1461013a57806301ffc9a7146101605780630e89341c14610183578063156e29f6146101a3575b600080fd5b61014d610148366004612255565b6102cc565b6040519081526020015b60405180910390f35b61017361016e366004612354565b610377565b6040519015158152602001610157565b61019661019136600461238c565b61045c565b6040516101579190612543565b6101b66101b136600461227e565b6104f0565b005b6101b66101c63660046120b6565b61056a565b6101de6101d93660046122b0565b61060c565b60405161015791906124ca565b60c95460ff16610173565b6101b6610782565b6097546040516001600160a01b039091168152602001610157565b6101b661022736600461221b565b6107e8565b61014d600081565b6101b66108d3565b6101b661024a366004612311565b6109b7565b61017361025d366004612084565b6001600160a01b03918216600090815260666020908152604080832093909416825291909152205460ff1690565b6101b66102993660046121bf565b610a81565b6101b66102ac36600461215c565b610c4d565b61014d600181565b6101b66102c7366004612063565b610ce8565b60006001600160a01b03831661034f5760405162461bcd60e51b815260206004820152602b60248201527f455243313135353a2062616c616e636520717565727920666f7220746865207a60448201527f65726f206164647265737300000000000000000000000000000000000000000060648201526084015b60405180910390fd5b5060009081526065602090815260408083206001600160a01b03949094168352929052205490565b60007fffffffff0000000000000000000000000000000000000000000000000000000082167fd9b67a2600000000000000000000000000000000000000000000000000000000148061040a57507fffffffff0000000000000000000000000000000000000000000000000000000082167f0e89341c00000000000000000000000000000000000000000000000000000000145b8061045657507f01ffc9a7000000000000000000000000000000000000000000000000000000007fffffffff000000000000000000000000000000000000000000000000000000008316145b92915050565b60606067805461046b906125a9565b80601f0160208091040260200160405190810160405280929190818152602001828054610497906125a9565b80156104e45780601f106104b9576101008083540402835291602001916104e4565b820191906000526020600020905b8154815290600101906020018083116104c757829003601f168201915b50505050509050919050565b6097546001600160a01b0316331461054a5760405162461bcd60e51b815260206004820181905260248201527f4f776e61626c653a2063616c6c6572206973206e6f7420746865206f776e65726044820152606401610346565b61056583838360405180602001604052806000815250610dc7565b505050565b6001600160a01b0385163314806105865750610586853361025d565b6105f85760405162461bcd60e51b815260206004820152603260248201527f455243313135353a207472616e736665722063616c6c6572206973206e6f742060448201527f6f776e6572206e6f7220617070726f76656400000000000000000000000000006064820152608401610346565b6106058585858585610eef565b5050505050565b606081518351146106855760405162461bcd60e51b815260206004820152602960248201527f455243313135353a206163636f756e747320616e6420696473206c656e67746860448201527f206d69736d6174636800000000000000000000000000000000000000000000006064820152608401610346565b6000835167ffffffffffffffff8111156106af57634e487b7160e01b600052604160045260246000fd5b6040519080825280602002602001820160405280156106d8578160200160208202803683370190505b50905060005b845181101561077a5761073f85828151811061070a57634e487b7160e01b600052603260045260246000fd5b602002602001015185838151811061073257634e487b7160e01b600052603260045260246000fd5b60200260200101516102cc565b82828151811061075f57634e487b7160e01b600052603260045260246000fd5b602090810291909101015261077381612611565b90506106de565b509392505050565b6097546001600160a01b031633146107dc5760405162461bcd60e51b815260206004820181905260248201527f4f776e61626c653a2063616c6c6572206973206e6f7420746865206f776e65726044820152606401610346565b6107e660006111ac565b565b336001600160a01b03831614156108675760405162461bcd60e51b815260206004820152602960248201527f455243313135353a2073657474696e6720617070726f76616c2073746174757360448201527f20666f722073656c6600000000000000000000000000000000000000000000006064820152608401610346565b3360008181526066602090815260408083206001600160a01b03871680855290835292819020805460ff191686151590811790915590519081529192917f17307eab39ab6107e8899845ad3d59bd9653f200f220920489ca2b5937696c31910160405180910390a35050565b600054610100900460ff16806108ec575060005460ff16155b61094f5760405162461bcd60e51b815260206004820152602e60248201527f496e697469616c697a61626c653a20636f6e747261637420697320616c72656160448201526d191e481a5b9a5d1a585b1a5e995960921b6064820152608401610346565b600054610100900460ff16158015610971576000805461ffff19166101011790555b61099260405180606001604052806031815260200161276560319139611216565b61099a6112e3565b6109a2611391565b80156109b4576000805461ff00191690555b50565b6097546001600160a01b03163314610a115760405162461bcd60e51b815260206004820181905260248201527f4f776e61626c653a2063616c6c6572206973206e6f7420746865206f776e65726044820152606401610346565b60015b8251811161056557600083610a2a600184612592565b81518110610a4857634e487b7160e01b600052603260045260246000fd5b60200260200101519050610a6e8184600160405180602001604052806000815250610dc7565b5080610a7981612611565b915050610a14565b60c95460ff1615610ad45760405162461bcd60e51b815260206004820152601060248201527f5061757361626c653a20706175736564000000000000000000000000000000006044820152606401610346565b336001600160a01b03851614610b525760405162461bcd60e51b815260206004820152603460248201527f5768792061726520796f7520747279696e6720746f206275726e20736f6d656f60448201527f6e6520656c73657320737475666620647564653f0000000000000000000000006064820152608401610346565b600683511115610ba45760405162461bcd60e51b815260206004820152601460248201527f486f7264652073697a6520746f6f206c617267650000000000000000000000006044820152606401610346565b80610bb08560006102cc565b1015610bfe5760405162461bcd60e51b815260206004820152601360248201527f4e6f7420656e6f756768206b65796361726473000000000000000000000000006044820152606401610346565b610c0a8460008361143f565b7f24b15c8cb56751baec0e20d6f12b821fddee5471b874b152c04fc628205682e283833384604051610c3f949392919061250b565b60405180910390a150505050565b6001600160a01b038516331480610c695750610c69853361025d565b610cdb5760405162461bcd60e51b815260206004820152602960248201527f455243313135353a2063616c6c6572206973206e6f74206f776e6572206e6f7260448201527f20617070726f76656400000000000000000000000000000000000000000000006064820152608401610346565b61060585858585856115f0565b6097546001600160a01b03163314610d425760405162461bcd60e51b815260206004820181905260248201527f4f776e61626c653a2063616c6c6572206973206e6f7420746865206f776e65726044820152606401610346565b6001600160a01b038116610dbe5760405162461bcd60e51b815260206004820152602660248201527f4f776e61626c653a206e6577206f776e657220697320746865207a65726f206160448201527f64647265737300000000000000000000000000000000000000000000000000006064820152608401610346565b6109b4816111ac565b6001600160a01b038416610e435760405162461bcd60e51b815260206004820152602160248201527f455243313135353a206d696e7420746f20746865207a65726f2061646472657360448201527f73000000000000000000000000000000000000000000000000000000000000006064820152608401610346565b33610e5d81600087610e54886117bd565b610605886117bd565b60008481526065602090815260408083206001600160a01b038916845290915281208054859290610e8f90849061257a565b909155505060408051858152602081018590526001600160a01b0380881692600092918516917fc3d58168c5ae7397731d063d5bbf3d657854427343f4c083240f7aacaa2d0f62910160405180910390a461060581600087878787611816565b8151835114610f665760405162461bcd60e51b815260206004820152602860248201527f455243313135353a2069647320616e6420616d6f756e7473206c656e6774682060448201527f6d69736d617463680000000000000000000000000000000000000000000000006064820152608401610346565b6001600160a01b038416610fe25760405162461bcd60e51b815260206004820152602560248201527f455243313135353a207472616e7366657220746f20746865207a65726f20616460448201527f64726573730000000000000000000000000000000000000000000000000000006064820152608401610346565b3360005b845181101561113e57600085828151811061101157634e487b7160e01b600052603260045260246000fd5b60200260200101519050600085838151811061103d57634e487b7160e01b600052603260045260246000fd5b60209081029190910181015160008481526065835260408082206001600160a01b038e1683529093529190912054909150818110156110e45760405162461bcd60e51b815260206004820152602a60248201527f455243313135353a20696e73756666696369656e742062616c616e636520666f60448201527f72207472616e73666572000000000000000000000000000000000000000000006064820152608401610346565b60008381526065602090815260408083206001600160a01b038e8116855292528083208585039055908b1682528120805484929061112390849061257a565b925050819055505050508061113790612611565b9050610fe6565b50846001600160a01b0316866001600160a01b0316826001600160a01b03167f4a39dc06d4c0dbc64b70af90fd698a233a518aa5d07e595d983b8c0526c8f7fb878760405161118e9291906124dd565b60405180910390a46111a4818787878787611a2a565b505050505050565b609780546001600160a01b038381167fffffffffffffffffffffffff0000000000000000000000000000000000000000831681179093556040519116919082907f8be0079c531659141344cd1fd0a4f28419497f9722a3daafe3b4186f6b6457e090600090a35050565b600054610100900460ff168061122f575060005460ff16155b6112925760405162461bcd60e51b815260206004820152602e60248201527f496e697469616c697a61626c653a20636f6e747261637420697320616c72656160448201526d191e481a5b9a5d1a585b1a5e995960921b6064820152608401610346565b600054610100900460ff161580156112b4576000805461ffff19166101011790555b6112bc611b94565b6112c4611b94565b6112cd82611c45565b80156112df576000805461ff00191690555b5050565b600054610100900460ff16806112fc575060005460ff16155b61135f5760405162461bcd60e51b815260206004820152602e60248201527f496e697469616c697a61626c653a20636f6e747261637420697320616c72656160448201526d191e481a5b9a5d1a585b1a5e995960921b6064820152608401610346565b600054610100900460ff16158015611381576000805461ffff19166101011790555b611389611b94565b6109a2611cec565b600054610100900460ff16806113aa575060005460ff16155b61140d5760405162461bcd60e51b815260206004820152602e60248201527f496e697469616c697a61626c653a20636f6e747261637420697320616c72656160448201526d191e481a5b9a5d1a585b1a5e995960921b6064820152608401610346565b600054610100900460ff1615801561142f576000805461ffff19166101011790555b611437611b94565b6109a2611d93565b6001600160a01b0383166114bb5760405162461bcd60e51b815260206004820152602360248201527f455243313135353a206275726e2066726f6d20746865207a65726f206164647260448201527f65737300000000000000000000000000000000000000000000000000000000006064820152608401610346565b336114eb818560006114cc876117bd565b6114d5876117bd565b5050604080516020810190915260009052505050565b60008381526065602090815260408083206001600160a01b0388168452909152902054828110156115835760405162461bcd60e51b8152602060048201526024808201527f455243313135353a206275726e20616d6f756e7420657863656564732062616c60448201527f616e6365000000000000000000000000000000000000000000000000000000006064820152608401610346565b60008481526065602090815260408083206001600160a01b03898116808652918452828520888703905582518981529384018890529092908616917fc3d58168c5ae7397731d063d5bbf3d657854427343f4c083240f7aacaa2d0f62910160405180910390a45050505050565b6001600160a01b03841661166c5760405162461bcd60e51b815260206004820152602560248201527f455243313135353a207472616e7366657220746f20746865207a65726f20616460448201527f64726573730000000000000000000000000000000000000000000000000000006064820152608401610346565b3361167c818787610e54886117bd565b60008481526065602090815260408083206001600160a01b038a168452909152902054838110156117155760405162461bcd60e51b815260206004820152602a60248201527f455243313135353a20696e73756666696369656e742062616c616e636520666f60448201527f72207472616e73666572000000000000000000000000000000000000000000006064820152608401610346565b60008581526065602090815260408083206001600160a01b038b811685529252808320878503905590881682528120805486929061175490849061257a565b909155505060408051868152602081018690526001600160a01b03808916928a821692918616917fc3d58168c5ae7397731d063d5bbf3d657854427343f4c083240f7aacaa2d0f62910160405180910390a46117b4828888888888611816565b50505050505050565b6040805160018082528183019092526060916000919060208083019080368337019050509050828160008151811061180557634e487b7160e01b600052603260045260246000fd5b602090810291909101015292915050565b6001600160a01b0384163b156111a4576040517ff23a6e610000000000000000000000000000000000000000000000000000000081526001600160a01b0385169063f23a6e61906118739089908990889088908890600401612487565b602060405180830381600087803b15801561188d57600080fd5b505af19250505080156118bd575060408051601f3d908101601f191682019092526118ba91810190612370565b60015b611973576118c9612676565b806308c379a0141561190357506118de61268e565b806118e95750611905565b8060405162461bcd60e51b81526004016103469190612543565b505b60405162461bcd60e51b815260206004820152603460248201527f455243313135353a207472616e7366657220746f206e6f6e204552433131353560448201527f526563656976657220696d706c656d656e7465720000000000000000000000006064820152608401610346565b7fffffffff0000000000000000000000000000000000000000000000000000000081167ff23a6e6100000000000000000000000000000000000000000000000000000000146117b45760405162461bcd60e51b815260206004820152602860248201527f455243313135353a204552433131353552656365697665722072656a6563746560448201527f6420746f6b656e730000000000000000000000000000000000000000000000006064820152608401610346565b6001600160a01b0384163b156111a4576040517fbc197c810000000000000000000000000000000000000000000000000000000081526001600160a01b0385169063bc197c8190611a879089908990889088908890600401612429565b602060405180830381600087803b158015611aa157600080fd5b505af1925050508015611ad1575060408051601f3d908101601f19168201909252611ace91810190612370565b60015b611add576118c9612676565b7fffffffff0000000000000000000000000000000000000000000000000000000081167fbc197c8100000000000000000000000000000000000000000000000000000000146117b45760405162461bcd60e51b815260206004820152602860248201527f455243313135353a204552433131353552656365697665722072656a6563746560448201527f6420746f6b656e730000000000000000000000000000000000000000000000006064820152608401610346565b600054610100900460ff1680611bad575060005460ff16155b611c105760405162461bcd60e51b815260206004820152602e60248201527f496e697469616c697a61626c653a20636f6e747261637420697320616c72656160448201526d191e481a5b9a5d1a585b1a5e995960921b6064820152608401610346565b600054610100900460ff161580156109a2576000805461ffff191661010117905580156109b4576000805461ff001916905550565b600054610100900460ff1680611c5e575060005460ff16155b611cc15760405162461bcd60e51b815260206004820152602e60248201527f496e697469616c697a61626c653a20636f6e747261637420697320616c72656160448201526d191e481a5b9a5d1a585b1a5e995960921b6064820152608401610346565b600054610100900460ff16158015611ce3576000805461ffff19166101011790555b6112cd82611e4f565b600054610100900460ff1680611d05575060005460ff16155b611d685760405162461bcd60e51b815260206004820152602e60248201527f496e697469616c697a61626c653a20636f6e747261637420697320616c72656160448201526d191e481a5b9a5d1a585b1a5e995960921b6064820152608401610346565b600054610100900460ff16158015611d8a576000805461ffff19166101011790555b6109a2336111ac565b600054610100900460ff1680611dac575060005460ff16155b611e0f5760405162461bcd60e51b815260206004820152602e60248201527f496e697469616c697a61626c653a20636f6e747261637420697320616c72656160448201526d191e481a5b9a5d1a585b1a5e995960921b6064820152608401610346565b600054610100900460ff16158015611e31576000805461ffff19166101011790555b60c9805460ff1916905580156109b4576000805461ff001916905550565b80516112df906067906020840190828054611e69906125a9565b90600052602060002090601f016020900481019282611e8b5760008555611ed1565b82601f10611ea457805160ff1916838001178555611ed1565b82800160010185558215611ed1579182015b82811115611ed1578251825591602001919060010190611eb6565b50611edd929150611ee1565b5090565b5b80821115611edd5760008155600101611ee2565b80356001600160a01b0381168114611f0d57600080fd5b919050565b600082601f830112611f22578081fd5b81356020611f2f82612556565b604051611f3c82826125e4565b8381528281019150858301600585901b87018401881015611f5b578586fd5b855b85811015611f8057611f6e82611ef6565b84529284019290840190600101611f5d565b5090979650505050505050565b600082601f830112611f9d578081fd5b81356020611faa82612556565b604051611fb782826125e4565b8381528281019150858301600585901b87018401881015611fd6578586fd5b855b85811015611f8057813584529284019290840190600101611fd8565b600082601f830112612004578081fd5b813567ffffffffffffffff81111561201e5761201e612660565b6040516120356020601f19601f85011601826125e4565b818152846020838601011115612049578283fd5b816020850160208301379081016020019190915292915050565b600060208284031215612074578081fd5b61207d82611ef6565b9392505050565b60008060408385031215612096578081fd5b61209f83611ef6565b91506120ad60208401611ef6565b90509250929050565b600080600080600060a086880312156120cd578081fd5b6120d686611ef6565b94506120e460208701611ef6565b9350604086013567ffffffffffffffff80821115612100578283fd5b61210c89838a01611f8d565b94506060880135915080821115612121578283fd5b61212d89838a01611f8d565b93506080880135915080821115612142578283fd5b5061214f88828901611ff4565b9150509295509295909350565b600080600080600060a08688031215612173578081fd5b61217c86611ef6565b945061218a60208701611ef6565b93506040860135925060608601359150608086013567ffffffffffffffff8111156121b3578182fd5b61214f88828901611ff4565b600080600080608085870312156121d4578384fd5b6121dd85611ef6565b9350602085013567ffffffffffffffff8111156121f8578384fd5b61220487828801611f8d565b949794965050505060408301359260600135919050565b6000806040838503121561222d578182fd5b61223683611ef6565b91506020830135801515811461224a578182fd5b809150509250929050565b60008060408385031215612267578182fd5b61227083611ef6565b946020939093013593505050565b600080600060608486031215612292578283fd5b61229b84611ef6565b95602085013595506040909401359392505050565b600080604083850312156122c2578081fd5b823567ffffffffffffffff808211156122d9578283fd5b6122e586838701611f12565b935060208501359150808211156122fa578283fd5b5061230785828601611f8d565b9150509250929050565b60008060408385031215612323578182fd5b823567ffffffffffffffff811115612339578283fd5b61234585828601611f12565b95602094909401359450505050565b600060208284031215612365578081fd5b813561207d81612736565b600060208284031215612381578081fd5b815161207d81612736565b60006020828403121561239d578081fd5b5035919050565b6000815180845260208085019450808401835b838110156123d3578151875295820195908201906001016123b7565b509495945050505050565b60008151808452815b81811015612403576020818501810151868301820152016123e7565b818111156124145782602083870101525b50601f01601f19169290920160200192915050565b60006001600160a01b03808816835280871660208401525060a0604083015261245560a08301866123a4565b828103606084015261246781866123a4565b9050828103608084015261247b81856123de565b98975050505050505050565b60006001600160a01b03808816835280871660208401525084604083015283606083015260a060808301526124bf60a08301846123de565b979650505050505050565b60208152600061207d60208301846123a4565b6040815260006124f060408301856123a4565b828103602084015261250281856123a4565b95945050505050565b60808152600061251e60808301876123a4565b6020830195909552506001600160a01b03929092166040830152606090910152919050565b60208152600061207d60208301846123de565b600067ffffffffffffffff82111561257057612570612660565b5060051b60200190565b6000821982111561258d5761258d61264a565b500190565b6000828210156125a4576125a461264a565b500390565b600181811c908216806125bd57607f821691505b602082108114156125de57634e487b7160e01b600052602260045260246000fd5b50919050565b601f19601f830116810181811067ffffffffffffffff8211171561260a5761260a612660565b6040525050565b60007fffffffffffffffffffffffffffffffffffffffffffffffffffffffffffffffff8214156126435761264361264a565b5060010190565b634e487b7160e01b600052601160045260246000fd5b634e487b7160e01b600052604160045260246000fd5b600060033d111561268b57600481823e5160e01c5b90565b600060443d101561269c5790565b6040517ffffffffffffffffffffffffffffffffffffffffffffffffffffffffffffffffc803d016004833e81513d67ffffffffffffffff81602484011181841117156126ea57505050505090565b82850191508151818111156127025750505050505090565b843d870101602082850101111561271c5750505050505090565b61272b602082860101876125e4565b509095945050505050565b7fffffffff00000000000000000000000000000000000000000000000000000000811681146109b457600080fdfe68747470733a2f2f696d616765732e6e69636566756e7a6f6d626965732e696f2f746f6b656e732f7b69647d2e6a736f6ea2646970667358221220141b8ccc646db0bfe7cba3d252f1390bc76ea8a7a0a59752876e7a98db49f4a564736f6c63430008040033",
  "linkReferences": {},
  "deployedLinkReferences": {}
}