{
  "_format": "hh-sol-artifact-1",
  "contractName": "NFZMechanicTokens",
  "sourceName": "contracts/NFZCommunityTokens.sol",
  "abi": [
    {
      "anonymous": false,
      "inputs": [
        {
          "indexed": true,
          "internalType": "address",
          "name": "account",
          "type": "address"
        },
        {
          "indexed": true,
          "internalType": "address",
          "name": "operator",
          "type": "address"
        },
        {
          "indexed": false,
          "internalType": "bool",
          "name": "approved",
          "type": "bool"
        }
      ],
      "name": "ApprovalForAll",
      "type": "event"
    },
    {
      "anonymous": false,
      "inputs": [
        {
          "indexed": false,
          "internalType": "uint256[]",
          "name": "tokenIds",
          "type": "uint256[]"
        },
        {
          "indexed": false,
          "internalType": "uint256",
          "name": "location",
          "type": "uint256"
        },
        {
          "indexed": false,
          "internalType": "address",
          "name": "from",
          "type": "address"
        },
        {
          "indexed": false,
          "internalType": "uint256",
          "name": "amount",
          "type": "uint256"
        }
      ],
      "name": "EnewLocation",
      "type": "event"
    },
    {
      "anonymous": false,
      "inputs": [
        {
          "indexed": true,
          "internalType": "address",
          "name": "previousOwner",
          "type": "address"
        },
        {
          "indexed": true,
          "internalType": "address",
          "name": "newOwner",
          "type": "address"
        }
      ],
      "name": "OwnershipTransferred",
      "type": "event"
    },
    {
      "anonymous": false,
      "inputs": [
        {
          "indexed": true,
          "internalType": "address",
          "name": "operator",
          "type": "address"
        },
        {
          "indexed": true,
          "internalType": "address",
          "name": "from",
          "type": "address"
        },
        {
          "indexed": true,
          "internalType": "address",
          "name": "to",
          "type": "address"
        },
        {
          "indexed": false,
          "internalType": "uint256[]",
          "name": "ids",
          "type": "uint256[]"
        },
        {
          "indexed": false,
          "internalType": "uint256[]",
          "name": "values",
          "type": "uint256[]"
        }
      ],
      "name": "TransferBatch",
      "type": "event"
    },
    {
      "anonymous": false,
      "inputs": [
        {
          "indexed": true,
          "internalType": "address",
          "name": "operator",
          "type": "address"
        },
        {
          "indexed": true,
          "internalType": "address",
          "name": "from",
          "type": "address"
        },
        {
          "indexed": true,
          "internalType": "address",
          "name": "to",
          "type": "address"
        },
        {
          "indexed": false,
          "internalType": "uint256",
          "name": "id",
          "type": "uint256"
        },
        {
          "indexed": false,
          "internalType": "uint256",
          "name": "value",
          "type": "uint256"
        }
      ],
      "name": "TransferSingle",
      "type": "event"
    },
    {
      "anonymous": false,
      "inputs": [
        {
          "indexed": false,
          "internalType": "string",
          "name": "value",
          "type": "string"
        },
        {
          "indexed": true,
          "internalType": "uint256",
          "name": "id",
          "type": "uint256"
        }
      ],
      "name": "URI",
      "type": "event"
    },
    {
      "inputs": [],
      "name": "COMIC_ONE",
      "outputs": [
        {
          "internalType": "uint256",
          "name": "",
          "type": "uint256"
        }
      ],
      "stateMutability": "view",
      "type": "function"
    },
    {
      "inputs": [],
      "name": "KEYCARD",
      "outputs": [
        {
          "internalType": "uint256",
          "name": "",
          "type": "uint256"
        }
      ],
      "stateMutability": "view",
      "type": "function"
    },
    {
      "inputs": [
        {
          "internalType": "address",
          "name": "account",
          "type": "address"
        },
        {
          "internalType": "uint256",
          "name": "id",
          "type": "uint256"
        }
      ],
      "name": "balanceOf",
      "outputs": [
        {
          "internalType": "uint256",
          "name": "",
          "type": "uint256"
        }
      ],
      "stateMutability": "view",
      "type": "function"
    },
    {
      "inputs": [
        {
          "internalType": "address[]",
          "name": "accounts",
          "type": "address[]"
        },
        {
          "internalType": "uint256[]",
          "name": "ids",
          "type": "uint256[]"
        }
      ],
      "name": "balanceOfBatch",
      "outputs": [
        {
          "internalType": "uint256[]",
          "name": "",
          "type": "uint256[]"
        }
      ],
      "stateMutability": "view",
      "type": "function"
    },
    {
      "inputs": [
        {
          "internalType": "address",
          "name": "account",
          "type": "address"
        },
        {
          "internalType": "uint256[]",
          "name": "tokenIds",
          "type": "uint256[]"
        },
        {
          "internalType": "uint256",
          "name": "location",
          "type": "uint256"
        },
        {
          "internalType": "uint256",
          "name": "amount",
          "type": "uint256"
        }
      ],
      "name": "burnKeycard",
      "outputs": [],
      "stateMutability": "nonpayable",
      "type": "function"
    },
    {
      "inputs": [],
      "name": "distributeKeyCards",
      "outputs": [],
      "stateMutability": "nonpayable",
      "type": "function"
    },
    {
      "inputs": [],
      "name": "init",
      "outputs": [],
      "stateMutability": "nonpayable",
      "type": "function"
    },
    {
      "inputs": [
        {
          "internalType": "address",
          "name": "account",
          "type": "address"
        },
        {
          "internalType": "address",
          "name": "operator",
          "type": "address"
        }
      ],
      "name": "isApprovedForAll",
      "outputs": [
        {
          "internalType": "bool",
          "name": "",
          "type": "bool"
        }
      ],
      "stateMutability": "view",
      "type": "function"
    },
    {
      "inputs": [
        {
          "internalType": "address",
          "name": "_account",
          "type": "address"
        },
        {
          "internalType": "uint256",
          "name": "_id",
          "type": "uint256"
        },
        {
          "internalType": "uint256",
          "name": "_amount",
          "type": "uint256"
        }
      ],
      "name": "mint",
      "outputs": [],
      "stateMutability": "nonpayable",
      "type": "function"
    },
    {
      "inputs": [],
      "name": "owner",
      "outputs": [
        {
          "internalType": "address",
          "name": "",
          "type": "address"
        }
      ],
      "stateMutability": "view",
      "type": "function"
    },
    {
      "inputs": [],
      "name": "renounceOwnership",
      "outputs": [],
      "stateMutability": "nonpayable",
      "type": "function"
    },
    {
      "inputs": [
        {
          "internalType": "address",
          "name": "from",
          "type": "address"
        },
        {
          "internalType": "address",
          "name": "to",
          "type": "address"
        },
        {
          "internalType": "uint256[]",
          "name": "ids",
          "type": "uint256[]"
        },
        {
          "internalType": "uint256[]",
          "name": "amounts",
          "type": "uint256[]"
        },
        {
          "internalType": "bytes",
          "name": "data",
          "type": "bytes"
        }
      ],
      "name": "safeBatchTransferFrom",
      "outputs": [],
      "stateMutability": "nonpayable",
      "type": "function"
    },
    {
      "inputs": [
        {
          "internalType": "address",
          "name": "from",
          "type": "address"
        },
        {
          "internalType": "address",
          "name": "to",
          "type": "address"
        },
        {
          "internalType": "uint256",
          "name": "id",
          "type": "uint256"
        },
        {
          "internalType": "uint256",
          "name": "amount",
          "type": "uint256"
        },
        {
          "internalType": "bytes",
          "name": "data",
          "type": "bytes"
        }
      ],
      "name": "safeTransferFrom",
      "outputs": [],
      "stateMutability": "nonpayable",
      "type": "function"
    },
    {
      "inputs": [
        {
          "internalType": "address",
          "name": "operator",
          "type": "address"
        },
        {
          "internalType": "bool",
          "name": "approved",
          "type": "bool"
        }
      ],
      "name": "setApprovalForAll",
      "outputs": [],
      "stateMutability": "nonpayable",
      "type": "function"
    },
    {
      "inputs": [
        {
          "internalType": "bytes4",
          "name": "interfaceId",
          "type": "bytes4"
        }
      ],
      "name": "supportsInterface",
      "outputs": [
        {
          "internalType": "bool",
          "name": "",
          "type": "bool"
        }
      ],
      "stateMutability": "view",
      "type": "function"
    },
    {
      "inputs": [
        {
          "internalType": "address",
          "name": "newOwner",
          "type": "address"
        }
      ],
      "name": "transferOwnership",
      "outputs": [],
      "stateMutability": "nonpayable",
      "type": "function"
    },
    {
      "inputs": [
        {
          "internalType": "uint256",
          "name": "",
          "type": "uint256"
        }
      ],
      "name": "uri",
      "outputs": [
        {
          "internalType": "string",
          "name": "",
          "type": "string"
        }
      ],
      "stateMutability": "view",
      "type": "function"
    }
  ],
  "bytecode": "0x608060405234801561001057600080fd5b506124f1806100206000396000f3fe608060405234801561001057600080fd5b506004361061011a5760003560e01c8063a22cb465116100b2578063e985e9c511610081578063f242432a11610066578063f242432a1461026d578063f29ca92614610280578063f2fde38b1461028857600080fd5b8063e985e9c51461021e578063ea22a1301461025a57600080fd5b8063a22cb465146101f3578063d337b8d614610206578063df963c431461020e578063e1c7392a1461021657600080fd5b80632eb2c2d6116100ee5780632eb2c2d61461019d5780634e1273f4146101b0578063715018a6146101d05780638da5cb5b146101d857600080fd5b8062fdd58e1461011f57806301ffc9a7146101455780630e89341c14610168578063156e29f614610188575b600080fd5b61013261012d366004611f6b565b61029b565b6040519081526020015b60405180910390f35b610158610153366004612091565b610346565b604051901515815260200161013c565b61017b6101763660046120c9565b61042b565b60405161013c9190612280565b61019b610196366004611f94565b6104bf565b005b61019b6101ab366004611dcc565b610539565b6101c36101be366004611fc6565b6105db565b60405161013c9190612207565b61019b610751565b6097546040516001600160a01b03909116815260200161013c565b61019b610201366004611f31565b6107b7565b61019b6108c0565b610132600081565b61019b61091a565b61015861022c366004611d9a565b6001600160a01b03918216600090815260666020908152604080832093909416825291909152205460ff1690565b61019b610268366004611ed5565b610a14565b61019b61027b366004611e72565b610b3b565b610132600181565b61019b610296366004611d79565b610bd6565b60006001600160a01b03831661031e5760405162461bcd60e51b815260206004820152602b60248201527f455243313135353a2062616c616e636520717565727920666f7220746865207a60448201527f65726f206164647265737300000000000000000000000000000000000000000060648201526084015b60405180910390fd5b5060009081526065602090815260408083206001600160a01b03949094168352929052205490565b60007fffffffff0000000000000000000000000000000000000000000000000000000082167fd9b67a260000000000000000000000000000000000000000000000000000000014806103d957507fffffffff0000000000000000000000000000000000000000000000000000000082167f0e89341c00000000000000000000000000000000000000000000000000000000145b8061042557507f01ffc9a7000000000000000000000000000000000000000000000000000000007fffffffff000000000000000000000000000000000000000000000000000000008316145b92915050565b60606067805461043a906122cf565b80601f0160208091040260200160405190810160405280929190818152602001828054610466906122cf565b80156104b35780601f10610488576101008083540402835291602001916104b3565b820191906000526020600020905b81548152906001019060200180831161049657829003601f168201915b50505050509050919050565b6097546001600160a01b031633146105195760405162461bcd60e51b815260206004820181905260248201527f4f776e61626c653a2063616c6c6572206973206e6f7420746865206f776e65726044820152606401610315565b61053483838360405180602001604052806000815250610cb5565b505050565b6001600160a01b0385163314806105555750610555853361022c565b6105c75760405162461bcd60e51b815260206004820152603260248201527f455243313135353a207472616e736665722063616c6c6572206973206e6f742060448201527f6f776e6572206e6f7220617070726f76656400000000000000000000000000006064820152608401610315565b6105d48585858585610ddd565b5050505050565b606081518351146106545760405162461bcd60e51b815260206004820152602960248201527f455243313135353a206163636f756e747320616e6420696473206c656e67746860448201527f206d69736d6174636800000000000000000000000000000000000000000000006064820152608401610315565b6000835167ffffffffffffffff81111561067e57634e487b7160e01b600052604160045260246000fd5b6040519080825280602002602001820160405280156106a7578160200160208202803683370190505b50905060005b84518110156107495761070e8582815181106106d957634e487b7160e01b600052603260045260246000fd5b602002602001015185838151811061070157634e487b7160e01b600052603260045260246000fd5b602002602001015161029b565b82828151811061072e57634e487b7160e01b600052603260045260246000fd5b602090810291909101015261074281612337565b90506106ad565b509392505050565b6097546001600160a01b031633146107ab5760405162461bcd60e51b815260206004820181905260248201527f4f776e61626c653a2063616c6c6572206973206e6f7420746865206f776e65726044820152606401610315565b6107b5600061109a565b565b336001600160a01b03831614156108365760405162461bcd60e51b815260206004820152602960248201527f455243313135353a2073657474696e6720617070726f76616c2073746174757360448201527f20666f722073656c6600000000000000000000000000000000000000000000006064820152608401610315565b3360008181526066602090815260408083206001600160a01b0387168085529083529281902080547fffffffffffffffffffffffffffffffffffffffffffffffffffffffffffffff001686151590811790915590519081529192917f17307eab39ab6107e8899845ad3d59bd9653f200f220920489ca2b5937696c31910160405180910390a35050565b6097546001600160a01b031633146107b55760405162461bcd60e51b815260206004820181905260248201527f4f776e61626c653a2063616c6c6572206973206e6f7420746865206f776e65726044820152606401610315565b600054610100900460ff1680610933575060005460ff16155b6109965760405162461bcd60e51b815260206004820152602e60248201527f496e697469616c697a61626c653a20636f6e747261637420697320616c72656160448201526d191e481a5b9a5d1a585b1a5e995960921b6064820152608401610315565b600054610100900460ff161580156109b8576000805461ffff19166101011790555b6109d960405180606001604052806031815260200161248b60319139611104565b6109e16111d1565b6109ff33600061012c60405180602001604052806000815250610cb5565b8015610a11576000805461ff00191690555b50565b336001600160a01b03851614610a925760405162461bcd60e51b815260206004820152603460248201527f5768792061726520796f7520747279696e6720746f206275726e20736f6d656f60448201527f6e6520656c73657320737475666620647564653f0000000000000000000000006064820152608401610315565b80610a9e85600061029b565b1015610aec5760405162461bcd60e51b815260206004820152601360248201527f4e6f7420656e6f756768206b65796361726473000000000000000000000000006044820152606401610315565b610af88460008361127f565b7fb463394e1a6c72a054c680661287fa9fdf086b37244803a107fff2d232a8efa783833384604051610b2d9493929190612248565b60405180910390a150505050565b6001600160a01b038516331480610b575750610b57853361022c565b610bc95760405162461bcd60e51b815260206004820152602960248201527f455243313135353a2063616c6c6572206973206e6f74206f776e6572206e6f7260448201527f20617070726f76656400000000000000000000000000000000000000000000006064820152608401610315565b6105d48585858585611430565b6097546001600160a01b03163314610c305760405162461bcd60e51b815260206004820181905260248201527f4f776e61626c653a2063616c6c6572206973206e6f7420746865206f776e65726044820152606401610315565b6001600160a01b038116610cac5760405162461bcd60e51b815260206004820152602660248201527f4f776e61626c653a206e6577206f776e657220697320746865207a65726f206160448201527f64647265737300000000000000000000000000000000000000000000000000006064820152608401610315565b610a118161109a565b6001600160a01b038416610d315760405162461bcd60e51b815260206004820152602160248201527f455243313135353a206d696e7420746f20746865207a65726f2061646472657360448201527f73000000000000000000000000000000000000000000000000000000000000006064820152608401610315565b33610d4b81600087610d42886115fd565b6105d4886115fd565b60008481526065602090815260408083206001600160a01b038916845290915281208054859290610d7d9084906122b7565b909155505060408051858152602081018590526001600160a01b0380881692600092918516917fc3d58168c5ae7397731d063d5bbf3d657854427343f4c083240f7aacaa2d0f62910160405180910390a46105d481600087878787611656565b8151835114610e545760405162461bcd60e51b815260206004820152602860248201527f455243313135353a2069647320616e6420616d6f756e7473206c656e6774682060448201527f6d69736d617463680000000000000000000000000000000000000000000000006064820152608401610315565b6001600160a01b038416610ed05760405162461bcd60e51b815260206004820152602560248201527f455243313135353a207472616e7366657220746f20746865207a65726f20616460448201527f64726573730000000000000000000000000000000000000000000000000000006064820152608401610315565b3360005b845181101561102c576000858281518110610eff57634e487b7160e01b600052603260045260246000fd5b602002602001015190506000858381518110610f2b57634e487b7160e01b600052603260045260246000fd5b60209081029190910181015160008481526065835260408082206001600160a01b038e168352909352919091205490915081811015610fd25760405162461bcd60e51b815260206004820152602a60248201527f455243313135353a20696e73756666696369656e742062616c616e636520666f60448201527f72207472616e73666572000000000000000000000000000000000000000000006064820152608401610315565b60008381526065602090815260408083206001600160a01b038e8116855292528083208585039055908b168252812080548492906110119084906122b7565b925050819055505050508061102590612337565b9050610ed4565b50846001600160a01b0316866001600160a01b0316826001600160a01b03167f4a39dc06d4c0dbc64b70af90fd698a233a518aa5d07e595d983b8c0526c8f7fb878760405161107c92919061221a565b60405180910390a461109281878787878761186a565b505050505050565b609780546001600160a01b038381167fffffffffffffffffffffffff0000000000000000000000000000000000000000831681179093556040519116919082907f8be0079c531659141344cd1fd0a4f28419497f9722a3daafe3b4186f6b6457e090600090a35050565b600054610100900460ff168061111d575060005460ff16155b6111805760405162461bcd60e51b815260206004820152602e60248201527f496e697469616c697a61626c653a20636f6e747261637420697320616c72656160448201526d191e481a5b9a5d1a585b1a5e995960921b6064820152608401610315565b600054610100900460ff161580156111a2576000805461ffff19166101011790555b6111aa6119d4565b6111b26119d4565b6111bb82611a85565b80156111cd576000805461ff00191690555b5050565b600054610100900460ff16806111ea575060005460ff16155b61124d5760405162461bcd60e51b815260206004820152602e60248201527f496e697469616c697a61626c653a20636f6e747261637420697320616c72656160448201526d191e481a5b9a5d1a585b1a5e995960921b6064820152608401610315565b600054610100900460ff1615801561126f576000805461ffff19166101011790555b6112776119d4565b6109ff611b2c565b6001600160a01b0383166112fb5760405162461bcd60e51b815260206004820152602360248201527f455243313135353a206275726e2066726f6d20746865207a65726f206164647260448201527f65737300000000000000000000000000000000000000000000000000000000006064820152608401610315565b3361132b8185600061130c876115fd565b611315876115fd565b5050604080516020810190915260009052505050565b60008381526065602090815260408083206001600160a01b0388168452909152902054828110156113c35760405162461bcd60e51b8152602060048201526024808201527f455243313135353a206275726e20616d6f756e7420657863656564732062616c60448201527f616e6365000000000000000000000000000000000000000000000000000000006064820152608401610315565b60008481526065602090815260408083206001600160a01b03898116808652918452828520888703905582518981529384018890529092908616917fc3d58168c5ae7397731d063d5bbf3d657854427343f4c083240f7aacaa2d0f62910160405180910390a45050505050565b6001600160a01b0384166114ac5760405162461bcd60e51b815260206004820152602560248201527f455243313135353a207472616e7366657220746f20746865207a65726f20616460448201527f64726573730000000000000000000000000000000000000000000000000000006064820152608401610315565b336114bc818787610d42886115fd565b60008481526065602090815260408083206001600160a01b038a168452909152902054838110156115555760405162461bcd60e51b815260206004820152602a60248201527f455243313135353a20696e73756666696369656e742062616c616e636520666f60448201527f72207472616e73666572000000000000000000000000000000000000000000006064820152608401610315565b60008581526065602090815260408083206001600160a01b038b81168552925280832087850390559088168252812080548692906115949084906122b7565b909155505060408051868152602081018690526001600160a01b03808916928a821692918616917fc3d58168c5ae7397731d063d5bbf3d657854427343f4c083240f7aacaa2d0f62910160405180910390a46115f4828888888888611656565b50505050505050565b6040805160018082528183019092526060916000919060208083019080368337019050509050828160008151811061164557634e487b7160e01b600052603260045260246000fd5b602090810291909101015292915050565b6001600160a01b0384163b15611092576040517ff23a6e610000000000000000000000000000000000000000000000000000000081526001600160a01b0385169063f23a6e61906116b390899089908890889088906004016121c4565b602060405180830381600087803b1580156116cd57600080fd5b505af19250505080156116fd575060408051601f3d908101601f191682019092526116fa918101906120ad565b60015b6117b35761170961239c565b806308c379a01415611743575061171e6123b4565b806117295750611745565b8060405162461bcd60e51b81526004016103159190612280565b505b60405162461bcd60e51b815260206004820152603460248201527f455243313135353a207472616e7366657220746f206e6f6e204552433131353560448201527f526563656976657220696d706c656d656e7465720000000000000000000000006064820152608401610315565b7fffffffff0000000000000000000000000000000000000000000000000000000081167ff23a6e6100000000000000000000000000000000000000000000000000000000146115f45760405162461bcd60e51b815260206004820152602860248201527f455243313135353a204552433131353552656365697665722072656a6563746560448201527f6420746f6b656e730000000000000000000000000000000000000000000000006064820152608401610315565b6001600160a01b0384163b15611092576040517fbc197c810000000000000000000000000000000000000000000000000000000081526001600160a01b0385169063bc197c81906118c79089908990889088908890600401612166565b602060405180830381600087803b1580156118e157600080fd5b505af1925050508015611911575060408051601f3d908101601f1916820190925261190e918101906120ad565b60015b61191d5761170961239c565b7fffffffff0000000000000000000000000000000000000000000000000000000081167fbc197c8100000000000000000000000000000000000000000000000000000000146115f45760405162461bcd60e51b815260206004820152602860248201527f455243313135353a204552433131353552656365697665722072656a6563746560448201527f6420746f6b656e730000000000000000000000000000000000000000000000006064820152608401610315565b600054610100900460ff16806119ed575060005460ff16155b611a505760405162461bcd60e51b815260206004820152602e60248201527f496e697469616c697a61626c653a20636f6e747261637420697320616c72656160448201526d191e481a5b9a5d1a585b1a5e995960921b6064820152608401610315565b600054610100900460ff161580156109ff576000805461ffff19166101011790558015610a11576000805461ff001916905550565b600054610100900460ff1680611a9e575060005460ff16155b611b015760405162461bcd60e51b815260206004820152602e60248201527f496e697469616c697a61626c653a20636f6e747261637420697320616c72656160448201526d191e481a5b9a5d1a585b1a5e995960921b6064820152608401610315565b600054610100900460ff16158015611b23576000805461ffff19166101011790555b6111bb82611bd3565b600054610100900460ff1680611b45575060005460ff16155b611ba85760405162461bcd60e51b815260206004820152602e60248201527f496e697469616c697a61626c653a20636f6e747261637420697320616c72656160448201526d191e481a5b9a5d1a585b1a5e995960921b6064820152608401610315565b600054610100900460ff16158015611bca576000805461ffff19166101011790555b6109ff3361109a565b80516111cd906067906020840190828054611bed906122cf565b90600052602060002090601f016020900481019282611c0f5760008555611c55565b82601f10611c2857805160ff1916838001178555611c55565b82800160010185558215611c55579182015b82811115611c55578251825591602001919060010190611c3a565b50611c61929150611c65565b5090565b5b80821115611c615760008155600101611c66565b80356001600160a01b0381168114611c9157600080fd5b919050565b600082601f830112611ca6578081fd5b81356020611cb382612293565b604051611cc0828261230a565b8381528281019150858301600585901b87018401881015611cdf578586fd5b855b85811015611cfd57813584529284019290840190600101611ce1565b5090979650505050505050565b600082601f830112611d1a578081fd5b813567ffffffffffffffff811115611d3457611d34612386565b604051611d4b6020601f19601f850116018261230a565b818152846020838601011115611d5f578283fd5b816020850160208301379081016020019190915292915050565b600060208284031215611d8a578081fd5b611d9382611c7a565b9392505050565b60008060408385031215611dac578081fd5b611db583611c7a565b9150611dc360208401611c7a565b90509250929050565b600080600080600060a08688031215611de3578081fd5b611dec86611c7a565b9450611dfa60208701611c7a565b9350604086013567ffffffffffffffff80821115611e16578283fd5b611e2289838a01611c96565b94506060880135915080821115611e37578283fd5b611e4389838a01611c96565b93506080880135915080821115611e58578283fd5b50611e6588828901611d0a565b9150509295509295909350565b600080600080600060a08688031215611e89578081fd5b611e9286611c7a565b9450611ea060208701611c7a565b93506040860135925060608601359150608086013567ffffffffffffffff811115611ec9578182fd5b611e6588828901611d0a565b60008060008060808587031215611eea578384fd5b611ef385611c7a565b9350602085013567ffffffffffffffff811115611f0e578384fd5b611f1a87828801611c96565b949794965050505060408301359260600135919050565b60008060408385031215611f43578182fd5b611f4c83611c7a565b915060208301358015158114611f60578182fd5b809150509250929050565b60008060408385031215611f7d578182fd5b611f8683611c7a565b946020939093013593505050565b600080600060608486031215611fa8578283fd5b611fb184611c7a565b95602085013595506040909401359392505050565b60008060408385031215611fd8578081fd5b823567ffffffffffffffff80821115611fef578283fd5b818501915085601f830112612002578283fd5b8135602061200f82612293565b60405161201c828261230a565b8381528281019150858301600585901b870184018b101561203b578788fd5b8796505b848710156120645761205081611c7a565b83526001969096019591830191830161203f565b509650508601359250508082111561207a578283fd5b5061208785828601611c96565b9150509250929050565b6000602082840312156120a2578081fd5b8135611d938161245c565b6000602082840312156120be578081fd5b8151611d938161245c565b6000602082840312156120da578081fd5b5035919050565b6000815180845260208085019450808401835b83811015612110578151875295820195908201906001016120f4565b509495945050505050565b60008151808452815b8181101561214057602081850181015186830182015201612124565b818111156121515782602083870101525b50601f01601f19169290920160200192915050565b60006001600160a01b03808816835280871660208401525060a0604083015261219260a08301866120e1565b82810360608401526121a481866120e1565b905082810360808401526121b8818561211b565b98975050505050505050565b60006001600160a01b03808816835280871660208401525084604083015283606083015260a060808301526121fc60a083018461211b565b979650505050505050565b602081526000611d9360208301846120e1565b60408152600061222d60408301856120e1565b828103602084015261223f81856120e1565b95945050505050565b60808152600061225b60808301876120e1565b6020830195909552506001600160a01b03929092166040830152606090910152919050565b602081526000611d93602083018461211b565b600067ffffffffffffffff8211156122ad576122ad612386565b5060051b60200190565b600082198211156122ca576122ca612370565b500190565b600181811c908216806122e357607f821691505b6020821081141561230457634e487b7160e01b600052602260045260246000fd5b50919050565b601f19601f830116810181811067ffffffffffffffff8211171561233057612330612386565b6040525050565b60007fffffffffffffffffffffffffffffffffffffffffffffffffffffffffffffffff82141561236957612369612370565b5060010190565b634e487b7160e01b600052601160045260246000fd5b634e487b7160e01b600052604160045260246000fd5b600060033d11156123b157600481823e5160e01c5b90565b600060443d10156123c25790565b6040517ffffffffffffffffffffffffffffffffffffffffffffffffffffffffffffffffc803d016004833e81513d67ffffffffffffffff816024840111818411171561241057505050505090565b82850191508151818111156124285750505050505090565b843d87010160208285010111156124425750505050505090565b6124516020828601018761230a565b509095945050505050565b7fffffffff0000000000000000000000000000000000000000000000000000000081168114610a1157600080fdfe68747470733a2f2f696d616765732e6e69636566756e7a6f6d626965732e696f2f746f6b656e732f7b69647d2e6a736f6ea2646970667358221220e600881dbb00e783bb296dbe598cccb087329e632b037a39eac41ae2f5ec58a164736f6c63430008040033",
  "linkReferences": {},
  "deployedLinkReferences": {}
}