{
  "_format": "hh-sol-artifact-1",
  "contractName": "NFZv3",
  "sourceName": "contracts/NFZv3.sol",
  "abi": [
    {
      "anonymous": false,
      "inputs": [
        {
          "indexed": true,
          "internalType": "address",
          "name": "owner",
          "type": "address"
        },
        {
          "indexed": true,
          "internalType": "address",
          "name": "approved",
          "type": "address"
        },
        {
          "indexed": true,
          "internalType": "uint256",
          "name": "tokenId",
          "type": "uint256"
        }
      ],
      "name": "Approval",
      "type": "event"
    },
    {
      "anonymous": false,
      "inputs": [
        {
          "indexed": true,
          "internalType": "address",
          "name": "owner",
          "type": "address"
        },
        {
          "indexed": true,
          "internalType": "address",
          "name": "operator",
          "type": "address"
        },
        {
          "indexed": false,
          "internalType": "bool",
          "name": "approved",
          "type": "bool"
        }
      ],
      "name": "ApprovalForAll",
      "type": "event"
    },
    {
      "anonymous": false,
      "inputs": [
        {
          "indexed": true,
          "internalType": "address",
          "name": "previousOwner",
          "type": "address"
        },
        {
          "indexed": true,
          "internalType": "address",
          "name": "newOwner",
          "type": "address"
        }
      ],
      "name": "OwnershipTransferred",
      "type": "event"
    },
    {
      "anonymous": false,
      "inputs": [
        {
          "indexed": true,
          "internalType": "address",
          "name": "from",
          "type": "address"
        },
        {
          "indexed": true,
          "internalType": "address",
          "name": "to",
          "type": "address"
        },
        {
          "indexed": true,
          "internalType": "uint256",
          "name": "tokenId",
          "type": "uint256"
        }
      ],
      "name": "Transfer",
      "type": "event"
    },
    {
      "inputs": [],
      "name": "MINT_PRICE",
      "outputs": [
        {
          "internalType": "uint256",
          "name": "",
          "type": "uint256"
        }
      ],
      "stateMutability": "view",
      "type": "function"
    },
    {
      "inputs": [
        {
          "internalType": "address",
          "name": "to",
          "type": "address"
        },
        {
          "internalType": "uint256",
          "name": "tokenId",
          "type": "uint256"
        }
      ],
      "name": "approve",
      "outputs": [],
      "stateMutability": "nonpayable",
      "type": "function"
    },
    {
      "inputs": [
        {
          "internalType": "address",
          "name": "owner",
          "type": "address"
        }
      ],
      "name": "balanceOf",
      "outputs": [
        {
          "internalType": "uint256",
          "name": "",
          "type": "uint256"
        }
      ],
      "stateMutability": "view",
      "type": "function"
    },
    {
      "inputs": [
        {
          "internalType": "address",
          "name": "",
          "type": "address"
        }
      ],
      "name": "claimMapping",
      "outputs": [
        {
          "internalType": "bool",
          "name": "",
          "type": "bool"
        }
      ],
      "stateMutability": "view",
      "type": "function"
    },
    {
      "inputs": [],
      "name": "contractURI",
      "outputs": [
        {
          "internalType": "string",
          "name": "",
          "type": "string"
        }
      ],
      "stateMutability": "pure",
      "type": "function"
    },
    {
      "inputs": [
        {
          "internalType": "address",
          "name": "account",
          "type": "address"
        },
        {
          "internalType": "bytes32[]",
          "name": "proof",
          "type": "bytes32[]"
        },
        {
          "internalType": "uint256",
          "name": "tokenId",
          "type": "uint256"
        }
      ],
      "name": "freeClaim",
      "outputs": [],
      "stateMutability": "nonpayable",
      "type": "function"
    },
    {
      "inputs": [
        {
          "internalType": "uint256",
          "name": "tokenId",
          "type": "uint256"
        }
      ],
      "name": "getApproved",
      "outputs": [
        {
          "internalType": "address",
          "name": "",
          "type": "address"
        }
      ],
      "stateMutability": "view",
      "type": "function"
    },
    {
      "inputs": [
        {
          "internalType": "address[]",
          "name": "freeNFZ",
          "type": "address[]"
        }
      ],
      "name": "giveways",
      "outputs": [],
      "stateMutability": "nonpayable",
      "type": "function"
    },
    {
      "inputs": [
        {
          "internalType": "bytes32",
          "name": "wlroot",
          "type": "bytes32"
        },
        {
          "internalType": "bytes32",
          "name": "hmroot",
          "type": "bytes32"
        },
        {
          "internalType": "string",
          "name": "_base",
          "type": "string"
        }
      ],
      "name": "init",
      "outputs": [],
      "stateMutability": "nonpayable",
      "type": "function"
    },
    {
      "inputs": [
        {
          "internalType": "address",
          "name": "owner",
          "type": "address"
        },
        {
          "internalType": "address",
          "name": "operator",
          "type": "address"
        }
      ],
      "name": "isApprovedForAll",
      "outputs": [
        {
          "internalType": "bool",
          "name": "",
          "type": "bool"
        }
      ],
      "stateMutability": "view",
      "type": "function"
    },
    {
      "inputs": [],
      "name": "isLaunched",
      "outputs": [
        {
          "internalType": "bool",
          "name": "",
          "type": "bool"
        }
      ],
      "stateMutability": "view",
      "type": "function"
    },
    {
      "inputs": [],
      "name": "isPresale",
      "outputs": [
        {
          "internalType": "bool",
          "name": "",
          "type": "bool"
        }
      ],
      "stateMutability": "view",
      "type": "function"
    },
    {
      "inputs": [],
      "name": "launchToggle",
      "outputs": [],
      "stateMutability": "nonpayable",
      "type": "function"
    },
    {
      "inputs": [
        {
          "internalType": "address",
          "name": "account",
          "type": "address"
        },
        {
          "internalType": "uint256",
          "name": "_mintAmount",
          "type": "uint256"
        }
      ],
      "name": "mint",
      "outputs": [],
      "stateMutability": "payable",
      "type": "function"
    },
    {
      "inputs": [],
      "name": "name",
      "outputs": [
        {
          "internalType": "string",
          "name": "",
          "type": "string"
        }
      ],
      "stateMutability": "view",
      "type": "function"
    },
    {
      "inputs": [],
      "name": "owner",
      "outputs": [
        {
          "internalType": "address",
          "name": "",
          "type": "address"
        }
      ],
      "stateMutability": "view",
      "type": "function"
    },
    {
      "inputs": [
        {
          "internalType": "uint256",
          "name": "tokenId",
          "type": "uint256"
        }
      ],
      "name": "ownerOf",
      "outputs": [
        {
          "internalType": "address",
          "name": "",
          "type": "address"
        }
      ],
      "stateMutability": "view",
      "type": "function"
    },
    {
      "inputs": [
        {
          "internalType": "uint256",
          "name": "",
          "type": "uint256"
        },
        {
          "internalType": "uint256",
          "name": "",
          "type": "uint256"
        }
      ],
      "name": "passport",
      "outputs": [
        {
          "internalType": "string",
          "name": "locationName",
          "type": "string"
        },
        {
          "internalType": "uint256",
          "name": "locationId",
          "type": "uint256"
        }
      ],
      "stateMutability": "view",
      "type": "function"
    },
    {
      "inputs": [
        {
          "internalType": "address",
          "name": "",
          "type": "address"
        }
      ],
      "name": "preSaleMapping",
      "outputs": [
        {
          "internalType": "bool",
          "name": "",
          "type": "bool"
        }
      ],
      "stateMutability": "view",
      "type": "function"
    },
    {
      "inputs": [],
      "name": "presaleToggle",
      "outputs": [],
      "stateMutability": "nonpayable",
      "type": "function"
    },
    {
      "inputs": [],
      "name": "renounceOwnership",
      "outputs": [],
      "stateMutability": "nonpayable",
      "type": "function"
    },
    {
      "inputs": [
        {
          "internalType": "address",
          "name": "from",
          "type": "address"
        },
        {
          "internalType": "address",
          "name": "to",
          "type": "address"
        },
        {
          "internalType": "uint256",
          "name": "tokenId",
          "type": "uint256"
        }
      ],
      "name": "safeTransferFrom",
      "outputs": [],
      "stateMutability": "nonpayable",
      "type": "function"
    },
    {
      "inputs": [
        {
          "internalType": "address",
          "name": "from",
          "type": "address"
        },
        {
          "internalType": "address",
          "name": "to",
          "type": "address"
        },
        {
          "internalType": "uint256",
          "name": "tokenId",
          "type": "uint256"
        },
        {
          "internalType": "bytes",
          "name": "_data",
          "type": "bytes"
        }
      ],
      "name": "safeTransferFrom",
      "outputs": [],
      "stateMutability": "nonpayable",
      "type": "function"
    },
    {
      "inputs": [
        {
          "internalType": "address",
          "name": "operator",
          "type": "address"
        },
        {
          "internalType": "bool",
          "name": "approved",
          "type": "bool"
        }
      ],
      "name": "setApprovalForAll",
      "outputs": [],
      "stateMutability": "nonpayable",
      "type": "function"
    },
    {
      "inputs": [
        {
          "internalType": "string",
          "name": "_newBaseURI",
          "type": "string"
        }
      ],
      "name": "setBaseURI",
      "outputs": [],
      "stateMutability": "nonpayable",
      "type": "function"
    },
    {
      "inputs": [
        {
          "internalType": "uint256",
          "name": "_price",
          "type": "uint256"
        }
      ],
      "name": "setMintPrice",
      "outputs": [],
      "stateMutability": "nonpayable",
      "type": "function"
    },
    {
      "inputs": [
        {
          "internalType": "bytes4",
          "name": "interfaceId",
          "type": "bytes4"
        }
      ],
      "name": "supportsInterface",
      "outputs": [
        {
          "internalType": "bool",
          "name": "",
          "type": "bool"
        }
      ],
      "stateMutability": "view",
      "type": "function"
    },
    {
      "inputs": [],
      "name": "symbol",
      "outputs": [
        {
          "internalType": "string",
          "name": "",
          "type": "string"
        }
      ],
      "stateMutability": "view",
      "type": "function"
    },
    {
      "inputs": [
        {
          "internalType": "uint256",
          "name": "amount",
          "type": "uint256"
        }
      ],
      "name": "teamMint",
      "outputs": [],
      "stateMutability": "nonpayable",
      "type": "function"
    },
    {
      "inputs": [
        {
          "internalType": "uint256",
          "name": "index",
          "type": "uint256"
        }
      ],
      "name": "tokenByIndex",
      "outputs": [
        {
          "internalType": "uint256",
          "name": "",
          "type": "uint256"
        }
      ],
      "stateMutability": "view",
      "type": "function"
    },
    {
      "inputs": [
        {
          "internalType": "address",
          "name": "owner",
          "type": "address"
        },
        {
          "internalType": "uint256",
          "name": "index",
          "type": "uint256"
        }
      ],
      "name": "tokenOfOwnerByIndex",
      "outputs": [
        {
          "internalType": "uint256",
          "name": "",
          "type": "uint256"
        }
      ],
      "stateMutability": "view",
      "type": "function"
    },
    {
      "inputs": [
        {
          "internalType": "uint256",
          "name": "tokenId",
          "type": "uint256"
        }
      ],
      "name": "tokenURI",
      "outputs": [
        {
          "internalType": "string",
          "name": "",
          "type": "string"
        }
      ],
      "stateMutability": "view",
      "type": "function"
    },
    {
      "inputs": [],
      "name": "totalSupply",
      "outputs": [
        {
          "internalType": "uint256",
          "name": "",
          "type": "uint256"
        }
      ],
      "stateMutability": "view",
      "type": "function"
    },
    {
      "inputs": [
        {
          "internalType": "address",
          "name": "from",
          "type": "address"
        },
        {
          "internalType": "address",
          "name": "to",
          "type": "address"
        },
        {
          "internalType": "uint256",
          "name": "tokenId",
          "type": "uint256"
        }
      ],
      "name": "transferFrom",
      "outputs": [],
      "stateMutability": "nonpayable",
      "type": "function"
    },
    {
      "inputs": [
        {
          "internalType": "address",
          "name": "newOwner",
          "type": "address"
        }
      ],
      "name": "transferOwnership",
      "outputs": [],
      "stateMutability": "nonpayable",
      "type": "function"
    },
    {
      "inputs": [
        {
          "internalType": "string",
          "name": "rootType",
          "type": "string"
        },
        {
          "internalType": "bytes32",
          "name": "root",
          "type": "bytes32"
        }
      ],
      "name": "updateMerkleRoot",
      "outputs": [],
      "stateMutability": "nonpayable",
      "type": "function"
    },
    {
      "inputs": [],
      "name": "withdraw",
      "outputs": [],
      "stateMutability": "payable",
      "type": "function"
    }
  ],
  "bytecode": "0x608060405234801561001057600080fd5b5061358e806100206000396000f3fe60806040526004361061026a5760003560e01c8063598407531161015357806395d89b41116100cb578063e17fd6a01161007f578063e985e9c511610064578063e985e9c5146106a1578063f2fde38b146106ea578063f4a0a5281461070a57600080fd5b8063e17fd6a014610677578063e8a3d4851461068c57600080fd5b8063b88d4fde116100b0578063b88d4fde14610620578063c002d23d14610640578063c87b56dd1461065757600080fd5b806395d89b41146105eb578063a22cb4651461060057600080fd5b8063715018a611610122578063886135d011610107578063886135d0146105935780638da5cb5b146105b357806395364a84146105d157600080fd5b8063715018a61461054d578063719f797f1461056257600080fd5b806359840753146104bf5780636352211e146104df5780636622a45c146104ff57806370a082311461052d57600080fd5b80632f745c59116101e657806340c10f19116101b55780634f6ccce71161019a5780634f6ccce71461045f57806355f804b31461047f578063587a80301461049f57600080fd5b806340c10f191461042c57806342842e0e1461043f57600080fd5b80632f745c59146103c55780632fbba115146103e5578063307aebc9146104055780633ccfd60b1461042457600080fd5b80630c52549b1161023d57806319d35cc11161022257806319d35cc11461037057806323b872dd14610390578063261291fb146103b057600080fd5b80630c52549b1461032057806318160ddd1461035157600080fd5b806301ffc9a71461026f57806306fdde03146102a4578063081812fc146102c6578063095ea7b3146102fe575b600080fd5b34801561027b57600080fd5b5061028f61028a3660046131ca565b61072a565b60405190151581526020015b60405180910390f35b3480156102b057600080fd5b506102b9610786565b60405161029b9190613364565b3480156102d257600080fd5b506102e66102e1366004613278565b610818565b6040516001600160a01b03909116815260200161029b565b34801561030a57600080fd5b5061031e6103193660046130a4565b6108c3565b005b34801561032c57600080fd5b5061028f61033b366004612ee3565b6101016020526000908152604090205460ff1681565b34801561035d57600080fd5b5060cb545b60405190815260200161029b565b34801561037c57600080fd5b5061031e61038b36600461317c565b6109f5565b34801561039c57600080fd5b5061031e6103ab366004612f2f565b610b6b565b3480156103bc57600080fd5b5061031e610bf2565b3480156103d157600080fd5b506103626103e03660046130a4565b610c60565b3480156103f157600080fd5b5061031e610400366004613278565b610d08565b34801561041157600080fd5b5060fb5461028f90610100900460ff1681565b61031e610da9565b61031e61043a3660046130a4565b610e9e565b34801561044b57600080fd5b5061031e61045a366004612f2f565b611066565b34801561046b57600080fd5b5061036261047a366004613278565b611081565b34801561048b57600080fd5b5061031e61049a366004613202565b611149565b3480156104ab57600080fd5b5061031e6104ba366004613235565b6111bb565b3480156104cb57600080fd5b5061031e6104da366004612fe3565b6112d3565b3480156104eb57600080fd5b506102e66104fa366004613278565b6113fc565b34801561050b57600080fd5b5061051f61051a366004613290565b611487565b60405161029b929190613377565b34801561053957600080fd5b50610362610548366004612ee3565b611551565b34801561055957600080fd5b5061031e6115eb565b34801561056e57600080fd5b5061028f61057d366004612ee3565b6101036020526000908152604090205460ff1681565b34801561059f57600080fd5b5061031e6105ae3660046130cd565b611651565b3480156105bf57600080fd5b506033546001600160a01b03166102e6565b3480156105dd57600080fd5b5060fb5461028f9060ff1681565b3480156105f757600080fd5b506102b961171c565b34801561060c57600080fd5b5061031e61061b36600461306a565b61172b565b34801561062c57600080fd5b5061031e61063b366004612f6a565b611736565b34801561064c57600080fd5b506103626101045481565b34801561066357600080fd5b506102b9610672366004613278565b6117be565b34801561068357600080fd5b5061031e6118a7565b34801561069857600080fd5b506102b961191e565b3480156106ad57600080fd5b5061028f6106bc366004612efd565b6001600160a01b039182166000908152609c6020908152604080832093909416825291909152205460ff1690565b3480156106f657600080fd5b5061031e610705366004612ee3565b61193e565b34801561071657600080fd5b5061031e610725366004613278565b611a1d565b60007fffffffff0000000000000000000000000000000000000000000000000000000082167f780e9d63000000000000000000000000000000000000000000000000000000001480610780575061078082611a7d565b92915050565b60606097805461079590613458565b80601f01602080910402602001604051908101604052809291908181526020018280546107c190613458565b801561080e5780601f106107e35761010080835404028352916020019161080e565b820191906000526020600020905b8154815290600101906020018083116107f157829003601f168201915b5050505050905090565b6000818152609960205260408120546001600160a01b03166108a75760405162461bcd60e51b815260206004820152602c60248201527f4552433732313a20617070726f76656420717565727920666f72206e6f6e657860448201527f697374656e7420746f6b656e000000000000000000000000000000000000000060648201526084015b60405180910390fd5b506000908152609b60205260409020546001600160a01b031690565b60006108ce826113fc565b9050806001600160a01b0316836001600160a01b031614156109585760405162461bcd60e51b815260206004820152602160248201527f4552433732313a20617070726f76616c20746f2063757272656e74206f776e6560448201527f7200000000000000000000000000000000000000000000000000000000000000606482015260840161089e565b336001600160a01b0382161480610974575061097481336106bc565b6109e65760405162461bcd60e51b815260206004820152603860248201527f4552433732313a20617070726f76652063616c6c6572206973206e6f74206f7760448201527f6e6572206e6f7220617070726f76656420666f7220616c6c0000000000000000606482015260840161089e565b6109f08383611b60565b505050565b600054610100900460ff16610a105760005460ff1615610a14565b303b155b610a865760405162461bcd60e51b815260206004820152602e60248201527f496e697469616c697a61626c653a20636f6e747261637420697320616c72656160448201527f647920696e697469616c697a6564000000000000000000000000000000000000606482015260840161089e565b600054610100900460ff16158015610aa8576000805461ffff19166101011790555b60fb805461ffff1916905560fc84905560fd839055604080518082018252601081527f4e6963652046756e205a6f6d62696573000000000000000000000000000000006020808301919091528251808401909352600383527f4e465a000000000000000000000000000000000000000000000000000000000090830152610b2e91611bdb565b610b36611c60565b610b3e611d3f565b8151610b5290610100906020850190612db7565b508015610b65576000805461ff00191690555b50505050565b610b753382611dba565b610be75760405162461bcd60e51b815260206004820152603160248201527f4552433732313a207472616e736665722063616c6c6572206973206e6f74206f60448201527f776e6572206e6f7220617070726f766564000000000000000000000000000000606482015260840161089e565b6109f0838383611ec2565b6033546001600160a01b03163314610c4c5760405162461bcd60e51b815260206004820181905260248201527f4f776e61626c653a2063616c6c6572206973206e6f7420746865206f776e6572604482015260640161089e565b60fb805460ff19811660ff90911615179055565b6000610c6b83611551565b8210610cdf5760405162461bcd60e51b815260206004820152602b60248201527f455243373231456e756d657261626c653a206f776e657220696e646578206f7560448201527f74206f6620626f756e6473000000000000000000000000000000000000000000606482015260840161089e565b506001600160a01b0391909116600090815260c960209081526040808320938352929052205490565b6033546001600160a01b03163314610d625760405162461bcd60e51b815260206004820181905260248201527f4f776e61626c653a2063616c6c6572206973206e6f7420746865206f776e6572604482015260640161089e565b6000610d6d60cb5490565b905060015b610d7d8360016133ca565b8110156109f057610d9733610d9283856133ca565b6120a7565b80610da181613493565b915050610d72565b6033546001600160a01b03163314610e035760405162461bcd60e51b815260206004820181905260248201527f4f776e61626c653a2063616c6c6572206973206e6f7420746865206f776e6572604482015260640161089e565b604051600090339047908381818185875af1925050503d8060008114610e45576040519150601f19603f3d011682016040523d82523d6000602084013e610e4a565b606091505b5050905080610e9b5760405162461bcd60e51b815260206004820152601060248201527f5472616e73666572206661696c65642e00000000000000000000000000000000604482015260640161089e565b50565b6000610ea960cb5490565b60fb54909150610100900460ff16610f035760405162461bcd60e51b815260206004820152601c60248201527f67656e6572616c206d696e7420686173206e6f74207374617274656400000000604482015260640161089e565b61115c610f1083836133ca565b10610f5d5760405162461bcd60e51b815260206004820152601660248201527f6578636565647320636f6e7472616374206c696d697400000000000000000000604482015260640161089e565b8161010454610f6c91906133f6565b341015610fbb5760405162461bcd60e51b815260206004820181905260248201527f4e6f7420656e6f756768206574682073656e743a20636865636b207072696365604482015260640161089e565b600b82106110315760405162461bcd60e51b815260206004820152602660248201527f4f6e6c79206d696e742031302e204c6561766520736f6d6520666f722074686560448201527f2072657374210000000000000000000000000000000000000000000000000000606482015260840161089e565b60015b61103f8360016133ca565b811015610b655761105484610d9283856133ca565b8061105e81613493565b915050611034565b6109f083838360405180602001604052806000815250611736565b600061108c60cb5490565b82106111005760405162461bcd60e51b815260206004820152602c60248201527f455243373231456e756d657261626c653a20676c6f62616c20696e646578206f60448201527f7574206f6620626f756e64730000000000000000000000000000000000000000606482015260840161089e565b60cb828154811061112157634e487b7160e01b600052603260045260246000fd5b60009182526020909120601082040154600f9091166002026101000a900461ffff1692915050565b6033546001600160a01b031633146111a35760405162461bcd60e51b815260206004820181905260248201527f4f776e61626c653a2063616c6c6572206973206e6f7420746865206f776e6572604482015260640161089e565b80516111b790610100906020840190612db7565b5050565b6033546001600160a01b031633146112155760405162461bcd60e51b815260206004820181905260248201527f4f776e61626c653a2063616c6c6572206973206e6f7420746865206f776e6572604482015260640161089e565b6040517f66726565436c61696d526f6f74000000000000000000000000000000000000006020820152602d01604051602081830303815290604052805190602001208260405160200161126891906132dd565b60405160208183030381529060405280519060200120141561128b576101055550565b60405162461bcd60e51b815260206004820152601260248201527f496e636f727265637420726f6f74547970650000000000000000000000000000604482015260640161089e565b61131e83838080602002602001604051908101604052809392919081815260200183836020028082843760009201919091525050610105549150611319905084886120c1565b612122565b61136a5760405162461bcd60e51b815260206004820152601e60248201527f6163636f756e74206e6f742070617274206f6620636c61696d206c6973740000604482015260640161089e565b6001600160a01b0384166000908152610103602052604090205460ff16156113ae576001600160a01b038416600090815261010360205260409020805460ff191690555b6001600160a01b0384166000908152610101602052604090205460ff16156113f2576001600160a01b038416600090815261010160205260409020805460ff191690555b610b6584826120a7565b6000818152609960205260408120546001600160a01b0316806107805760405162461bcd60e51b815260206004820152602960248201527f4552433732313a206f776e657220717565727920666f72206e6f6e657869737460448201527f656e7420746f6b656e0000000000000000000000000000000000000000000000606482015260840161089e565b61010260205281600052604060002081815481106114a457600080fd5b9060005260206000209060020201600091509150508060000180546114c890613458565b80601f01602080910402602001604051908101604052809291908181526020018280546114f490613458565b80156115415780601f1061151657610100808354040283529160200191611541565b820191906000526020600020905b81548152906001019060200180831161152457829003601f168201915b5050505050908060010154905082565b60006001600160a01b0382166115cf5760405162461bcd60e51b815260206004820152602a60248201527f4552433732313a2062616c616e636520717565727920666f7220746865207a6560448201527f726f206164647265737300000000000000000000000000000000000000000000606482015260840161089e565b506001600160a01b03166000908152609a602052604090205490565b6033546001600160a01b031633146116455760405162461bcd60e51b815260206004820181905260248201527f4f776e61626c653a2063616c6c6572206973206e6f7420746865206f776e6572604482015260640161089e565b61164f6000612138565b565b6033546001600160a01b031633146116ab5760405162461bcd60e51b815260206004820181905260248201527f4f776e61626c653a2063616c6c6572206973206e6f7420746865206f776e6572604482015260640161089e565b60006116b660cb5490565b905060015b825181116109f0576000836116d1600184613415565b815181106116ef57634e487b7160e01b600052603260045260246000fd5b60200260200101519050611709818385610d9291906133ca565b508061171481613493565b9150506116bb565b60606098805461079590613458565b6111b7338383612197565b6117403383611dba565b6117b25760405162461bcd60e51b815260206004820152603160248201527f4552433732313a207472616e736665722063616c6c6572206973206e6f74206f60448201527f776e6572206e6f7220617070726f766564000000000000000000000000000000606482015260840161089e565b610b6584848484612266565b6000818152609960205260409020546060906001600160a01b031661184b5760405162461bcd60e51b815260206004820152602f60248201527f4552433732314d657461646174613a2055524920717565727920666f72206e6f60448201527f6e6578697374656e7420746f6b656e0000000000000000000000000000000000606482015260840161089e565b60006118556122ef565b9050600081511161187557604051806020016040528060008152506118a0565b8061187f846122ff565b6040516020016118909291906132f9565b6040516020818303038152906040525b9392505050565b6033546001600160a01b031633146119015760405162461bcd60e51b815260206004820181905260248201527f4f776e61626c653a2063616c6c6572206973206e6f7420746865206f776e6572604482015260640161089e565b60fb805461ff001981166101009182900460ff1615909102179055565b606060405180606001604052806026815260200161353360269139905090565b6033546001600160a01b031633146119985760405162461bcd60e51b815260206004820181905260248201527f4f776e61626c653a2063616c6c6572206973206e6f7420746865206f776e6572604482015260640161089e565b6001600160a01b038116611a145760405162461bcd60e51b815260206004820152602660248201527f4f776e61626c653a206e6577206f776e657220697320746865207a65726f206160448201527f6464726573730000000000000000000000000000000000000000000000000000606482015260840161089e565b610e9b81612138565b6033546001600160a01b03163314611a775760405162461bcd60e51b815260206004820181905260248201527f4f776e61626c653a2063616c6c6572206973206e6f7420746865206f776e6572604482015260640161089e565b61010455565b60007fffffffff0000000000000000000000000000000000000000000000000000000082167f80ac58cd000000000000000000000000000000000000000000000000000000001480611b1057507fffffffff0000000000000000000000000000000000000000000000000000000082167f5b5e139f00000000000000000000000000000000000000000000000000000000145b8061078057507f01ffc9a7000000000000000000000000000000000000000000000000000000007fffffffff00000000000000000000000000000000000000000000000000000000831614610780565b6000818152609b60205260409020805473ffffffffffffffffffffffffffffffffffffffff19166001600160a01b0384169081179091558190611ba2826113fc565b6001600160a01b03167f8c5be1e5ebec7d5bd14f71427d1e84f3dd0314c0f7b2291e5b200ac8c7c3b92560405160405180910390a45050565b600054610100900460ff16611c465760405162461bcd60e51b815260206004820152602b60248201527f496e697469616c697a61626c653a20636f6e7472616374206973206e6f74206960448201526a6e697469616c697a696e6760a81b606482015260840161089e565b611c4e61244d565b611c5661244d565b6111b782826124b8565b600054610100900460ff16611c7b5760005460ff1615611c7f565b303b155b611cf15760405162461bcd60e51b815260206004820152602e60248201527f496e697469616c697a61626c653a20636f6e747261637420697320616c72656160448201527f647920696e697469616c697a6564000000000000000000000000000000000000606482015260840161089e565b600054610100900460ff16158015611d13576000805461ffff19166101011790555b611d1b61244d565b611d2361244d565b611d2b61254a565b8015610e9b576000805461ff001916905550565b600054610100900460ff16611daa5760405162461bcd60e51b815260206004820152602b60248201527f496e697469616c697a61626c653a20636f6e7472616374206973206e6f74206960448201526a6e697469616c697a696e6760a81b606482015260840161089e565b611db261244d565b61164f612610565b6000818152609960205260408120546001600160a01b0316611e445760405162461bcd60e51b815260206004820152602c60248201527f4552433732313a206f70657261746f7220717565727920666f72206e6f6e657860448201527f697374656e7420746f6b656e0000000000000000000000000000000000000000606482015260840161089e565b6000611e4f836113fc565b9050806001600160a01b0316846001600160a01b03161480611e8a5750836001600160a01b0316611e7f84610818565b6001600160a01b0316145b80611eba57506001600160a01b038082166000908152609c602090815260408083209388168352929052205460ff165b949350505050565b826001600160a01b0316611ed5826113fc565b6001600160a01b031614611f515760405162461bcd60e51b815260206004820152602960248201527f4552433732313a207472616e73666572206f6620746f6b656e2074686174206960448201527f73206e6f74206f776e0000000000000000000000000000000000000000000000606482015260840161089e565b6001600160a01b038216611fcc5760405162461bcd60e51b8152602060048201526024808201527f4552433732313a207472616e7366657220746f20746865207a65726f2061646460448201527f7265737300000000000000000000000000000000000000000000000000000000606482015260840161089e565b611fd7838383612684565b611fe2600082611b60565b6001600160a01b0383166000908152609a6020526040812080546001929061200b908490613415565b90915550506001600160a01b0382166000908152609a602052604081208054600192906120399084906133ca565b9091555050600081815260996020526040808220805473ffffffffffffffffffffffffffffffffffffffff19166001600160a01b0386811691821790925591518493918716917fddf252ad1be2c89b69c2b068fc378daa952ba7f163c4a11628f55a4df523b3ef91a4505050565b6111b782826040518060200160405280600081525061275b565b6000828260405160200161210492919091825260601b7fffffffffffffffffffffffffffffffffffffffff00000000000000000000000016602082015260340190565b60405160208183030381529060405280519060200120905092915050565b60008261212f85846127e4565b14949350505050565b603380546001600160a01b0383811673ffffffffffffffffffffffffffffffffffffffff19831681179093556040519116919082907f8be0079c531659141344cd1fd0a4f28419497f9722a3daafe3b4186f6b6457e090600090a35050565b816001600160a01b0316836001600160a01b031614156121f95760405162461bcd60e51b815260206004820152601960248201527f4552433732313a20617070726f766520746f2063616c6c657200000000000000604482015260640161089e565b6001600160a01b038381166000818152609c6020908152604080832094871680845294825291829020805460ff191686151590811790915591519182527f17307eab39ab6107e8899845ad3d59bd9653f200f220920489ca2b5937696c31910160405180910390a3505050565b612271848484611ec2565b61227d8484848461289e565b610b655760405162461bcd60e51b815260206004820152603260248201527f4552433732313a207472616e7366657220746f206e6f6e20455243373231526560448201527f63656976657220696d706c656d656e7465720000000000000000000000000000606482015260840161089e565b6060610100805461079590613458565b60608161233f57505060408051808201909152600181527f3000000000000000000000000000000000000000000000000000000000000000602082015290565b8160005b8115612369578061235381613493565b91506123629050600a836133e2565b9150612343565b60008167ffffffffffffffff81111561239257634e487b7160e01b600052604160045260246000fd5b6040519080825280601f01601f1916602001820160405280156123bc576020820181803683370190505b5090505b8415611eba576123d1600183613415565b91506123de600a866134ae565b6123e99060306133ca565b60f81b81838151811061240c57634e487b7160e01b600052603260045260246000fd5b60200101907effffffffffffffffffffffffffffffffffffffffffffffffffffffffffffff1916908160001a905350612446600a866133e2565b94506123c0565b600054610100900460ff1661164f5760405162461bcd60e51b815260206004820152602b60248201527f496e697469616c697a61626c653a20636f6e7472616374206973206e6f74206960448201526a6e697469616c697a696e6760a81b606482015260840161089e565b600054610100900460ff166125235760405162461bcd60e51b815260206004820152602b60248201527f496e697469616c697a61626c653a20636f6e7472616374206973206e6f74206960448201526a6e697469616c697a696e6760a81b606482015260840161089e565b8151612536906097906020850190612db7565b5080516109f0906098906020840190612db7565b600054610100900460ff166125655760005460ff1615612569565b303b155b6125db5760405162461bcd60e51b815260206004820152602e60248201527f496e697469616c697a61626c653a20636f6e747261637420697320616c72656160448201527f647920696e697469616c697a6564000000000000000000000000000000000000606482015260840161089e565b600054610100900460ff16158015611d2b576000805461ffff19166101011790558015610e9b576000805461ff001916905550565b600054610100900460ff1661267b5760405162461bcd60e51b815260206004820152602b60248201527f496e697469616c697a61626c653a20636f6e7472616374206973206e6f74206960448201526a6e697469616c697a696e6760a81b606482015260840161089e565b61164f33612138565b6001600160a01b0383166126fe5760cb8054600083815260cc60205260408120829055600182018355919091527fa7ce836d032b2bf62b7e2097a8e0a6d8aeb35405ad15271e96d3b0188a1d06fb60108204018054600f9092166002026101000a61ffff8181021990931692841602919091179055612721565b816001600160a01b0316836001600160a01b031614612721576127218382612a4b565b6001600160a01b038216612738576109f081612ae8565b826001600160a01b0316826001600160a01b0316146109f0576109f08282612c18565b6127658383612c5c565b612772600084848461289e565b6109f05760405162461bcd60e51b815260206004820152603260248201527f4552433732313a207472616e7366657220746f206e6f6e20455243373231526560448201527f63656976657220696d706c656d656e7465720000000000000000000000000000606482015260840161089e565b600081815b845181101561289657600085828151811061281457634e487b7160e01b600052603260045260246000fd5b60200260200101519050808311612856576040805160208101859052908101829052606001604051602081830303815290604052805190602001209250612883565b60408051602081018390529081018490526060016040516020818303038152906040528051906020012092505b508061288e81613493565b9150506127e9565b509392505050565b60006001600160a01b0384163b15612a40576040517f150b7a020000000000000000000000000000000000000000000000000000000081526001600160a01b0385169063150b7a02906128fb903390899088908890600401613328565b602060405180830381600087803b15801561291557600080fd5b505af1925050508015612945575060408051601f3d908101601f19168201909252612942918101906131e6565b60015b6129f5573d808015612973576040519150601f19603f3d011682016040523d82523d6000602084013e612978565b606091505b5080516129ed5760405162461bcd60e51b815260206004820152603260248201527f4552433732313a207472616e7366657220746f206e6f6e20455243373231526560448201527f63656976657220696d706c656d656e7465720000000000000000000000000000606482015260840161089e565b805181602001fd5b7fffffffff00000000000000000000000000000000000000000000000000000000167f150b7a0200000000000000000000000000000000000000000000000000000000149050611eba565b506001949350505050565b60006001612a5884611551565b612a629190613415565b600083815260ca6020526040902054909150808214612ab5576001600160a01b038416600090815260c960209081526040808320858452825280832054848452818420819055835260ca90915290208190555b50600091825260ca602090815260408084208490556001600160a01b03909416835260c981528383209183525290812055565b60cb54600090612afa90600190613415565b600083815260cc602052604081205460cb8054939450909284908110612b3057634e487b7160e01b600052603260045260246000fd5b90600052602060002090601091828204019190066002029054906101000a900461ffff1661ffff1690508060cb8381548110612b7c57634e487b7160e01b600052603260045260246000fd5b6000918252602080832060108304018054600f9093166002026101000a61ffff81810219909416959093169290920293909317905582815260cc909152604080822084905585825281205560cb805480612be657634e487b7160e01b600052603160045260246000fd5b600082815260209020601060001990920191820401805461ffff6002600f8516026101000a0219169055905550505050565b6000612c2383611551565b6001600160a01b03909316600090815260c960209081526040808320868452825280832085905593825260ca9052919091209190915550565b6001600160a01b038216612cb25760405162461bcd60e51b815260206004820181905260248201527f4552433732313a206d696e7420746f20746865207a65726f2061646472657373604482015260640161089e565b6000818152609960205260409020546001600160a01b031615612d175760405162461bcd60e51b815260206004820152601c60248201527f4552433732313a20746f6b656e20616c7265616479206d696e74656400000000604482015260640161089e565b612d2360008383612684565b6001600160a01b0382166000908152609a60205260408120805460019290612d4c9084906133ca565b9091555050600081815260996020526040808220805473ffffffffffffffffffffffffffffffffffffffff19166001600160a01b03861690811790915590518392907fddf252ad1be2c89b69c2b068fc378daa952ba7f163c4a11628f55a4df523b3ef908290a45050565b828054612dc390613458565b90600052602060002090601f016020900481019282612de55760008555612e2b565b82601f10612dfe57805160ff1916838001178555612e2b565b82800160010185558215612e2b579182015b82811115612e2b578251825591602001919060010190612e10565b50612e37929150612e3b565b5090565b5b80821115612e375760008155600101612e3c565b600067ffffffffffffffff831115612e6a57612e6a6134ee565b612e7d6020601f19601f86011601613399565b9050828152838383011115612e9157600080fd5b828260208301376000602084830101529392505050565b80356001600160a01b0381168114612ebf57600080fd5b919050565b600082601f830112612ed4578081fd5b6118a083833560208501612e50565b600060208284031215612ef4578081fd5b6118a082612ea8565b60008060408385031215612f0f578081fd5b612f1883612ea8565b9150612f2660208401612ea8565b90509250929050565b600080600060608486031215612f43578081fd5b612f4c84612ea8565b9250612f5a60208501612ea8565b9150604084013590509250925092565b60008060008060808587031215612f7f578081fd5b612f8885612ea8565b9350612f9660208601612ea8565b925060408501359150606085013567ffffffffffffffff811115612fb8578182fd5b8501601f81018713612fc8578182fd5b612fd787823560208401612e50565b91505092959194509250565b60008060008060608587031215612ff8578384fd5b61300185612ea8565b9350602085013567ffffffffffffffff8082111561301d578485fd5b818701915087601f830112613030578485fd5b81358181111561303e578586fd5b8860208260051b8501011115613052578586fd5b95986020929092019750949560400135945092505050565b6000806040838503121561307c578182fd5b61308583612ea8565b915060208301358015158114613099578182fd5b809150509250929050565b600080604083850312156130b6578182fd5b6130bf83612ea8565b946020939093013593505050565b600060208083850312156130df578182fd5b823567ffffffffffffffff808211156130f6578384fd5b818501915085601f830112613109578384fd5b81358181111561311b5761311b6134ee565b8060051b915061312c848301613399565b8181528481019084860184860187018a1015613146578788fd5b8795505b8386101561316f5761315b81612ea8565b83526001959095019491860191860161314a565b5098975050505050505050565b600080600060608486031215613190578283fd5b8335925060208401359150604084013567ffffffffffffffff8111156131b4578182fd5b6131c086828701612ec4565b9150509250925092565b6000602082840312156131db578081fd5b81356118a081613504565b6000602082840312156131f7578081fd5b81516118a081613504565b600060208284031215613213578081fd5b813567ffffffffffffffff811115613229578182fd5b611eba84828501612ec4565b60008060408385031215613247578182fd5b823567ffffffffffffffff81111561325d578283fd5b61326985828601612ec4565b95602094909401359450505050565b600060208284031215613289578081fd5b5035919050565b600080604083850312156132a2578182fd5b50508035926020909101359150565b600081518084526132c981602086016020860161342c565b601f01601f19169290920160200192915050565b600082516132ef81846020870161342c565b9190910192915050565b6000835161330b81846020880161342c565b83519083019061331f81836020880161342c565b01949350505050565b60006001600160a01b0380871683528086166020840152508360408301526080606083015261335a60808301846132b1565b9695505050505050565b6020815260006118a060208301846132b1565b60408152600061338a60408301856132b1565b90508260208301529392505050565b604051601f8201601f1916810167ffffffffffffffff811182821017156133c2576133c26134ee565b604052919050565b600082198211156133dd576133dd6134c2565b500190565b6000826133f1576133f16134d8565b500490565b6000816000190483118215151615613410576134106134c2565b500290565b600082821015613427576134276134c2565b500390565b60005b8381101561344757818101518382015260200161342f565b83811115610b655750506000910152565b600181811c9082168061346c57607f821691505b6020821081141561348d57634e487b7160e01b600052602260045260246000fd5b50919050565b60006000198214156134a7576134a76134c2565b5060010190565b6000826134bd576134bd6134d8565b500690565b634e487b7160e01b600052601160045260246000fd5b634e487b7160e01b600052601260045260246000fd5b634e487b7160e01b600052604160045260246000fd5b7fffffffff0000000000000000000000000000000000000000000000000000000081168114610e9b57600080fdfe68747470733a2f2f6170692e6e69636566756e7a6f6d626965732e696f2f636f6e7472616374a26469706673582212203e412ddaa1fd3c4d3c9de7eb4e0aeb30b5a4543bb4d090ddcd6c522b732040a964736f6c63430008040033",
  "linkReferences": {},
  "deployedLinkReferences": {}
}